{
  "transactions": [
    {
      "hash": "0xc5225f90b38cf235a879c392176732e9e9fa296dc80be155d868dd8b10312da6",
      "transactionType": "CALL",
      "contractName": null,
      "contractAddress": "0x61d810c745e3cfa17659a64d68824137c7b9625e",
      "function": "initialize((address,address,uint24,int24,address),uint160,bytes)",
      "arguments": [
        "(0x1c7D4B196Cb0C7B01d743Fbc6116a902379C7238, 0xfFf9976782d46CC05630D1f6eBAb18b2324d6B14, 500, 10, 0x0000000000000000000000000000000000000000)",
        "79228162514264337593543950336",
        "0x"
      ],
      "transaction": {
        "from": "0x633adfb3430b96238c9fb7026195d1d5b0889ea6",
        "to": "0x61d810c745e3cfa17659a64d68824137c7b9625e",
        "gas": "0x12765",
        "value": "0x0",
        "input": "0x695c5bf50000000000000000000000001c7d4b196cb0c7b01d743fbc6116a902379c7238000000000000000000000000fff9976782d46cc05630d1f6ebab18b2324d6b1400000000000000000000000000000000000000000000000000000000000001f4000000000000000000000000000000000000000000000000000000000000000a0000000000000000000000000000000000000000000000000000000000000000000000000000000000000000000000000000000100000000000000000000000000000000000000000000000000000000000000000000000000000000000000e00000000000000000000000000000000000000000000000000000000000000000",
        "nonce": "0xca",
        "chainId": "0xaa36a7"
      },
      "additionalContracts": [],
      "isFixedGasLimit": false
    }
  ],
  "receipts": [
    {
      "status": "0x1",
      "cumulativeGasUsed": "0x5b51a1",
      "logs": [
        {
          "address": "0x61d810c745e3cfa17659a64d68824137c7b9625e",
          "topics": [
            "0x3fd553db44f207b1f41348cfc4d251860814af9eadc470e8e7895e4d120511f4",
            "0x0000000000000000000000001c7d4b196cb0c7b01d743fbc6116a902379c7238",
            "0x000000000000000000000000fff9976782d46cc05630d1f6ebab18b2324d6b14"
          ],
          "data": "0xabdb9820d36431e092c155f7151c4c781f09fb4e1b7894fa918a0aadcac87e1600000000000000000000000000000000000000000000000000000000000001f4000000000000000000000000000000000000000000000000000000000000000a0000000000000000000000000000000000000000000000000000000000000000",
          "blockHash": "0xc9d2505681ff9b3acfbcc28af446f419f06414faadffb4faf218581058eaff79",
          "blockNumber": "0x602ab7",
          "transactionHash": "0xc5225f90b38cf235a879c392176732e9e9fa296dc80be155d868dd8b10312da6",
          "transactionIndex": "0x29",
          "logIndex": "0x4c",
          "removed": false
        }
      ],
      "logsBloom": "0x00000000001000000000000000000000000000000000000000000000000000000000000000000000000000000000000000000800000004000000000000000000100000000000000000000000000020000001000000000000000000000000000000000000000000000000000000000000000000000000000000000000000000000000000000000000000000000000000000000004000000000000000000000000000000000000000000000000000000000000008000000000000000000000000000000000000000000000000001000000000000000000000000000000000000040000000000000000000000000000000000000000001002000000000000000000",
      "type": "0x2",
      "transactionHash": "0xc5225f90b38cf235a879c392176732e9e9fa296dc80be155d868dd8b10312da6",
      "transactionIndex": "0x29",
      "blockHash": "0xc9d2505681ff9b3acfbcc28af446f419f06414faadffb4faf218581058eaff79",
      "blockNumber": "0x602ab7",
      "gasUsed": "0xd5dd",
      "effectiveGasPrice": "0x431efb15",
      "from": "0x633adfb3430b96238c9fb7026195d1d5b0889ea6",
      "to": "0x61d810c745e3cfa17659a64d68824137c7b9625e",
      "contractAddress": null
    }
  ],
  "libraries": [],
  "pending": [],
  "returns": {},
  "timestamp": 1720868642,
  "chain": 11155111,
  "commit": "2396f65"
}