{
  "transactions": [
    {
      "hash": "0x78184870751318c70daf0cee0e8198e6c77b862595994a3eceaccafa239c87e4",
      "transactionType": "CALL",
      "contractName": null,
      "contractAddress": "0x9c430dbdf1936aa36154e2046bb91c065aa0107b",
      "function": "initialize((address,address,uint24,int24,address),uint160,bytes)",
      "arguments": [
        "(0x1c7D4B196Cb0C7B01d743Fbc6116a902379C7238, 0xfFf9976782d46CC05630D1f6eBAb18b2324d6B14, 500, 10, 0x0000000000000000000000000000000000000000)",
        "79228162514264337593543950336",
        "0x"
      ],
      "transaction": {
        "from": "0x633adfb3430b96238c9fb7026195d1d5b0889ea6",
        "to": "0x9c430dbdf1936aa36154e2046bb91c065aa0107b",
        "gas": "0x12765",
        "value": "0x0",
        "input": "0x695c5bf50000000000000000000000001c7d4b196cb0c7b01d743fbc6116a902379c7238000000000000000000000000fff9976782d46cc05630d1f6ebab18b2324d6b1400000000000000000000000000000000000000000000000000000000000001f4000000000000000000000000000000000000000000000000000000000000000a0000000000000000000000000000000000000000000000000000000000000000000000000000000000000000000000000000000100000000000000000000000000000000000000000000000000000000000000000000000000000000000000e00000000000000000000000000000000000000000000000000000000000000000",
        "nonce": "0x120",
        "chainId": "0xaa36a7"
      },
      "additionalContracts": [],
      "isFixedGasLimit": false
    }
  ],
  "receipts": [
    {
      "status": "0x1",
      "cumulativeGasUsed": "0x606b86",
      "logs": [
        {
          "address": "0x9c430dbdf1936aa36154e2046bb91c065aa0107b",
          "topics": [
            "0x3fd553db44f207b1f41348cfc4d251860814af9eadc470e8e7895e4d120511f4",
            "0x0000000000000000000000001c7d4b196cb0c7b01d743fbc6116a902379c7238",
            "0x000000000000000000000000fff9976782d46cc05630d1f6ebab18b2324d6b14"
          ],
          "data": "0xabdb9820d36431e092c155f7151c4c781f09fb4e1b7894fa918a0aadcac87e1600000000000000000000000000000000000000000000000000000000000001f4000000000000000000000000000000000000000000000000000000000000000a0000000000000000000000000000000000000000000000000000000000000000",
          "blockHash": "0xbc7d3bfdce867be6db61ae3762166c23bd466c6c5e6a3457c937c9c78c82f5e4",
          "blockNumber": "0x6032a5",
          "transactionHash": "0x78184870751318c70daf0cee0e8198e6c77b862595994a3eceaccafa239c87e4",
          "transactionIndex": "0x3b",
          "logIndex": "0x51",
          "removed": false
        }
      ],
      "logsBloom": "0x00000000001000000000000000000000000000001000000000000000000000000200000000000000000000000000000000000800000004000000000000000000100000000000000000000000000020000000000000000000000000000000000000000000000000000000000000000000000000000000000000000000000000000000000000000000000040000000000000000000000000000000000000000000000000000000000000000000000000000000008000000000000000000000000000000000000000000000000001000000000000000000000000000000000000040000000000000000000000000000000000000000000002000000000000000000",
      "type": "0x2",
      "transactionHash": "0x78184870751318c70daf0cee0e8198e6c77b862595994a3eceaccafa239c87e4",
      "transactionIndex": "0x3b",
      "blockHash": "0xbc7d3bfdce867be6db61ae3762166c23bd466c6c5e6a3457c937c9c78c82f5e4",
      "blockNumber": "0x6032a5",
      "gasUsed": "0xd5dd",
      "effectiveGasPrice": "0x44dcb30",
      "from": "0x633adfb3430b96238c9fb7026195d1d5b0889ea6",
      "to": "0x9c430dbdf1936aa36154e2046bb91c065aa0107b",
      "contractAddress": null
    }
  ],
  "libraries": [],
  "pending": [],
  "returns": {},
  "timestamp": 1720896843,
  "chain": 11155111,
  "commit": "d02f53f"
}