{
  "transactions": [
    {
      "hash": "0x26482b7ceb1419b52f903d92de91864d1978e72e0912e7d67aa30c894335c8d1",
      "transactionType": "CALL",
      "contractName": "PoolManager",
      "contractAddress": "0x61d810c745e3cfa17659a64d68824137c7b9625e",
      "function": "initialize((address,address,uint24,int24,address),uint160,bytes)",
      "arguments": [
        "(0x1c7D4B196Cb0C7B01d743Fbc6116a902379C7238, 0xfFf9976782d46CC05630D1f6eBAb18b2324d6B14, 1000, 10, 0x0000000000000000000000000000000000000000)",
        "79228162514264337593543950336",
        "0x00000000000000000000000000000000000000000000000000000000669248f4"
      ],
      "transaction": {
        "from": "0x633adfb3430b96238c9fb7026195d1d5b0889ea6",
        "to": "0x61d810c745e3cfa17659a64d68824137c7b9625e",
        "gas": "0x139d9",
        "value": "0x0",
        "input": "0x695c5bf50000000000000000000000001c7d4b196cb0c7b01d743fbc6116a902379c7238000000000000000000000000fff9976782d46cc05630d1f6ebab18b2324d6b1400000000000000000000000000000000000000000000000000000000000003e8000000000000000000000000000000000000000000000000000000000000000a0000000000000000000000000000000000000000000000000000000000000000000000000000000000000000000000000000000100000000000000000000000000000000000000000000000000000000000000000000000000000000000000e0000000000000000000000000000000000000000000000000000000000000002000000000000000000000000000000000000000000000000000000000669248f4",
        "nonce": "0xc7",
        "chainId": "0xaa36a7"
      },
      "additionalContracts": [],
      "isFixedGasLimit": false
    }
  ],
  "receipts": [
    {
      "status": "0x1",
      "cumulativeGasUsed": "0x15e9d32",
      "logs": [
        {
          "address": "0x61d810c745e3cfa17659a64d68824137c7b9625e",
          "topics": [
            "0x3fd553db44f207b1f41348cfc4d251860814af9eadc470e8e7895e4d120511f4",
            "0x0000000000000000000000001c7d4b196cb0c7b01d743fbc6116a902379c7238",
            "0x000000000000000000000000fff9976782d46cc05630d1f6ebab18b2324d6b14"
          ],
          "data": "0x7aac5217cd71b300f36d0018de88ae747d2455bd4863a77d0b1b981c5d18475800000000000000000000000000000000000000000000000000000000000003e8000000000000000000000000000000000000000000000000000000000000000a0000000000000000000000000000000000000000000000000000000000000000",
          "blockHash": "0x47c8f861befc7048abb24b22bc8404b283b46617e666a12ed096b9ae4f292253",
          "blockNumber": "0x602912",
          "transactionHash": "0x26482b7ceb1419b52f903d92de91864d1978e72e0912e7d67aa30c894335c8d1",
          "transactionIndex": "0xaf",
          "logIndex": "0x164",
          "removed": false
        }
      ],
      "logsBloom": "0x00000000001000000000000000000000000000000000000000000000000000000000000000000000000000000000000000000800000004000000000000000000100000000000000000000000000020000001000000000000000000000000000000000000000000000000000000000000000000000000000000000000000000000000000000000000000000000000000000000004000000000000000000000000000000000000000000000000000000000000008000000000000000000000000000000000000000000000000001000000000000000000000000000000000000040000000000000000000000000000000000000000001002000000000000000000",
      "type": "0x2",
      "transactionHash": "0x26482b7ceb1419b52f903d92de91864d1978e72e0912e7d67aa30c894335c8d1",
      "transactionIndex": "0xaf",
      "blockHash": "0x47c8f861befc7048abb24b22bc8404b283b46617e666a12ed096b9ae4f292253",
      "blockNumber": "0x602912",
      "gasUsed": "0xd699",
      "effectiveGasPrice": "0x11b684a94",
      "from": "0x633adfb3430b96238c9fb7026195d1d5b0889ea6",
      "to": "0x61d810c745e3cfa17659a64d68824137c7b9625e",
      "contractAddress": null
    }
  ],
  "libraries": [],
  "pending": [],
  "returns": {},
  "timestamp": 1720863004,
  "chain": 11155111,
  "commit": "ffaddbd"
}