{
  "transactions": [
    {
      "hash": "0x915a7310976f737b890b0d0497fc17d96fa92746a35424bc7451ab1889192b6c",
      "transactionType": "CALL",
      "contractName": null,
      "contractAddress": "0x1c7d4b196cb0c7b01d743fbc6116a902379c7238",
      "function": "approve(address,uint256)",
      "arguments": [
        "0xff80e212A63059B8d904104a7d58baa4fB00D30E",
        "115792089237316195423570985008687907853269984665640564039457584007913129639935"
      ],
      "transaction": {
        "from": "0x633adfb3430b96238c9fb7026195d1d5b0889ea6",
        "to": "0x1c7d4b196cb0c7b01d743fbc6116a902379c7238",
        "gas": "0xdcef",
        "value": "0x0",
        "input": "0x095ea7b3000000000000000000000000ff80e212a63059b8d904104a7d58baa4fb00d30effffffffffffffffffffffffffffffffffffffffffffffffffffffffffffffff",
        "nonce": "0xeb",
        "chainId": "0xaa36a7"
      },
      "additionalContracts": [],
      "isFixedGasLimit": false
    },
    {
      "hash": "0x480b0249705912372d33e1508b9d79b97ca13bc761a83a0ef30024ca94638764",
      "transactionType": "CALL",
      "contractName": null,
      "contractAddress": "0xfff9976782d46cc05630d1f6ebab18b2324d6b14",
      "function": "approve(address,uint256)",
      "arguments": [
        "0xff80e212A63059B8d904104a7d58baa4fB00D30E",
        "115792089237316195423570985008687907853269984665640564039457584007913129639935"
      ],
      "transaction": {
        "from": "0x633adfb3430b96238c9fb7026195d1d5b0889ea6",
        "to": "0xfff9976782d46cc05630d1f6ebab18b2324d6b14",
        "gas": "0x8eb8",
        "value": "0x0",
        "input": "0x095ea7b3000000000000000000000000ff80e212a63059b8d904104a7d58baa4fb00d30effffffffffffffffffffffffffffffffffffffffffffffffffffffffffffffff",
        "nonce": "0xec",
        "chainId": "0xaa36a7"
      },
      "additionalContracts": [],
      "isFixedGasLimit": false
    },
    {
      "hash": "0xecf97f14050974e1355ae27783f41133c11528492a45e36de27427be7438b4e8",
      "transactionType": "CALL",
      "contractName": null,
      "contractAddress": "0xff80e212a63059b8d904104a7d58baa4fb00d30e",
      "function": "modifyLiquidity((address,address,uint24,int24,address),(int24,int24,int256,bytes32),bytes)",
      "arguments": [
        "(0x1c7D4B196Cb0C7B01d743Fbc6116a902379C7238, 0xfFf9976782d46CC05630D1f6eBAb18b2324d6B14, 500, 10, 0x0000000000000000000000000000000000000000)",
        "(-600, 600, 1000000, 0x0000000000000000000000000000000000000000000000000000000000000000)",
        "0x"
      ],
      "transaction": {
        "from": "0x633adfb3430b96238c9fb7026195d1d5b0889ea6",
        "to": "0xff80e212a63059b8d904104a7d58baa4fb00d30e",
        "gas": "0x361bb",
        "value": "0x0",
        "input": "0x5a6bcfda0000000000000000000000001c7d4b196cb0c7b01d743fbc6116a902379c7238000000000000000000000000fff9976782d46cc05630d1f6ebab18b2324d6b1400000000000000000000000000000000000000000000000000000000000001f4000000000000000000000000000000000000000000000000000000000000000a0000000000000000000000000000000000000000000000000000000000000000fffffffffffffffffffffffffffffffffffffffffffffffffffffffffffffda8000000000000000000000000000000000000000000000000000000000000025800000000000000000000000000000000000000000000000000000000000f4240000000000000000000000000000000000000000000000000000000000000000000000000000000000000000000000000000000000000000000000000000001400000000000000000000000000000000000000000000000000000000000000000",
        "nonce": "0xed",
        "chainId": "0xaa36a7"
      },
      "additionalContracts": [],
      "isFixedGasLimit": false
    }
  ],
  "receipts": [
    {
      "status": "0x1",
      "cumulativeGasUsed": "0x6be798",
      "logs": [
        {
          "address": "0x1c7d4b196cb0c7b01d743fbc6116a902379c7238",
          "topics": [
            "0x8c5be1e5ebec7d5bd14f71427d1e84f3dd0314c0f7b2291e5b200ac8c7c3b925",
            "0x000000000000000000000000633adfb3430b96238c9fb7026195d1d5b0889ea6",
            "0x000000000000000000000000ff80e212a63059b8d904104a7d58baa4fb00d30e"
          ],
          "data": "0xffffffffffffffffffffffffffffffffffffffffffffffffffffffffffffffff",
          "blockHash": "0xa24ed76569a4c79bc9b25a283c165041d0bf665c9944ba5013e95432b9068058",
          "blockNumber": "0x603124",
          "transactionHash": "0x915a7310976f737b890b0d0497fc17d96fa92746a35424bc7451ab1889192b6c",
          "transactionIndex": "0x3a",
          "logIndex": "0x52",
          "removed": false
        }
      ],
      "logsBloom": "0x00000000000000000000000000000000000000000000000000000000000200000000000000000000000000000000000000000000200000000000000000200001000000000000000000000000000000000000000000000000000000000000000000000000000000000000000000000000000000200000000000002000000000000000000000100000000000000000000000000000000000000000000000000000020000000000000000000000000000000000000000000000000000000000000000000000000000000000000000000000010000000000000000000000000000000010000000000080000010000000000000000000000000000000000000000000",
      "type": "0x2",
      "transactionHash": "0x915a7310976f737b890b0d0497fc17d96fa92746a35424bc7451ab1889192b6c",
      "transactionIndex": "0x3a",
      "blockHash": "0xa24ed76569a4c79bc9b25a283c165041d0bf665c9944ba5013e95432b9068058",
      "blockNumber": "0x603124",
      "gasUsed": "0x9711",
      "effectiveGasPrice": "0x556806e4",
      "from": "0x633adfb3430b96238c9fb7026195d1d5b0889ea6",
      "to": "0x1c7d4b196cb0c7b01d743fbc6116a902379c7238",
      "contractAddress": null
    },
    {
      "status": "0x1",
      "cumulativeGasUsed": "0x6c4eec",
      "logs": [
        {
          "address": "0xfff9976782d46cc05630d1f6ebab18b2324d6b14",
          "topics": [
            "0x8c5be1e5ebec7d5bd14f71427d1e84f3dd0314c0f7b2291e5b200ac8c7c3b925",
            "0x000000000000000000000000633adfb3430b96238c9fb7026195d1d5b0889ea6",
            "0x000000000000000000000000ff80e212a63059b8d904104a7d58baa4fb00d30e"
          ],
          "data": "0xffffffffffffffffffffffffffffffffffffffffffffffffffffffffffffffff",
          "blockHash": "0xa24ed76569a4c79bc9b25a283c165041d0bf665c9944ba5013e95432b9068058",
          "blockNumber": "0x603124",
          "transactionHash": "0x480b0249705912372d33e1508b9d79b97ca13bc761a83a0ef30024ca94638764",
          "transactionIndex": "0x3b",
          "logIndex": "0x53",
          "removed": false
        }
      ],
      "logsBloom": "0x00000000000000000000000000000000000000000000000000000000000000000000000000000000000000000000000000000000200000000000000000200001000000000000000000000000000000000000000000000000000000000000000000000000000000000000000000000000000000200000000000002000000000000040000000000000000000000000000000000000000000000000000000000000020020000000000000000000000000000000000000000000000000000000000000000000000000000002000000000000010000000000000000000000000000000010000000000080000000000000000000000000000000000000000000000000",
      "type": "0x2",
      "transactionHash": "0x480b0249705912372d33e1508b9d79b97ca13bc761a83a0ef30024ca94638764",
      "transactionIndex": "0x3b",
      "blockHash": "0xa24ed76569a4c79bc9b25a283c165041d0bf665c9944ba5013e95432b9068058",
      "blockNumber": "0x603124",
      "gasUsed": "0x6754",
      "effectiveGasPrice": "0x556806e4",
      "from": "0x633adfb3430b96238c9fb7026195d1d5b0889ea6",
      "to": "0xfff9976782d46cc05630d1f6ebab18b2324d6b14",
      "contractAddress": null
    },
    {
      "status": "0x1",
      "cumulativeGasUsed": "0x6ec1b3",
      "logs": [
        {
          "address": "0x61d810c745e3cfa17659a64d68824137c7b9625e",
          "topics": [
            "0x541c041c2cce48e614b3de043c9280f06b6164c0a1741649e2de3c3d375f7974",
            "0xabdb9820d36431e092c155f7151c4c781f09fb4e1b7894fa918a0aadcac87e16",
            "0x000000000000000000000000ff80e212a63059b8d904104a7d58baa4fb00d30e"
          ],
          "data": "0xfffffffffffffffffffffffffffffffffffffffffffffffffffffffffffffda8000000000000000000000000000000000000000000000000000000000000025800000000000000000000000000000000000000000000000000000000000f4240",
          "blockHash": "0xa24ed76569a4c79bc9b25a283c165041d0bf665c9944ba5013e95432b9068058",
          "blockNumber": "0x603124",
          "transactionHash": "0xecf97f14050974e1355ae27783f41133c11528492a45e36de27427be7438b4e8",
          "transactionIndex": "0x3c",
          "logIndex": "0x54",
          "removed": false
        },
        {
          "address": "0x1c7d4b196cb0c7b01d743fbc6116a902379c7238",
          "topics": [
            "0xddf252ad1be2c89b69c2b068fc378daa952ba7f163c4a11628f55a4df523b3ef",
            "0x000000000000000000000000633adfb3430b96238c9fb7026195d1d5b0889ea6",
            "0x00000000000000000000000061d810c745e3cfa17659a64d68824137c7b9625e"
          ],
          "data": "0x000000000000000000000000000000000000000000000000000000000000ea2a",
          "blockHash": "0xa24ed76569a4c79bc9b25a283c165041d0bf665c9944ba5013e95432b9068058",
          "blockNumber": "0x603124",
          "transactionHash": "0xecf97f14050974e1355ae27783f41133c11528492a45e36de27427be7438b4e8",
          "transactionIndex": "0x3c",
          "logIndex": "0x55",
          "removed": false
        }
      ],
      "logsBloom": "0x00000000100000000000000000000000000000000000000000000000000200000000000000000000000000000000000000000000200000000000000000000001000000000000000000000008000000000001000000000040000000000000000010000000000000000000000000000000000000200000000000002010000000000000000000100000000000000000000000000004000000000000000100000000000000000000000000000004000000000000000000000000000000000000000000000002000000000000000000000100010000000000000000000000000000000000000000000080041010000000000000000000001000000200000000000000",
      "type": "0x2",
      "transactionHash": "0xecf97f14050974e1355ae27783f41133c11528492a45e36de27427be7438b4e8",
      "transactionIndex": "0x3c",
      "blockHash": "0xa24ed76569a4c79bc9b25a283c165041d0bf665c9944ba5013e95432b9068058",
      "blockNumber": "0x603124",
      "gasUsed": "0x272c7",
      "effectiveGasPrice": "0x556806e4",
      "from": "0x633adfb3430b96238c9fb7026195d1d5b0889ea6",
      "to": "0xff80e212a63059b8d904104a7d58baa4fb00d30e",
      "contractAddress": null
    }
  ],
  "libraries": [],
  "pending": [],
  "returns": {},
  "timestamp": 1720891344,
  "chain": 11155111,
  "commit": "d02f53f"
}