{
  "transactions": [
    {
      "hash": "0x8ab80562853233768758e84a6b188388a5d9393443d7a4b9c509c95bc4ad5a47",
      "transactionType": "CALL",
      "contractName": null,
      "contractAddress": "0x1c7d4b196cb0c7b01d743fbc6116a902379c7238",
      "function": "approve(address,uint256)",
      "arguments": [
        "0xff80e212A63059B8d904104a7d58baa4fB00D30E",
        "115792089237316195423570985008687907853269984665640564039457584007913129639935"
      ],
      "transaction": {
        "from": "0x633adfb3430b96238c9fb7026195d1d5b0889ea6",
        "to": "0x1c7d4b196cb0c7b01d743fbc6116a902379c7238",
        "gas": "0xccf0",
        "value": "0x0",
        "input": "0x095ea7b3000000000000000000000000ff80e212a63059b8d904104a7d58baa4fb00d30effffffffffffffffffffffffffffffffffffffffffffffffffffffffffffffff",
        "nonce": "0xdc",
        "chainId": "0xaa36a7"
      },
      "additionalContracts": [],
      "isFixedGasLimit": false
    },
    {
      "hash": "0x5e61045040dffa71d0054c1a7f9c4dfa54e4f79f141516e9082ed239c7ced73f",
      "transactionType": "CALL",
      "contractName": null,
      "contractAddress": "0xfff9976782d46cc05630d1f6ebab18b2324d6b14",
      "function": "approve(address,uint256)",
      "arguments": [
        "0xff80e212A63059B8d904104a7d58baa4fB00D30E",
        "115792089237316195423570985008687907853269984665640564039457584007913129639935"
      ],
      "transaction": {
        "from": "0x633adfb3430b96238c9fb7026195d1d5b0889ea6",
        "to": "0xfff9976782d46cc05630d1f6ebab18b2324d6b14",
        "gas": "0x8eb8",
        "value": "0x0",
        "input": "0x095ea7b3000000000000000000000000ff80e212a63059b8d904104a7d58baa4fb00d30effffffffffffffffffffffffffffffffffffffffffffffffffffffffffffffff",
        "nonce": "0xdd",
        "chainId": "0xaa36a7"
      },
      "additionalContracts": [],
      "isFixedGasLimit": false
    },
    {
      "hash": "0xcbcfe9840e63361358ccda509d5951c0fb6a4e33ec03afc46f2aaf2c4b404ab0",
      "transactionType": "CALL",
      "contractName": null,
      "contractAddress": "0xff80e212a63059b8d904104a7d58baa4fb00d30e",
      "function": "modifyLiquidity((address,address,uint24,int24,address),(int24,int24,int256,bytes32),bytes)",
      "arguments": [
        "(0x1c7D4B196Cb0C7B01d743Fbc6116a902379C7238, 0xfFf9976782d46CC05630D1f6eBAb18b2324d6B14, 500, 10, 0x0000000000000000000000000000000000000000)",
        "(-600, 600, 1000000, 0x0000000000000000000000000000000000000000000000000000000000000000)",
        "0x"
      ],
      "transaction": {
        "from": "0x633adfb3430b96238c9fb7026195d1d5b0889ea6",
        "to": "0xff80e212a63059b8d904104a7d58baa4fb00d30e",
        "gas": "0x3906d",
        "value": "0x0",
        "input": "0x5a6bcfda0000000000000000000000001c7d4b196cb0c7b01d743fbc6116a902379c7238000000000000000000000000fff9976782d46cc05630d1f6ebab18b2324d6b1400000000000000000000000000000000000000000000000000000000000001f4000000000000000000000000000000000000000000000000000000000000000a0000000000000000000000000000000000000000000000000000000000000000fffffffffffffffffffffffffffffffffffffffffffffffffffffffffffffda8000000000000000000000000000000000000000000000000000000000000025800000000000000000000000000000000000000000000000000000000000f4240000000000000000000000000000000000000000000000000000000000000000000000000000000000000000000000000000000000000000000000000000001400000000000000000000000000000000000000000000000000000000000000000",
        "nonce": "0xde",
        "chainId": "0xaa36a7"
      },
      "additionalContracts": [],
      "isFixedGasLimit": false
    }
  ],
  "receipts": [
    {
      "status": "0x1",
      "cumulativeGasUsed": "0x555bb1",
      "logs": [
        {
          "address": "0x1c7d4b196cb0c7b01d743fbc6116a902379c7238",
          "topics": [
            "0x8c5be1e5ebec7d5bd14f71427d1e84f3dd0314c0f7b2291e5b200ac8c7c3b925",
            "0x000000000000000000000000633adfb3430b96238c9fb7026195d1d5b0889ea6",
            "0x000000000000000000000000ff80e212a63059b8d904104a7d58baa4fb00d30e"
          ],
          "data": "0xffffffffffffffffffffffffffffffffffffffffffffffffffffffffffffffff",
          "blockHash": "0xb77d6721881fdfd530f6cf07d09a042ac50dbdaf29b651826b30e670eadc4e8d",
          "blockNumber": "0x602d7b",
          "transactionHash": "0x8ab80562853233768758e84a6b188388a5d9393443d7a4b9c509c95bc4ad5a47",
          "transactionIndex": "0x3c",
          "logIndex": "0x43",
          "removed": false
        }
      ],
      "logsBloom": "0x00000000000000000000000000000000000000000000000000000000000200000000000000000000000000000000000000000000200000000000000000200001000000000000000000000000000000000000000000000000000000000000000000000000000000000000000000000000000000200000000000002000000000000000000000100000000000000000000000000000000000000000000000000000020000000000000000000000000000000000000000000000000000000000000000000000000000000000000000000000010000000000000000000000000000000010000000000080000010000000000000000000000000000000000000000000",
      "type": "0x2",
      "transactionHash": "0x8ab80562853233768758e84a6b188388a5d9393443d7a4b9c509c95bc4ad5a47",
      "transactionIndex": "0x3c",
      "blockHash": "0xb77d6721881fdfd530f6cf07d09a042ac50dbdaf29b651826b30e670eadc4e8d",
      "blockNumber": "0x602d7b",
      "gasUsed": "0x8c21",
      "effectiveGasPrice": "0x7cf909c6",
      "from": "0x633adfb3430b96238c9fb7026195d1d5b0889ea6",
      "to": "0x1c7d4b196cb0c7b01d743fbc6116a902379c7238",
      "contractAddress": null
    },
    {
      "status": "0x1",
      "cumulativeGasUsed": "0x55c305",
      "logs": [
        {
          "address": "0xfff9976782d46cc05630d1f6ebab18b2324d6b14",
          "topics": [
            "0x8c5be1e5ebec7d5bd14f71427d1e84f3dd0314c0f7b2291e5b200ac8c7c3b925",
            "0x000000000000000000000000633adfb3430b96238c9fb7026195d1d5b0889ea6",
            "0x000000000000000000000000ff80e212a63059b8d904104a7d58baa4fb00d30e"
          ],
          "data": "0xffffffffffffffffffffffffffffffffffffffffffffffffffffffffffffffff",
          "blockHash": "0xb77d6721881fdfd530f6cf07d09a042ac50dbdaf29b651826b30e670eadc4e8d",
          "blockNumber": "0x602d7b",
          "transactionHash": "0x5e61045040dffa71d0054c1a7f9c4dfa54e4f79f141516e9082ed239c7ced73f",
          "transactionIndex": "0x3d",
          "logIndex": "0x44",
          "removed": false
        }
      ],
      "logsBloom": "0x00000000000000000000000000000000000000000000000000000000000000000000000000000000000000000000000000000000200000000000000000200001000000000000000000000000000000000000000000000000000000000000000000000000000000000000000000000000000000200000000000002000000000000040000000000000000000000000000000000000000000000000000000000000020020000000000000000000000000000000000000000000000000000000000000000000000000000002000000000000010000000000000000000000000000000010000000000080000000000000000000000000000000000000000000000000",
      "type": "0x2",
      "transactionHash": "0x5e61045040dffa71d0054c1a7f9c4dfa54e4f79f141516e9082ed239c7ced73f",
      "transactionIndex": "0x3d",
      "blockHash": "0xb77d6721881fdfd530f6cf07d09a042ac50dbdaf29b651826b30e670eadc4e8d",
      "blockNumber": "0x602d7b",
      "gasUsed": "0x6754",
      "effectiveGasPrice": "0x7cf909c6",
      "from": "0x633adfb3430b96238c9fb7026195d1d5b0889ea6",
      "to": "0xfff9976782d46cc05630d1f6ebab18b2324d6b14",
      "contractAddress": null
    },
    {
      "status": "0x1",
      "cumulativeGasUsed": "0x58579a",
      "logs": [
        {
          "address": "0x61d810c745e3cfa17659a64d68824137c7b9625e",
          "topics": [
            "0x541c041c2cce48e614b3de043c9280f06b6164c0a1741649e2de3c3d375f7974",
            "0xabdb9820d36431e092c155f7151c4c781f09fb4e1b7894fa918a0aadcac87e16",
            "0x000000000000000000000000ff80e212a63059b8d904104a7d58baa4fb00d30e"
          ],
          "data": "0xfffffffffffffffffffffffffffffffffffffffffffffffffffffffffffffda8000000000000000000000000000000000000000000000000000000000000025800000000000000000000000000000000000000000000000000000000000f4240",
          "blockHash": "0xb77d6721881fdfd530f6cf07d09a042ac50dbdaf29b651826b30e670eadc4e8d",
          "blockNumber": "0x602d7b",
          "transactionHash": "0xcbcfe9840e63361358ccda509d5951c0fb6a4e33ec03afc46f2aaf2c4b404ab0",
          "transactionIndex": "0x3e",
          "logIndex": "0x45",
          "removed": false
        },
        {
          "address": "0x1c7d4b196cb0c7b01d743fbc6116a902379c7238",
          "topics": [
            "0xddf252ad1be2c89b69c2b068fc378daa952ba7f163c4a11628f55a4df523b3ef",
            "0x000000000000000000000000633adfb3430b96238c9fb7026195d1d5b0889ea6",
            "0x00000000000000000000000061d810c745e3cfa17659a64d68824137c7b9625e"
          ],
          "data": "0x0000000000000000000000000000000000000000000000000000000000007372",
          "blockHash": "0xb77d6721881fdfd530f6cf07d09a042ac50dbdaf29b651826b30e670eadc4e8d",
          "blockNumber": "0x602d7b",
          "transactionHash": "0xcbcfe9840e63361358ccda509d5951c0fb6a4e33ec03afc46f2aaf2c4b404ab0",
          "transactionIndex": "0x3e",
          "logIndex": "0x46",
          "removed": false
        },
        {
          "address": "0xfff9976782d46cc05630d1f6ebab18b2324d6b14",
          "topics": [
            "0xddf252ad1be2c89b69c2b068fc378daa952ba7f163c4a11628f55a4df523b3ef",
            "0x000000000000000000000000633adfb3430b96238c9fb7026195d1d5b0889ea6",
            "0x00000000000000000000000061d810c745e3cfa17659a64d68824137c7b9625e"
          ],
          "data": "0x0000000000000000000000000000000000000000000000000000000000007372",
          "blockHash": "0xb77d6721881fdfd530f6cf07d09a042ac50dbdaf29b651826b30e670eadc4e8d",
          "blockNumber": "0x602d7b",
          "transactionHash": "0xcbcfe9840e63361358ccda509d5951c0fb6a4e33ec03afc46f2aaf2c4b404ab0",
          "transactionIndex": "0x3e",
          "logIndex": "0x47",
          "removed": false
        }
      ],
      "logsBloom": "0x00000000100000000000000000000000000000000000000000000000000200000000000000000000000000000000000000000000200000000000000000000001000000000000000000000008000000000001000000000040000000000000000010000000000000000000000000000000000000200000000000002010000000000040000000100000000000000000000000000004000000000000000100000000000020000000000000000004000000000000000000000000000000000000000000000002000000000002000000000100010000000000000000000000000000000000000000000080041010000000000000000000001000000200000000000000",
      "type": "0x2",
      "transactionHash": "0xcbcfe9840e63361358ccda509d5951c0fb6a4e33ec03afc46f2aaf2c4b404ab0",
      "transactionIndex": "0x3e",
      "blockHash": "0xb77d6721881fdfd530f6cf07d09a042ac50dbdaf29b651826b30e670eadc4e8d",
      "blockNumber": "0x602d7b",
      "gasUsed": "0x29495",
      "effectiveGasPrice": "0x7cf909c6",
      "from": "0x633adfb3430b96238c9fb7026195d1d5b0889ea6",
      "to": "0xff80e212a63059b8d904104a7d58baa4fb00d30e",
      "contractAddress": null
    }
  ],
  "libraries": [],
  "pending": [],
  "returns": {},
  "timestamp": 1720878170,
  "chain": 11155111,
  "commit": "2396f65"
}