{
  "transactions": [
    {
      "hash": "0x1fc61faae509ad129625d478671fa29684228b4ca74555cd684dd3d6ca82c3f0",
      "transactionType": "CALL",
      "contractName": null,
      "contractAddress": "0x1c7d4b196cb0c7b01d743fbc6116a902379c7238",
      "function": "approve(address,uint256)",
      "arguments": [
        "0xa46ff840Dbb261e347606b3733C91c5b3bdcA65d",
        "115792089237316195423570985008687907853269984665640564039457584007913129639935"
      ],
      "transaction": {
        "from": "0x633adfb3430b96238c9fb7026195d1d5b0889ea6",
        "to": "0x1c7d4b196cb0c7b01d743fbc6116a902379c7238",
        "gas": "0x13eb1",
        "value": "0x0",
        "input": "0x095ea7b3000000000000000000000000a46ff840dbb261e347606b3733c91c5b3bdca65dffffffffffffffffffffffffffffffffffffffffffffffffffffffffffffffff",
        "nonce": "0x121",
        "chainId": "0xaa36a7"
      },
      "additionalContracts": [],
      "isFixedGasLimit": false
    },
    {
      "hash": "0xefbcfcdb2696085f00050fbced32bf66b0cd8afb59f95454141fefd80c57e34c",
      "transactionType": "CALL",
      "contractName": null,
      "contractAddress": "0xfff9976782d46cc05630d1f6ebab18b2324d6b14",
      "function": "approve(address,uint256)",
      "arguments": [
        "0xa46ff840Dbb261e347606b3733C91c5b3bdcA65d",
        "115792089237316195423570985008687907853269984665640564039457584007913129639935"
      ],
      "transaction": {
        "from": "0x633adfb3430b96238c9fb7026195d1d5b0889ea6",
        "to": "0xfff9976782d46cc05630d1f6ebab18b2324d6b14",
        "gas": "0xfa27",
        "value": "0x0",
        "input": "0x095ea7b3000000000000000000000000a46ff840dbb261e347606b3733c91c5b3bdca65dffffffffffffffffffffffffffffffffffffffffffffffffffffffffffffffff",
        "nonce": "0x122",
        "chainId": "0xaa36a7"
      },
      "additionalContracts": [],
      "isFixedGasLimit": false
    },
    {
      "hash": "0x959e4aabddbf757533331bdbb92c7c1bb64fa6ea1a06a2841aadbe760b619aaf",
      "transactionType": "CALL",
      "contractName": null,
      "contractAddress": "0xa46ff840dbb261e347606b3733c91c5b3bdca65d",
      "function": "modifyLiquidity((address,address,uint24,int24,address),(int24,int24,int256,bytes32),bytes)",
      "arguments": [
        "(0x1c7D4B196Cb0C7B01d743Fbc6116a902379C7238, 0xfFf9976782d46CC05630D1f6eBAb18b2324d6B14, 500, 10, 0x0000000000000000000000000000000000000000)",
        "(-200, 200, 1000000000, 0x0000000000000000000000000000000000000000000000000000000000000000)",
        "0x"
      ],
      "transaction": {
        "from": "0x633adfb3430b96238c9fb7026195d1d5b0889ea6",
        "to": "0xa46ff840dbb261e347606b3733c91c5b3bdca65d",
        "gas": "0x6afb4",
        "value": "0x0",
        "input": "0x5a6bcfda0000000000000000000000001c7d4b196cb0c7b01d743fbc6116a902379c7238000000000000000000000000fff9976782d46cc05630d1f6ebab18b2324d6b1400000000000000000000000000000000000000000000000000000000000001f4000000000000000000000000000000000000000000000000000000000000000a0000000000000000000000000000000000000000000000000000000000000000ffffffffffffffffffffffffffffffffffffffffffffffffffffffffffffff3800000000000000000000000000000000000000000000000000000000000000c8000000000000000000000000000000000000000000000000000000003b9aca00000000000000000000000000000000000000000000000000000000000000000000000000000000000000000000000000000000000000000000000000000001400000000000000000000000000000000000000000000000000000000000000000",
        "nonce": "0x123",
        "chainId": "0xaa36a7"
      },
      "additionalContracts": [],
      "isFixedGasLimit": false
    }
  ],
  "receipts": [
    {
      "status": "0x1",
      "cumulativeGasUsed": "0x177ba41",
      "logs": [
        {
          "address": "0x1c7d4b196cb0c7b01d743fbc6116a902379c7238",
          "topics": [
            "0x8c5be1e5ebec7d5bd14f71427d1e84f3dd0314c0f7b2291e5b200ac8c7c3b925",
            "0x000000000000000000000000633adfb3430b96238c9fb7026195d1d5b0889ea6",
            "0x000000000000000000000000a46ff840dbb261e347606b3733c91c5b3bdca65d"
          ],
          "data": "0xffffffffffffffffffffffffffffffffffffffffffffffffffffffffffffffff",
          "blockHash": "0xcba5da92582ea3a9a2c0f663c20c264ae630413ff172a5bc902d3b2125e3eb94",
          "blockNumber": "0x6032ad",
          "transactionHash": "0x1fc61faae509ad129625d478671fa29684228b4ca74555cd684dd3d6ca82c3f0",
          "transactionIndex": "0x7b",
          "logIndex": "0xd2",
          "removed": false
        }
      ],
      "logsBloom": "0x00000000000000000000000000000000000000000000000000000000000200000000000000000000000000000000000000000000000000000000000000200000000000000000000000000000000000000000000000000000000000000000000000000000000000000000000000000000000000200000000000000000000000000000000000100080000000000000000000000000000000000000000000000000020000000000000000080000000000000000000000000000000000000000000000000000000000000000000000080000010000000000000000000000000000000010000000000080000010000000000000000000000000000000000000000000",
      "type": "0x2",
      "transactionHash": "0x1fc61faae509ad129625d478671fa29684228b4ca74555cd684dd3d6ca82c3f0",
      "transactionIndex": "0x7b",
      "blockHash": "0xcba5da92582ea3a9a2c0f663c20c264ae630413ff172a5bc902d3b2125e3eb94",
      "blockNumber": "0x6032ad",
      "gasUsed": "0xd9e9",
      "effectiveGasPrice": "0x37930bf",
      "from": "0x633adfb3430b96238c9fb7026195d1d5b0889ea6",
      "to": "0x1c7d4b196cb0c7b01d743fbc6116a902379c7238",
      "contractAddress": null
    },
    {
      "status": "0x1",
      "cumulativeGasUsed": "0x1786f5d",
      "logs": [
        {
          "address": "0xfff9976782d46cc05630d1f6ebab18b2324d6b14",
          "topics": [
            "0x8c5be1e5ebec7d5bd14f71427d1e84f3dd0314c0f7b2291e5b200ac8c7c3b925",
            "0x000000000000000000000000633adfb3430b96238c9fb7026195d1d5b0889ea6",
            "0x000000000000000000000000a46ff840dbb261e347606b3733c91c5b3bdca65d"
          ],
          "data": "0xffffffffffffffffffffffffffffffffffffffffffffffffffffffffffffffff",
          "blockHash": "0xcba5da92582ea3a9a2c0f663c20c264ae630413ff172a5bc902d3b2125e3eb94",
          "blockNumber": "0x6032ad",
          "transactionHash": "0xefbcfcdb2696085f00050fbced32bf66b0cd8afb59f95454141fefd80c57e34c",
          "transactionIndex": "0x7c",
          "logIndex": "0xd3",
          "removed": false
        }
      ],
      "logsBloom": "0x00000000000000000000000000000000000000000000000000000000000000000000000000000000000000000000000000000000000000000000000000200000000000000000000000000000000000000000000000000000000000000000000000000000000000000000000000000000000000200000000000000000000000000040000000000080000000000000000000000000000000000000000000000000020020000000000000080000000000000000000000000000000000000000000000000000000000000002000000080000010000000000000000000000000000000010000000000080000000000000000000000000000000000000000000000000",
      "type": "0x2",
      "transactionHash": "0xefbcfcdb2696085f00050fbced32bf66b0cd8afb59f95454141fefd80c57e34c",
      "transactionIndex": "0x7c",
      "blockHash": "0xcba5da92582ea3a9a2c0f663c20c264ae630413ff172a5bc902d3b2125e3eb94",
      "blockNumber": "0x6032ad",
      "gasUsed": "0xb51c",
      "effectiveGasPrice": "0x37930bf",
      "from": "0x633adfb3430b96238c9fb7026195d1d5b0889ea6",
      "to": "0xfff9976782d46cc05630d1f6ebab18b2324d6b14",
      "contractAddress": null
    },
    {
      "status": "0x1",
      "cumulativeGasUsed": "0x17d469c",
      "logs": [
        {
          "address": "0x9c430dbdf1936aa36154e2046bb91c065aa0107b",
          "topics": [
            "0x541c041c2cce48e614b3de043c9280f06b6164c0a1741649e2de3c3d375f7974",
            "0xabdb9820d36431e092c155f7151c4c781f09fb4e1b7894fa918a0aadcac87e16",
            "0x000000000000000000000000a46ff840dbb261e347606b3733c91c5b3bdca65d"
          ],
          "data": "0xffffffffffffffffffffffffffffffffffffffffffffffffffffffffffffff3800000000000000000000000000000000000000000000000000000000000000c8000000000000000000000000000000000000000000000000000000003b9aca00",
          "blockHash": "0xcba5da92582ea3a9a2c0f663c20c264ae630413ff172a5bc902d3b2125e3eb94",
          "blockNumber": "0x6032ad",
          "transactionHash": "0x959e4aabddbf757533331bdbb92c7c1bb64fa6ea1a06a2841aadbe760b619aaf",
          "transactionIndex": "0x7d",
          "logIndex": "0xd4",
          "removed": false
        },
        {
          "address": "0x1c7d4b196cb0c7b01d743fbc6116a902379c7238",
          "topics": [
            "0xddf252ad1be2c89b69c2b068fc378daa952ba7f163c4a11628f55a4df523b3ef",
            "0x000000000000000000000000633adfb3430b96238c9fb7026195d1d5b0889ea6",
            "0x0000000000000000000000009c430dbdf1936aa36154e2046bb91c065aa0107b"
          ],
          "data": "0x000000000000000000000000000000000000000000000000000000000097d1e8",
          "blockHash": "0xcba5da92582ea3a9a2c0f663c20c264ae630413ff172a5bc902d3b2125e3eb94",
          "blockNumber": "0x6032ad",
          "transactionHash": "0x959e4aabddbf757533331bdbb92c7c1bb64fa6ea1a06a2841aadbe760b619aaf",
          "transactionIndex": "0x7d",
          "logIndex": "0xd5",
          "removed": false
        },
        {
          "address": "0xfff9976782d46cc05630d1f6ebab18b2324d6b14",
          "topics": [
            "0xddf252ad1be2c89b69c2b068fc378daa952ba7f163c4a11628f55a4df523b3ef",
            "0x000000000000000000000000633adfb3430b96238c9fb7026195d1d5b0889ea6",
            "0x0000000000000000000000009c430dbdf1936aa36154e2046bb91c065aa0107b"
          ],
          "data": "0x000000000000000000000000000000000000000000000000000000000097d1e8",
          "blockHash": "0xcba5da92582ea3a9a2c0f663c20c264ae630413ff172a5bc902d3b2125e3eb94",
          "blockNumber": "0x6032ad",
          "transactionHash": "0x959e4aabddbf757533331bdbb92c7c1bb64fa6ea1a06a2841aadbe760b619aaf",
          "transactionIndex": "0x7d",
          "logIndex": "0xd6",
          "removed": false
        }
      ],
      "logsBloom": "0x00000000100000000000000000000000000000001000000000000000000200000200000000000000000001000000000000000000000000000000000000000000000000000000000000000008000000000000000004000000000000000000000010000000000000000000000000000000000000200000000000000010000000000040000000100080000040000000000000000000000000000000000100000000000028000000000000080000000000000000000000000000000000000000000000000002000000000002000000080100010000000000000000000000000000000000000000000080040010000000000000000000000000000200000000000000",
      "type": "0x2",
      "transactionHash": "0x959e4aabddbf757533331bdbb92c7c1bb64fa6ea1a06a2841aadbe760b619aaf",
      "transactionIndex": "0x7d",
      "blockHash": "0xcba5da92582ea3a9a2c0f663c20c264ae630413ff172a5bc902d3b2125e3eb94",
      "blockNumber": "0x6032ad",
      "gasUsed": "0x4d73f",
      "effectiveGasPrice": "0x37930bf",
      "from": "0x633adfb3430b96238c9fb7026195d1d5b0889ea6",
      "to": "0xa46ff840dbb261e347606b3733c91c5b3bdca65d",
      "contractAddress": null
    }
  ],
  "libraries": [],
  "pending": [],
  "returns": {},
  "timestamp": 1720896952,
  "chain": 11155111,
  "commit": "d02f53f"
}