{
  "transactions": [
    {
      "hash": "0xd8a0aeb7dbe5e36778fc3026be3f7da9b763b7d8febe705df5e1d8367643f5b1",
      "transactionType": "CALL",
      "contractName": null,
      "contractAddress": "0x1c7d4b196cb0c7b01d743fbc6116a902379c7238",
      "function": "approve(address,uint256)",
      "arguments": [
        "0x8994D977ffd78f69f39EDC51d1C130F6371f62aB",
        "115792089237316195423570985008687907853269984665640564039457584007913129639935"
      ],
      "transaction": {
        "from": "0x633adfb3430b96238c9fb7026195d1d5b0889ea6",
        "to": "0x1c7d4b196cb0c7b01d743fbc6116a902379c7238",
        "gas": "0xd0b8",
        "value": "0x0",
        "input": "0x095ea7b30000000000000000000000008994d977ffd78f69f39edc51d1c130f6371f62abffffffffffffffffffffffffffffffffffffffffffffffffffffffffffffffff",
        "nonce": "0x14a",
        "chainId": "0xaa36a7"
      },
      "additionalContracts": [],
      "isFixedGasLimit": false
    },
    {
      "hash": "0x9231486b60b17fcb6d6bf8dd1c79a831452a5e46cd368a2dc04855ee595ddec3",
      "transactionType": "CALL",
      "contractName": null,
      "contractAddress": "0xfff9976782d46cc05630d1f6ebab18b2324d6b14",
      "function": "approve(address,uint256)",
      "arguments": [
        "0x8994D977ffd78f69f39EDC51d1C130F6371f62aB",
        "115792089237316195423570985008687907853269984665640564039457584007913129639935"
      ],
      "transaction": {
        "from": "0x633adfb3430b96238c9fb7026195d1d5b0889ea6",
        "to": "0xfff9976782d46cc05630d1f6ebab18b2324d6b14",
        "gas": "0x8ec9",
        "value": "0x0",
        "input": "0x095ea7b30000000000000000000000008994d977ffd78f69f39edc51d1c130f6371f62abffffffffffffffffffffffffffffffffffffffffffffffffffffffffffffffff",
        "nonce": "0x14b",
        "chainId": "0xaa36a7"
      },
      "additionalContracts": [],
      "isFixedGasLimit": false
    },
    {
      "hash": "0xe01e853f5b188008520671a1574ea5ad046c1c373efa76c21d5888f842b56f40",
      "transactionType": "CALL",
      "contractName": null,
      "contractAddress": "0x1c7d4b196cb0c7b01d743fbc6116a902379c7238",
      "function": "approve(address,uint256)",
      "arguments": [
        "0x9C430DBdf1936AA36154e2046bb91C065Aa0107B",
        "115792089237316195423570985008687907853269984665640564039457584007913129639935"
      ],
      "transaction": {
        "from": "0x633adfb3430b96238c9fb7026195d1d5b0889ea6",
        "to": "0x1c7d4b196cb0c7b01d743fbc6116a902379c7238",
        "gas": "0xc19d",
        "value": "0x0",
        "input": "0x095ea7b30000000000000000000000009c430dbdf1936aa36154e2046bb91c065aa0107bffffffffffffffffffffffffffffffffffffffffffffffffffffffffffffffff",
        "nonce": "0x14c",
        "chainId": "0xaa36a7"
      },
      "additionalContracts": [],
      "isFixedGasLimit": false
    },
    {
      "hash": "0xa8c181d8dde8a42926c019f79683ca42932622d707543d1395b5175e7c497ec2",
      "transactionType": "CALL",
      "contractName": null,
      "contractAddress": "0xfff9976782d46cc05630d1f6ebab18b2324d6b14",
      "function": "approve(address,uint256)",
      "arguments": [
        "0x9C430DBdf1936AA36154e2046bb91C065Aa0107B",
        "115792089237316195423570985008687907853269984665640564039457584007913129639935"
      ],
      "transaction": {
        "from": "0x633adfb3430b96238c9fb7026195d1d5b0889ea6",
        "to": "0xfff9976782d46cc05630d1f6ebab18b2324d6b14",
        "gas": "0x8ec9",
        "value": "0x0",
        "input": "0x095ea7b30000000000000000000000009c430dbdf1936aa36154e2046bb91c065aa0107bffffffffffffffffffffffffffffffffffffffffffffffffffffffffffffffff",
        "nonce": "0x14d",
        "chainId": "0xaa36a7"
      },
      "additionalContracts": [],
      "isFixedGasLimit": false
    },
    {
      "hash": "0x3b85e985bab274bda0f443dc317c7bfcc3b8d6b370095d22698492b337da1fc2",
      "transactionType": "CALL",
      "contractName": null,
      "contractAddress": "0x8994d977ffd78f69f39edc51d1c130f6371f62ab",
      "function": "swap((address,address,uint24,int24,address),(bool,int256,uint160),(bool,bool),bytes)",
      "arguments": [
        "(0x1c7D4B196Cb0C7B01d743Fbc6116a902379C7238, 0xfFf9976782d46CC05630D1f6eBAb18b2324d6B14, 500, 10, 0x0000000000000000000000000000000000000000)",
        "(false, 1000000, 1461446703485210103287273052203988822378723970341)",
        "(false, false)",
        "0x"
      ],
      "transaction": {
        "from": "0x633adfb3430b96238c9fb7026195d1d5b0889ea6",
        "to": "0x8994d977ffd78f69f39edc51d1c130f6371f62ab",
        "gas": "0x3546c",
        "value": "0x0",
        "input": "0x2229d0b40000000000000000000000001c7d4b196cb0c7b01d743fbc6116a902379c7238000000000000000000000000fff9976782d46cc05630d1f6ebab18b2324d6b1400000000000000000000000000000000000000000000000000000000000001f4000000000000000000000000000000000000000000000000000000000000000a0000000000000000000000000000000000000000000000000000000000000000000000000000000000000000000000000000000000000000000000000000000000000000000000000000000000000000000000000000000000000000000f4240000000000000000000000000fffd8963efd1fc6a506488495d951d5263988d250000000000000000000000000000000000000000000000000000000000000000000000000000000000000000000000000000000000000000000000000000000000000000000000000000000000000000000000000000000000000000000001600000000000000000000000000000000000000000000000000000000000000000",
        "nonce": "0x14e",
        "chainId": "0xaa36a7"
      },
      "additionalContracts": [],
      "isFixedGasLimit": false
    }
  ],
  "receipts": [
    {
      "status": "0x1",
      "cumulativeGasUsed": "0xec3a18",
      "logs": [
        {
          "address": "0x1c7d4b196cb0c7b01d743fbc6116a902379c7238",
          "topics": [
            "0x8c5be1e5ebec7d5bd14f71427d1e84f3dd0314c0f7b2291e5b200ac8c7c3b925",
            "0x000000000000000000000000633adfb3430b96238c9fb7026195d1d5b0889ea6",
            "0x0000000000000000000000008994d977ffd78f69f39edc51d1c130f6371f62ab"
          ],
          "data": "0xffffffffffffffffffffffffffffffffffffffffffffffffffffffffffffffff",
          "blockHash": "0x77a59dd7679913e42fc09799b99316cf199ab2ea56cd4d9e70cacc7d79ec73bf",
          "blockNumber": "0x603835",
          "transactionHash": "0xd8a0aeb7dbe5e36778fc3026be3f7da9b763b7d8febe705df5e1d8367643f5b1",
          "transactionIndex": "0x50",
          "logIndex": "0x74",
          "removed": false
        }
      ],
      "logsBloom": "0x00000000000000000000000000000000000000000000002000000000000200000000000000000000000000000000000000000000000000000000000000200000000000000000000000000000000000000000000000000000000000000000000000000000000000000000000000000000000000200000000000000000000000000000000000100000000000000000000000000000000000000000000000000000020000000000000000000000000000000000000800000000000000000000000000000000000000000000000000000000010000000000000000000000000000000010000000000080000010000000000000000000000000040000000000000000",
      "type": "0x2",
      "transactionHash": "0xd8a0aeb7dbe5e36778fc3026be3f7da9b763b7d8febe705df5e1d8367643f5b1",
      "transactionIndex": "0x50",
      "blockHash": "0x77a59dd7679913e42fc09799b99316cf199ab2ea56cd4d9e70cacc7d79ec73bf",
      "blockNumber": "0x603835",
      "gasUsed": "0x971d",
      "effectiveGasPrice": "0x2ee1566d",
      "from": "0x633adfb3430b96238c9fb7026195d1d5b0889ea6",
      "to": "0x1c7d4b196cb0c7b01d743fbc6116a902379c7238",
      "contractAddress": null
    },
    {
      "status": "0x1",
      "cumulativeGasUsed": "0xeca178",
      "logs": [
        {
          "address": "0xfff9976782d46cc05630d1f6ebab18b2324d6b14",
          "topics": [
            "0x8c5be1e5ebec7d5bd14f71427d1e84f3dd0314c0f7b2291e5b200ac8c7c3b925",
            "0x000000000000000000000000633adfb3430b96238c9fb7026195d1d5b0889ea6",
            "0x0000000000000000000000008994d977ffd78f69f39edc51d1c130f6371f62ab"
          ],
          "data": "0xffffffffffffffffffffffffffffffffffffffffffffffffffffffffffffffff",
          "blockHash": "0x77a59dd7679913e42fc09799b99316cf199ab2ea56cd4d9e70cacc7d79ec73bf",
          "blockNumber": "0x603835",
          "transactionHash": "0x9231486b60b17fcb6d6bf8dd1c79a831452a5e46cd368a2dc04855ee595ddec3",
          "transactionIndex": "0x51",
          "logIndex": "0x75",
          "removed": false
        }
      ],
      "logsBloom": "0x00000000000000000000000000000000000000000000002000000000000000000000000000000000000000000000000000000000000000000000000000200000000000000000000000000000000000000000000000000000000000000000000000000000000000000000000000000000000000200000000000000000000000000040000000000000000000000000000000000000000000000000000000000000020020000000000000000000000000000000000800000000000000000000000000000000000000000002000000000000010000000000000000000000000000000010000000000080000000000000000000000000000000040000000000000000",
      "type": "0x2",
      "transactionHash": "0x9231486b60b17fcb6d6bf8dd1c79a831452a5e46cd368a2dc04855ee595ddec3",
      "transactionIndex": "0x51",
      "blockHash": "0x77a59dd7679913e42fc09799b99316cf199ab2ea56cd4d9e70cacc7d79ec73bf",
      "blockNumber": "0x603835",
      "gasUsed": "0x6760",
      "effectiveGasPrice": "0x2ee1566d",
      "from": "0x633adfb3430b96238c9fb7026195d1d5b0889ea6",
      "to": "0xfff9976782d46cc05630d1f6ebab18b2324d6b14",
      "contractAddress": null
    },
    {
      "status": "0x1",
      "cumulativeGasUsed": "0xed2da5",
      "logs": [
        {
          "address": "0x1c7d4b196cb0c7b01d743fbc6116a902379c7238",
          "topics": [
            "0x8c5be1e5ebec7d5bd14f71427d1e84f3dd0314c0f7b2291e5b200ac8c7c3b925",
            "0x000000000000000000000000633adfb3430b96238c9fb7026195d1d5b0889ea6",
            "0x0000000000000000000000009c430dbdf1936aa36154e2046bb91c065aa0107b"
          ],
          "data": "0xffffffffffffffffffffffffffffffffffffffffffffffffffffffffffffffff",
          "blockHash": "0x77a59dd7679913e42fc09799b99316cf199ab2ea56cd4d9e70cacc7d79ec73bf",
          "blockNumber": "0x603835",
          "transactionHash": "0xe01e853f5b188008520671a1574ea5ad046c1c373efa76c21d5888f842b56f40",
          "transactionIndex": "0x52",
          "logIndex": "0x76",
          "removed": false
        }
      ],
      "logsBloom": "0x00000000000000000000000000000000000000000000000000000000000200000000000000000000000001000000000000000000000000000000000000200000000000000000000000000000000000000000000004000000000000000000000000000000000000000000000000000000000000200000000000000000000000000000000000100000000000000000000000000000000000000000000000000000020008000000000000000000000000000000000000000000000000000000000000000000000000000000000000000000010000000000000000000000000000000010000000000080000010000000000000000000000000000000000000000000",
      "type": "0x2",
      "transactionHash": "0xe01e853f5b188008520671a1574ea5ad046c1c373efa76c21d5888f842b56f40",
      "transactionIndex": "0x52",
      "blockHash": "0x77a59dd7679913e42fc09799b99316cf199ab2ea56cd4d9e70cacc7d79ec73bf",
      "blockNumber": "0x603835",
      "gasUsed": "0x8c2d",
      "effectiveGasPrice": "0x2ee1566d",
      "from": "0x633adfb3430b96238c9fb7026195d1d5b0889ea6",
      "to": "0x1c7d4b196cb0c7b01d743fbc6116a902379c7238",
      "contractAddress": null
    },
    {
      "status": "0x1",
      "cumulativeGasUsed": "0xed9505",
      "logs": [
        {
          "address": "0xfff9976782d46cc05630d1f6ebab18b2324d6b14",
          "topics": [
            "0x8c5be1e5ebec7d5bd14f71427d1e84f3dd0314c0f7b2291e5b200ac8c7c3b925",
            "0x000000000000000000000000633adfb3430b96238c9fb7026195d1d5b0889ea6",
            "0x0000000000000000000000009c430dbdf1936aa36154e2046bb91c065aa0107b"
          ],
          "data": "0xffffffffffffffffffffffffffffffffffffffffffffffffffffffffffffffff",
          "blockHash": "0x77a59dd7679913e42fc09799b99316cf199ab2ea56cd4d9e70cacc7d79ec73bf",
          "blockNumber": "0x603835",
          "transactionHash": "0xa8c181d8dde8a42926c019f79683ca42932622d707543d1395b5175e7c497ec2",
          "transactionIndex": "0x53",
          "logIndex": "0x77",
          "removed": false
        }
      ],
      "logsBloom": "0x00000000000000000000000000000000000000000000000000000000000000000000000000000000000001000000000000000000000000000000000000200000000000000000000000000000000000000000000004000000000000000000000000000000000000000000000000000000000000200000000000000000000000000040000000000000000000000000000000000000000000000000000000000000020028000000000000000000000000000000000000000000000000000000000000000000000000000002000000000000010000000000000000000000000000000010000000000080000000000000000000000000000000000000000000000000",
      "type": "0x2",
      "transactionHash": "0xa8c181d8dde8a42926c019f79683ca42932622d707543d1395b5175e7c497ec2",
      "transactionIndex": "0x53",
      "blockHash": "0x77a59dd7679913e42fc09799b99316cf199ab2ea56cd4d9e70cacc7d79ec73bf",
      "blockNumber": "0x603835",
      "gasUsed": "0x6760",
      "effectiveGasPrice": "0x2ee1566d",
      "from": "0x633adfb3430b96238c9fb7026195d1d5b0889ea6",
      "to": "0xfff9976782d46cc05630d1f6ebab18b2324d6b14",
      "contractAddress": null
    },
    {
      "status": "0x1",
      "cumulativeGasUsed": "0xeffe29",
      "logs": [
        {
          "address": "0x9c430dbdf1936aa36154e2046bb91c065aa0107b",
          "topics": [
            "0x40e9cecb9f5f1f1c5b9c97dec2917b7ee92e57ba5563708daca94dd84ad7112f",
            "0xabdb9820d36431e092c155f7151c4c781f09fb4e1b7894fa918a0aadcac87e16"
          ],
          "data": "0x0000000000000000000000008994d977ffd78f69f39edc51d1c130f6371f62ab00000000000000000000000000000000000000000000000000000000000f4240fffffffffffffffffffffffffffffffffffffffffffffffffffffffffff0bfaf000000000000000000000000000000000000000100000867bc9b16d8e075fab5000000000000000000000000000000000000000000000000000000003b9aca00000000000000000000000000000000000000000000000000000000000000000000000000000000000000000000000000000000000000000000000000000001f4",
          "blockHash": "0x77a59dd7679913e42fc09799b99316cf199ab2ea56cd4d9e70cacc7d79ec73bf",
          "blockNumber": "0x603835",
          "transactionHash": "0x3b85e985bab274bda0f443dc317c7bfcc3b8d6b370095d22698492b337da1fc2",
          "transactionIndex": "0x54",
          "logIndex": "0x78",
          "removed": false
        },
        {
          "address": "0xfff9976782d46cc05630d1f6ebab18b2324d6b14",
          "topics": [
            "0xddf252ad1be2c89b69c2b068fc378daa952ba7f163c4a11628f55a4df523b3ef",
            "0x000000000000000000000000633adfb3430b96238c9fb7026195d1d5b0889ea6",
            "0x0000000000000000000000009c430dbdf1936aa36154e2046bb91c065aa0107b"
          ],
          "data": "0x00000000000000000000000000000000000000000000000000000000000f4051",
          "blockHash": "0x77a59dd7679913e42fc09799b99316cf199ab2ea56cd4d9e70cacc7d79ec73bf",
          "blockNumber": "0x603835",
          "transactionHash": "0x3b85e985bab274bda0f443dc317c7bfcc3b8d6b370095d22698492b337da1fc2",
          "transactionIndex": "0x54",
          "logIndex": "0x79",
          "removed": false
        },
        {
          "address": "0x1c7d4b196cb0c7b01d743fbc6116a902379c7238",
          "topics": [
            "0xddf252ad1be2c89b69c2b068fc378daa952ba7f163c4a11628f55a4df523b3ef",
            "0x0000000000000000000000009c430dbdf1936aa36154e2046bb91c065aa0107b",
            "0x000000000000000000000000633adfb3430b96238c9fb7026195d1d5b0889ea6"
          ],
          "data": "0x00000000000000000000000000000000000000000000000000000000000f4240",
          "blockHash": "0x77a59dd7679913e42fc09799b99316cf199ab2ea56cd4d9e70cacc7d79ec73bf",
          "blockNumber": "0x603835",
          "transactionHash": "0x3b85e985bab274bda0f443dc317c7bfcc3b8d6b370095d22698492b337da1fc2",
          "transactionIndex": "0x54",
          "logIndex": "0x7a",
          "removed": false
        }
      ],
      "logsBloom": "0x00000000000000000000000000000000000000001000000000000000000200000200000000000000000001000000000000000000040000000000000000000000000000000000000000000008000000000000000004000020000000000000000000000000000000000000000000000000000000200000000000000010000000000040000000100000000040000000000000000000000000000000000100000000000028000000000000000000000000000000000000000000000000000000000000000002000000000002000000000100010000000000000000000000000000000000000000000080004010000000000000000000000000000200000000000000",
      "type": "0x2",
      "transactionHash": "0x3b85e985bab274bda0f443dc317c7bfcc3b8d6b370095d22698492b337da1fc2",
      "transactionIndex": "0x54",
      "blockHash": "0x77a59dd7679913e42fc09799b99316cf199ab2ea56cd4d9e70cacc7d79ec73bf",
      "blockNumber": "0x603835",
      "gasUsed": "0x26924",
      "effectiveGasPrice": "0x2ee1566d",
      "from": "0x633adfb3430b96238c9fb7026195d1d5b0889ea6",
      "to": "0x8994d977ffd78f69f39edc51d1c130f6371f62ab",
      "contractAddress": null
    }
  ],
  "libraries": [],
  "pending": [],
  "returns": {},
  "timestamp": 1720917218,
  "chain": 11155111,
  "commit": "371f960"
}