{
  "transactions": [
    {
      "hash": "0xb6f931e4a1317620314b465622f09fb5ea06241174bbcfa4d493c0ca25d7a2cc",
      "transactionType": "CALL",
      "contractName": null,
      "contractAddress": "0x1c7d4b196cb0c7b01d743fbc6116a902379c7238",
      "function": "approve(address,uint256)",
      "arguments": [
        "0x6f41d083B4C66aaDB6b4422B8b1De65d6177324A",
        "115792089237316195423570985008687907853269984665640564039457584007913129639935"
      ],
      "transaction": {
        "from": "0x633adfb3430b96238c9fb7026195d1d5b0889ea6",
        "to": "0x1c7d4b196cb0c7b01d743fbc6116a902379c7238",
        "gas": "0xd0b8",
        "value": "0x0",
        "input": "0x095ea7b30000000000000000000000006f41d083b4c66aadb6b4422b8b1de65d6177324affffffffffffffffffffffffffffffffffffffffffffffffffffffffffffffff",
        "nonce": "0xf7",
        "chainId": "0xaa36a7"
      },
      "additionalContracts": [],
      "isFixedGasLimit": false
    },
    {
      "hash": "0x42df1052654b966f0ceaceb3f1d5bc2d73b4c947e38bdb418f80db4b5b308b7c",
      "transactionType": "CALL",
      "contractName": null,
      "contractAddress": "0xfff9976782d46cc05630d1f6ebab18b2324d6b14",
      "function": "approve(address,uint256)",
      "arguments": [
        "0x6f41d083B4C66aaDB6b4422B8b1De65d6177324A",
        "115792089237316195423570985008687907853269984665640564039457584007913129639935"
      ],
      "transaction": {
        "from": "0x633adfb3430b96238c9fb7026195d1d5b0889ea6",
        "to": "0xfff9976782d46cc05630d1f6ebab18b2324d6b14",
        "gas": "0x8ec9",
        "value": "0x0",
        "input": "0x095ea7b30000000000000000000000006f41d083b4c66aadb6b4422b8b1de65d6177324affffffffffffffffffffffffffffffffffffffffffffffffffffffffffffffff",
        "nonce": "0xf8",
        "chainId": "0xaa36a7"
      },
      "additionalContracts": [],
      "isFixedGasLimit": false
    },
    {
      "hash": "0x2cbd82a2b24af0539ec00d84126ca303236e06dd2ec3fcf0d4312fb9ce19729d",
      "transactionType": "CALL",
      "contractName": null,
      "contractAddress": "0x1c7d4b196cb0c7b01d743fbc6116a902379c7238",
      "function": "approve(address,uint256)",
      "arguments": [
        "0x61d810C745E3cFa17659A64d68824137c7b9625E",
        "115792089237316195423570985008687907853269984665640564039457584007913129639935"
      ],
      "transaction": {
        "from": "0x633adfb3430b96238c9fb7026195d1d5b0889ea6",
        "to": "0x1c7d4b196cb0c7b01d743fbc6116a902379c7238",
        "gas": "0xc19d",
        "value": "0x0",
        "input": "0x095ea7b300000000000000000000000061d810c745e3cfa17659a64d68824137c7b9625effffffffffffffffffffffffffffffffffffffffffffffffffffffffffffffff",
        "nonce": "0xf9",
        "chainId": "0xaa36a7"
      },
      "additionalContracts": [],
      "isFixedGasLimit": false
    },
    {
      "hash": "0xaf99ad77c5833dd0378326ccb05648fa85a763adec9d0ec3bcfcd4dc480ff105",
      "transactionType": "CALL",
      "contractName": null,
      "contractAddress": "0xfff9976782d46cc05630d1f6ebab18b2324d6b14",
      "function": "approve(address,uint256)",
      "arguments": [
        "0x61d810C745E3cFa17659A64d68824137c7b9625E",
        "115792089237316195423570985008687907853269984665640564039457584007913129639935"
      ],
      "transaction": {
        "from": "0x633adfb3430b96238c9fb7026195d1d5b0889ea6",
        "to": "0xfff9976782d46cc05630d1f6ebab18b2324d6b14",
        "gas": "0x8ec9",
        "value": "0x0",
        "input": "0x095ea7b300000000000000000000000061d810c745e3cfa17659a64d68824137c7b9625effffffffffffffffffffffffffffffffffffffffffffffffffffffffffffffff",
        "nonce": "0xfa",
        "chainId": "0xaa36a7"
      },
      "additionalContracts": [],
      "isFixedGasLimit": false
    },
    {
      "hash": "0x4ab832f0eac00f04f0f795d62d59e63fbff9864b6c5fbb0a107687047fc382e3",
      "transactionType": "CALL",
      "contractName": null,
      "contractAddress": "0x6f41d083b4c66aadb6b4422b8b1de65d6177324a",
      "function": "swap((address,address,uint24,int24,address),(bool,int256,uint160),(bool,bool),bytes)",
      "arguments": [
        "(0x1c7D4B196Cb0C7B01d743Fbc6116a902379C7238, 0xfFf9976782d46CC05630D1f6eBAb18b2324d6B14, 500, 10, 0x0000000000000000000000000000000000000000)",
        "(false, -10000, 1461446703485210103287273052203988822378723970341)",
        "(false, false)",
        "0x"
      ],
      "transaction": {
        "from": "0x633adfb3430b96238c9fb7026195d1d5b0889ea6",
        "to": "0x6f41d083b4c66aadb6b4422b8b1de65d6177324a",
        "gas": "0x2e465b",
        "value": "0x0",
        "input": "0x2229d0b40000000000000000000000001c7d4b196cb0c7b01d743fbc6116a902379c7238000000000000000000000000fff9976782d46cc05630d1f6ebab18b2324d6b1400000000000000000000000000000000000000000000000000000000000001f4000000000000000000000000000000000000000000000000000000000000000a00000000000000000000000000000000000000000000000000000000000000000000000000000000000000000000000000000000000000000000000000000000ffffffffffffffffffffffffffffffffffffffffffffffffffffffffffffd8f0000000000000000000000000fffd8963efd1fc6a506488495d951d5263988d250000000000000000000000000000000000000000000000000000000000000000000000000000000000000000000000000000000000000000000000000000000000000000000000000000000000000000000000000000000000000000000001600000000000000000000000000000000000000000000000000000000000000000",
        "nonce": "0xfb",
        "chainId": "0xaa36a7"
      },
      "additionalContracts": [],
      "isFixedGasLimit": false
    }
  ],
  "receipts": [
    {
      "status": "0x1",
      "cumulativeGasUsed": "0x949a08",
      "logs": [
        {
          "address": "0x1c7d4b196cb0c7b01d743fbc6116a902379c7238",
          "topics": [
            "0x8c5be1e5ebec7d5bd14f71427d1e84f3dd0314c0f7b2291e5b200ac8c7c3b925",
            "0x000000000000000000000000633adfb3430b96238c9fb7026195d1d5b0889ea6",
            "0x0000000000000000000000006f41d083b4c66aadb6b4422b8b1de65d6177324a"
          ],
          "data": "0xffffffffffffffffffffffffffffffffffffffffffffffffffffffffffffffff",
          "blockHash": "0x7d1843938618d43b18c36050a8082bc4ab771cc0bdfb7963219d08ea58511d8f",
          "blockNumber": "0x60315e",
          "transactionHash": "0xb6f931e4a1317620314b465622f09fb5ea06241174bbcfa4d493c0ca25d7a2cc",
          "transactionIndex": "0x4b",
          "logIndex": "0x7d",
          "removed": false
        }
      ],
      "logsBloom": "0x00000000000000000000000000000000000000000000000000000000000200000000000000000000000000000000000000000000000000000000000000200000000000000000000000000000000000000000000000000000000000000000000000000000000000000000000000000000000000200000002000000000000008000000000000100000000000000000000000000000000000000000000000000000020000000000000000000000000000000000000000000000000000000000000000000000000000000000000000000000010000000000000000000000000000000010000000000080000010000000000000000000000020000000000000000000",
      "type": "0x2",
      "transactionHash": "0xb6f931e4a1317620314b465622f09fb5ea06241174bbcfa4d493c0ca25d7a2cc",
      "transactionIndex": "0x4b",
      "blockHash": "0x7d1843938618d43b18c36050a8082bc4ab771cc0bdfb7963219d08ea58511d8f",
      "blockNumber": "0x60315e",
      "gasUsed": "0x971d",
      "effectiveGasPrice": "0x3fa62a24",
      "from": "0x633adfb3430b96238c9fb7026195d1d5b0889ea6",
      "to": "0x1c7d4b196cb0c7b01d743fbc6116a902379c7238",
      "contractAddress": null
    },
    {
      "status": "0x1",
      "cumulativeGasUsed": "0x950168",
      "logs": [
        {
          "address": "0xfff9976782d46cc05630d1f6ebab18b2324d6b14",
          "topics": [
            "0x8c5be1e5ebec7d5bd14f71427d1e84f3dd0314c0f7b2291e5b200ac8c7c3b925",
            "0x000000000000000000000000633adfb3430b96238c9fb7026195d1d5b0889ea6",
            "0x0000000000000000000000006f41d083b4c66aadb6b4422b8b1de65d6177324a"
          ],
          "data": "0xffffffffffffffffffffffffffffffffffffffffffffffffffffffffffffffff",
          "blockHash": "0x7d1843938618d43b18c36050a8082bc4ab771cc0bdfb7963219d08ea58511d8f",
          "blockNumber": "0x60315e",
          "transactionHash": "0x42df1052654b966f0ceaceb3f1d5bc2d73b4c947e38bdb418f80db4b5b308b7c",
          "transactionIndex": "0x4c",
          "logIndex": "0x7e",
          "removed": false
        }
      ],
      "logsBloom": "0x00000000000000000000000000000000000000000000000000000000000000000000000000000000000000000000000000000000000000000000000000200000000000000000000000000000000000000000000000000000000000000000000000000000000000000000000000000000000000200000002000000000000008000040000000000000000000000000000000000000000000000000000000000000020020000000000000000000000000000000000000000000000000000000000000000000000000000002000000000000010000000000000000000000000000000010000000000080000000000000000000000000000020000000000000000000",
      "type": "0x2",
      "transactionHash": "0x42df1052654b966f0ceaceb3f1d5bc2d73b4c947e38bdb418f80db4b5b308b7c",
      "transactionIndex": "0x4c",
      "blockHash": "0x7d1843938618d43b18c36050a8082bc4ab771cc0bdfb7963219d08ea58511d8f",
      "blockNumber": "0x60315e",
      "gasUsed": "0x6760",
      "effectiveGasPrice": "0x3fa62a24",
      "from": "0x633adfb3430b96238c9fb7026195d1d5b0889ea6",
      "to": "0xfff9976782d46cc05630d1f6ebab18b2324d6b14",
      "contractAddress": null
    },
    {
      "status": "0x1",
      "cumulativeGasUsed": "0x958d95",
      "logs": [
        {
          "address": "0x1c7d4b196cb0c7b01d743fbc6116a902379c7238",
          "topics": [
            "0x8c5be1e5ebec7d5bd14f71427d1e84f3dd0314c0f7b2291e5b200ac8c7c3b925",
            "0x000000000000000000000000633adfb3430b96238c9fb7026195d1d5b0889ea6",
            "0x00000000000000000000000061d810c745e3cfa17659a64d68824137c7b9625e"
          ],
          "data": "0xffffffffffffffffffffffffffffffffffffffffffffffffffffffffffffffff",
          "blockHash": "0x7d1843938618d43b18c36050a8082bc4ab771cc0bdfb7963219d08ea58511d8f",
          "blockNumber": "0x60315e",
          "transactionHash": "0x2cbd82a2b24af0539ec00d84126ca303236e06dd2ec3fcf0d4312fb9ce19729d",
          "transactionIndex": "0x4d",
          "logIndex": "0x7f",
          "removed": false
        }
      ],
      "logsBloom": "0x00000000000000000000000000000000000000000000000000000000000200000000000000000000000000000000000000000000000000000000000000200000000000000000000000000000000000000000000000000040000000000000000000000000000000000000000000000000000000200000000000000000000000000000000000100000000000000000000000000000000000000000000000000000020000000000000000000004000000000000000000000000000000000000000000000000000000000000000000000000010000000000000000000000000000000010000000000080001010000000000000000000000000000000000000000000",
      "type": "0x2",
      "transactionHash": "0x2cbd82a2b24af0539ec00d84126ca303236e06dd2ec3fcf0d4312fb9ce19729d",
      "transactionIndex": "0x4d",
      "blockHash": "0x7d1843938618d43b18c36050a8082bc4ab771cc0bdfb7963219d08ea58511d8f",
      "blockNumber": "0x60315e",
      "gasUsed": "0x8c2d",
      "effectiveGasPrice": "0x3fa62a24",
      "from": "0x633adfb3430b96238c9fb7026195d1d5b0889ea6",
      "to": "0x1c7d4b196cb0c7b01d743fbc6116a902379c7238",
      "contractAddress": null
    },
    {
      "status": "0x1",
      "cumulativeGasUsed": "0x95f4f5",
      "logs": [
        {
          "address": "0xfff9976782d46cc05630d1f6ebab18b2324d6b14",
          "topics": [
            "0x8c5be1e5ebec7d5bd14f71427d1e84f3dd0314c0f7b2291e5b200ac8c7c3b925",
            "0x000000000000000000000000633adfb3430b96238c9fb7026195d1d5b0889ea6",
            "0x00000000000000000000000061d810c745e3cfa17659a64d68824137c7b9625e"
          ],
          "data": "0xffffffffffffffffffffffffffffffffffffffffffffffffffffffffffffffff",
          "blockHash": "0x7d1843938618d43b18c36050a8082bc4ab771cc0bdfb7963219d08ea58511d8f",
          "blockNumber": "0x60315e",
          "transactionHash": "0xaf99ad77c5833dd0378326ccb05648fa85a763adec9d0ec3bcfcd4dc480ff105",
          "transactionIndex": "0x4e",
          "logIndex": "0x80",
          "removed": false
        }
      ],
      "logsBloom": "0x00000000000000000000000000000000000000000000000000000000000000000000000000000000000000000000000000000000000000000000000000200000000000000000000000000000000000000000000000000040000000000000000000000000000000000000000000000000000000200000000000000000000000000040000000000000000000000000000000000000000000000000000000000000020020000000000000000004000000000000000000000000000000000000000000000000000000000002000000000000010000000000000000000000000000000010000000000080001000000000000000000000000000000000000000000000",
      "type": "0x2",
      "transactionHash": "0xaf99ad77c5833dd0378326ccb05648fa85a763adec9d0ec3bcfcd4dc480ff105",
      "transactionIndex": "0x4e",
      "blockHash": "0x7d1843938618d43b18c36050a8082bc4ab771cc0bdfb7963219d08ea58511d8f",
      "blockNumber": "0x60315e",
      "gasUsed": "0x6760",
      "effectiveGasPrice": "0x3fa62a24",
      "from": "0x633adfb3430b96238c9fb7026195d1d5b0889ea6",
      "to": "0xfff9976782d46cc05630d1f6ebab18b2324d6b14",
      "contractAddress": null
    },
    {
      "status": "0x1",
      "cumulativeGasUsed": "0xb77582",
      "logs": [
        {
          "address": "0x61d810c745e3cfa17659a64d68824137c7b9625e",
          "topics": [
            "0x40e9cecb9f5f1f1c5b9c97dec2917b7ee92e57ba5563708daca94dd84ad7112f",
            "0xabdb9820d36431e092c155f7151c4c781f09fb4e1b7894fa918a0aadcac87e16"
          ],
          "data": "0x0000000000000000000000006f41d083b4c66aadb6b4422b8b1de65d6177324a0000000000000000000000000000000000000000000000000000000000002970ffffffffffffffffffffffffffffffffffffffffffffffffffffffffffffd8f00000000000000000000000000000000000000000f8896a48b36205a3f2008da500000000000000000000000000000000000000000000000000000000017d7840fffffffffffffffffffffffffffffffffffffffffffffffffffffffffffffdb000000000000000000000000000000000000000000000000000000000000001f4",
          "blockHash": "0x7d1843938618d43b18c36050a8082bc4ab771cc0bdfb7963219d08ea58511d8f",
          "blockNumber": "0x60315e",
          "transactionHash": "0x4ab832f0eac00f04f0f795d62d59e63fbff9864b6c5fbb0a107687047fc382e3",
          "transactionIndex": "0x4f",
          "logIndex": "0x81",
          "removed": false
        },
        {
          "address": "0xfff9976782d46cc05630d1f6ebab18b2324d6b14",
          "topics": [
            "0xddf252ad1be2c89b69c2b068fc378daa952ba7f163c4a11628f55a4df523b3ef",
            "0x000000000000000000000000633adfb3430b96238c9fb7026195d1d5b0889ea6",
            "0x00000000000000000000000061d810c745e3cfa17659a64d68824137c7b9625e"
          ],
          "data": "0x0000000000000000000000000000000000000000000000000000000000002710",
          "blockHash": "0x7d1843938618d43b18c36050a8082bc4ab771cc0bdfb7963219d08ea58511d8f",
          "blockNumber": "0x60315e",
          "transactionHash": "0x4ab832f0eac00f04f0f795d62d59e63fbff9864b6c5fbb0a107687047fc382e3",
          "transactionIndex": "0x4f",
          "logIndex": "0x82",
          "removed": false
        },
        {
          "address": "0x1c7d4b196cb0c7b01d743fbc6116a902379c7238",
          "topics": [
            "0xddf252ad1be2c89b69c2b068fc378daa952ba7f163c4a11628f55a4df523b3ef",
            "0x00000000000000000000000061d810c745e3cfa17659a64d68824137c7b9625e",
            "0x000000000000000000000000633adfb3430b96238c9fb7026195d1d5b0889ea6"
          ],
          "data": "0x0000000000000000000000000000000000000000000000000000000000002970",
          "blockHash": "0x7d1843938618d43b18c36050a8082bc4ab771cc0bdfb7963219d08ea58511d8f",
          "blockNumber": "0x60315e",
          "transactionHash": "0x4ab832f0eac00f04f0f795d62d59e63fbff9864b6c5fbb0a107687047fc382e3",
          "transactionIndex": "0x4f",
          "logIndex": "0x83",
          "removed": false
        }
      ],
      "logsBloom": "0x00000000000000000000000000000000000000000000000000000000000200000000000000000000000000000000000000000000040000000000000000000000000000000000000000000008000000000001000000000060000000000000000000000000000000000000000000000000000000200000000000000010000000000040000000100000000000000000000000000004000000000000000100000000000020000000000000000004000000000000000000000000000000000000000000000002000000000002000000000100010000000000000000000000000000000000000000000080005010000000000000000000001000000200000000000000",
      "type": "0x2",
      "transactionHash": "0x4ab832f0eac00f04f0f795d62d59e63fbff9864b6c5fbb0a107687047fc382e3",
      "transactionIndex": "0x4f",
      "blockHash": "0x7d1843938618d43b18c36050a8082bc4ab771cc0bdfb7963219d08ea58511d8f",
      "blockNumber": "0x60315e",
      "gasUsed": "0x21808d",
      "effectiveGasPrice": "0x3fa62a24",
      "from": "0x633adfb3430b96238c9fb7026195d1d5b0889ea6",
      "to": "0x6f41d083b4c66aadb6b4422b8b1de65d6177324a",
      "contractAddress": null
    }
  ],
  "libraries": [],
  "pending": [],
  "returns": {},
  "timestamp": 1720892123,
  "chain": 11155111,
  "commit": "d02f53f"
}