{
  "transactions": [
    {
      "hash": "0xc4b5b117e2150af636299da129c87696903635de058e6cdc1d7d1a75f6202896",
      "transactionType": "CALL",
      "contractName": null,
      "contractAddress": "0x1c7d4b196cb0c7b01d743fbc6116a902379c7238",
      "function": "approve(address,uint256)",
      "arguments": [
        "0x6f41d083B4C66aaDB6b4422B8b1De65d6177324A",
        "115792089237316195423570985008687907853269984665640564039457584007913129639935"
      ],
      "transaction": {
        "from": "0x633adfb3430b96238c9fb7026195d1d5b0889ea6",
        "to": "0x1c7d4b196cb0c7b01d743fbc6116a902379c7238",
        "gas": "0xc19d",
        "value": "0x0",
        "input": "0x095ea7b30000000000000000000000006f41d083b4c66aadb6b4422b8b1de65d6177324affffffffffffffffffffffffffffffffffffffffffffffffffffffffffffffff",
        "nonce": "0x106",
        "chainId": "0xaa36a7"
      },
      "additionalContracts": [],
      "isFixedGasLimit": false
    },
    {
      "hash": "0x8de2cc411a602ed01313f7fe4db8de0c65524e796c202b1ffb5f61ec5860f290",
      "transactionType": "CALL",
      "contractName": null,
      "contractAddress": "0xfff9976782d46cc05630d1f6ebab18b2324d6b14",
      "function": "approve(address,uint256)",
      "arguments": [
        "0x6f41d083B4C66aaDB6b4422B8b1De65d6177324A",
        "115792089237316195423570985008687907853269984665640564039457584007913129639935"
      ],
      "transaction": {
        "from": "0x633adfb3430b96238c9fb7026195d1d5b0889ea6",
        "to": "0xfff9976782d46cc05630d1f6ebab18b2324d6b14",
        "gas": "0x8ec9",
        "value": "0x0",
        "input": "0x095ea7b30000000000000000000000006f41d083b4c66aadb6b4422b8b1de65d6177324affffffffffffffffffffffffffffffffffffffffffffffffffffffffffffffff",
        "nonce": "0x107",
        "chainId": "0xaa36a7"
      },
      "additionalContracts": [],
      "isFixedGasLimit": false
    },
    {
      "hash": "0x62f564681a05ec0e35a5d5cd28071d9cb99d99b14114ce8cc5d140d8cac30643",
      "transactionType": "CALL",
      "contractName": null,
      "contractAddress": "0x1c7d4b196cb0c7b01d743fbc6116a902379c7238",
      "function": "approve(address,uint256)",
      "arguments": [
        "0x61d810C745E3cFa17659A64d68824137c7b9625E",
        "115792089237316195423570985008687907853269984665640564039457584007913129639935"
      ],
      "transaction": {
        "from": "0x633adfb3430b96238c9fb7026195d1d5b0889ea6",
        "to": "0x1c7d4b196cb0c7b01d743fbc6116a902379c7238",
        "gas": "0xc19d",
        "value": "0x0",
        "input": "0x095ea7b300000000000000000000000061d810c745e3cfa17659a64d68824137c7b9625effffffffffffffffffffffffffffffffffffffffffffffffffffffffffffffff",
        "nonce": "0x108",
        "chainId": "0xaa36a7"
      },
      "additionalContracts": [],
      "isFixedGasLimit": false
    },
    {
      "hash": "0xdee5855370a291cf21d3848d2290a69e41009734aedbcbbb10c0d8bd83c9ca08",
      "transactionType": "CALL",
      "contractName": null,
      "contractAddress": "0xfff9976782d46cc05630d1f6ebab18b2324d6b14",
      "function": "approve(address,uint256)",
      "arguments": [
        "0x61d810C745E3cFa17659A64d68824137c7b9625E",
        "115792089237316195423570985008687907853269984665640564039457584007913129639935"
      ],
      "transaction": {
        "from": "0x633adfb3430b96238c9fb7026195d1d5b0889ea6",
        "to": "0xfff9976782d46cc05630d1f6ebab18b2324d6b14",
        "gas": "0x8ec9",
        "value": "0x0",
        "input": "0x095ea7b300000000000000000000000061d810c745e3cfa17659a64d68824137c7b9625effffffffffffffffffffffffffffffffffffffffffffffffffffffffffffffff",
        "nonce": "0x109",
        "chainId": "0xaa36a7"
      },
      "additionalContracts": [],
      "isFixedGasLimit": false
    },
    {
      "hash": "0x8d9d4b17e62f4a4f53d4350c53c7550e82573ec2523031b677e68146bdba8163",
      "transactionType": "CALL",
      "contractName": null,
      "contractAddress": "0x6f41d083b4c66aadb6b4422b8b1de65d6177324a",
      "function": "swap((address,address,uint24,int24,address),(bool,int256,uint160),(bool,bool),bytes)",
      "arguments": [
        "(0x1c7D4B196Cb0C7B01d743Fbc6116a902379C7238, 0xfFf9976782d46CC05630D1f6eBAb18b2324d6B14, 500, 10, 0x0000000000000000000000000000000000000000)",
        "(false, -10000, 1461446703485210103287273052203988822378723970341)",
        "(false, false)",
        "0x"
      ],
      "transaction": {
        "from": "0x633adfb3430b96238c9fb7026195d1d5b0889ea6",
        "to": "0x6f41d083b4c66aadb6b4422b8b1de65d6177324a",
        "gas": "0x2da75",
        "value": "0x0",
        "input": "0x2229d0b40000000000000000000000001c7d4b196cb0c7b01d743fbc6116a902379c7238000000000000000000000000fff9976782d46cc05630d1f6ebab18b2324d6b1400000000000000000000000000000000000000000000000000000000000001f4000000000000000000000000000000000000000000000000000000000000000a00000000000000000000000000000000000000000000000000000000000000000000000000000000000000000000000000000000000000000000000000000000ffffffffffffffffffffffffffffffffffffffffffffffffffffffffffffd8f0000000000000000000000000fffd8963efd1fc6a506488495d951d5263988d250000000000000000000000000000000000000000000000000000000000000000000000000000000000000000000000000000000000000000000000000000000000000000000000000000000000000000000000000000000000000000000001600000000000000000000000000000000000000000000000000000000000000000",
        "nonce": "0x10a",
        "chainId": "0xaa36a7"
      },
      "additionalContracts": [],
      "isFixedGasLimit": false
    }
  ],
  "receipts": [
    {
      "status": "0x1",
      "cumulativeGasUsed": "0x824286",
      "logs": [
        {
          "address": "0x1c7d4b196cb0c7b01d743fbc6116a902379c7238",
          "topics": [
            "0x8c5be1e5ebec7d5bd14f71427d1e84f3dd0314c0f7b2291e5b200ac8c7c3b925",
            "0x000000000000000000000000633adfb3430b96238c9fb7026195d1d5b0889ea6",
            "0x0000000000000000000000006f41d083b4c66aadb6b4422b8b1de65d6177324a"
          ],
          "data": "0xffffffffffffffffffffffffffffffffffffffffffffffffffffffffffffffff",
          "blockHash": "0xa423e572adb94d97ccedd40d7314a019d6536eea01d408c0cffacc4fbf6f1426",
          "blockNumber": "0x603177",
          "transactionHash": "0xc4b5b117e2150af636299da129c87696903635de058e6cdc1d7d1a75f6202896",
          "transactionIndex": "0x3c",
          "logIndex": "0x5a",
          "removed": false
        }
      ],
      "logsBloom": "0x00000000000000000000000000000000000000000000000000000000000200000000000000000000000000000000000000000000000000000000000000200000000000000000000000000000000000000000000000000000000000000000000000000000000000000000000000000000000000200000002000000000000008000000000000100000000000000000000000000000000000000000000000000000020000000000000000000000000000000000000000000000000000000000000000000000000000000000000000000000010000000000000000000000000000000010000000000080000010000000000000000000000020000000000000000000",
      "type": "0x2",
      "transactionHash": "0xc4b5b117e2150af636299da129c87696903635de058e6cdc1d7d1a75f6202896",
      "transactionIndex": "0x3c",
      "blockHash": "0xa423e572adb94d97ccedd40d7314a019d6536eea01d408c0cffacc4fbf6f1426",
      "blockNumber": "0x603177",
      "gasUsed": "0x8c2d",
      "effectiveGasPrice": "0x5599a48a",
      "from": "0x633adfb3430b96238c9fb7026195d1d5b0889ea6",
      "to": "0x1c7d4b196cb0c7b01d743fbc6116a902379c7238",
      "contractAddress": null
    },
    {
      "status": "0x1",
      "cumulativeGasUsed": "0x82a9e6",
      "logs": [
        {
          "address": "0xfff9976782d46cc05630d1f6ebab18b2324d6b14",
          "topics": [
            "0x8c5be1e5ebec7d5bd14f71427d1e84f3dd0314c0f7b2291e5b200ac8c7c3b925",
            "0x000000000000000000000000633adfb3430b96238c9fb7026195d1d5b0889ea6",
            "0x0000000000000000000000006f41d083b4c66aadb6b4422b8b1de65d6177324a"
          ],
          "data": "0xffffffffffffffffffffffffffffffffffffffffffffffffffffffffffffffff",
          "blockHash": "0xa423e572adb94d97ccedd40d7314a019d6536eea01d408c0cffacc4fbf6f1426",
          "blockNumber": "0x603177",
          "transactionHash": "0x8de2cc411a602ed01313f7fe4db8de0c65524e796c202b1ffb5f61ec5860f290",
          "transactionIndex": "0x3d",
          "logIndex": "0x5b",
          "removed": false
        }
      ],
      "logsBloom": "0x00000000000000000000000000000000000000000000000000000000000000000000000000000000000000000000000000000000000000000000000000200000000000000000000000000000000000000000000000000000000000000000000000000000000000000000000000000000000000200000002000000000000008000040000000000000000000000000000000000000000000000000000000000000020020000000000000000000000000000000000000000000000000000000000000000000000000000002000000000000010000000000000000000000000000000010000000000080000000000000000000000000000020000000000000000000",
      "type": "0x2",
      "transactionHash": "0x8de2cc411a602ed01313f7fe4db8de0c65524e796c202b1ffb5f61ec5860f290",
      "transactionIndex": "0x3d",
      "blockHash": "0xa423e572adb94d97ccedd40d7314a019d6536eea01d408c0cffacc4fbf6f1426",
      "blockNumber": "0x603177",
      "gasUsed": "0x6760",
      "effectiveGasPrice": "0x5599a48a",
      "from": "0x633adfb3430b96238c9fb7026195d1d5b0889ea6",
      "to": "0xfff9976782d46cc05630d1f6ebab18b2324d6b14",
      "contractAddress": null
    },
    {
      "status": "0x1",
      "cumulativeGasUsed": "0x833613",
      "logs": [
        {
          "address": "0x1c7d4b196cb0c7b01d743fbc6116a902379c7238",
          "topics": [
            "0x8c5be1e5ebec7d5bd14f71427d1e84f3dd0314c0f7b2291e5b200ac8c7c3b925",
            "0x000000000000000000000000633adfb3430b96238c9fb7026195d1d5b0889ea6",
            "0x00000000000000000000000061d810c745e3cfa17659a64d68824137c7b9625e"
          ],
          "data": "0xffffffffffffffffffffffffffffffffffffffffffffffffffffffffffffffff",
          "blockHash": "0xa423e572adb94d97ccedd40d7314a019d6536eea01d408c0cffacc4fbf6f1426",
          "blockNumber": "0x603177",
          "transactionHash": "0x62f564681a05ec0e35a5d5cd28071d9cb99d99b14114ce8cc5d140d8cac30643",
          "transactionIndex": "0x3e",
          "logIndex": "0x5c",
          "removed": false
        }
      ],
      "logsBloom": "0x00000000000000000000000000000000000000000000000000000000000200000000000000000000000000000000000000000000000000000000000000200000000000000000000000000000000000000000000000000040000000000000000000000000000000000000000000000000000000200000000000000000000000000000000000100000000000000000000000000000000000000000000000000000020000000000000000000004000000000000000000000000000000000000000000000000000000000000000000000000010000000000000000000000000000000010000000000080001010000000000000000000000000000000000000000000",
      "type": "0x2",
      "transactionHash": "0x62f564681a05ec0e35a5d5cd28071d9cb99d99b14114ce8cc5d140d8cac30643",
      "transactionIndex": "0x3e",
      "blockHash": "0xa423e572adb94d97ccedd40d7314a019d6536eea01d408c0cffacc4fbf6f1426",
      "blockNumber": "0x603177",
      "gasUsed": "0x8c2d",
      "effectiveGasPrice": "0x5599a48a",
      "from": "0x633adfb3430b96238c9fb7026195d1d5b0889ea6",
      "to": "0x1c7d4b196cb0c7b01d743fbc6116a902379c7238",
      "contractAddress": null
    },
    {
      "status": "0x1",
      "cumulativeGasUsed": "0x839d73",
      "logs": [
        {
          "address": "0xfff9976782d46cc05630d1f6ebab18b2324d6b14",
          "topics": [
            "0x8c5be1e5ebec7d5bd14f71427d1e84f3dd0314c0f7b2291e5b200ac8c7c3b925",
            "0x000000000000000000000000633adfb3430b96238c9fb7026195d1d5b0889ea6",
            "0x00000000000000000000000061d810c745e3cfa17659a64d68824137c7b9625e"
          ],
          "data": "0xffffffffffffffffffffffffffffffffffffffffffffffffffffffffffffffff",
          "blockHash": "0xa423e572adb94d97ccedd40d7314a019d6536eea01d408c0cffacc4fbf6f1426",
          "blockNumber": "0x603177",
          "transactionHash": "0xdee5855370a291cf21d3848d2290a69e41009734aedbcbbb10c0d8bd83c9ca08",
          "transactionIndex": "0x3f",
          "logIndex": "0x5d",
          "removed": false
        }
      ],
      "logsBloom": "0x00000000000000000000000000000000000000000000000000000000000000000000000000000000000000000000000000000000000000000000000000200000000000000000000000000000000000000000000000000040000000000000000000000000000000000000000000000000000000200000000000000000000000000040000000000000000000000000000000000000000000000000000000000000020020000000000000000004000000000000000000000000000000000000000000000000000000000002000000000000010000000000000000000000000000000010000000000080001000000000000000000000000000000000000000000000",
      "type": "0x2",
      "transactionHash": "0xdee5855370a291cf21d3848d2290a69e41009734aedbcbbb10c0d8bd83c9ca08",
      "transactionIndex": "0x3f",
      "blockHash": "0xa423e572adb94d97ccedd40d7314a019d6536eea01d408c0cffacc4fbf6f1426",
      "blockNumber": "0x603177",
      "gasUsed": "0x6760",
      "effectiveGasPrice": "0x5599a48a",
      "from": "0x633adfb3430b96238c9fb7026195d1d5b0889ea6",
      "to": "0xfff9976782d46cc05630d1f6ebab18b2324d6b14",
      "contractAddress": null
    },
    {
      "status": "0x1",
      "cumulativeGasUsed": "0x85ae4a",
      "logs": [
        {
          "address": "0x61d810c745e3cfa17659a64d68824137c7b9625e",
          "topics": [
            "0x40e9cecb9f5f1f1c5b9c97dec2917b7ee92e57ba5563708daca94dd84ad7112f",
            "0xabdb9820d36431e092c155f7151c4c781f09fb4e1b7894fa918a0aadcac87e16"
          ],
          "data": "0x0000000000000000000000006f41d083b4c66aadb6b4422b8b1de65d6177324a0000000000000000000000000000000000000000000000000000000000002956ffffffffffffffffffffffffffffffffffffffffffffffffffffffffffffd8f00000000000000000000000000000000000000000f8d804e079bcc868274f240a00000000000000000000000000000000000000000000000000000000017d7840fffffffffffffffffffffffffffffffffffffffffffffffffffffffffffffdc800000000000000000000000000000000000000000000000000000000000001f4",
          "blockHash": "0xa423e572adb94d97ccedd40d7314a019d6536eea01d408c0cffacc4fbf6f1426",
          "blockNumber": "0x603177",
          "transactionHash": "0x8d9d4b17e62f4a4f53d4350c53c7550e82573ec2523031b677e68146bdba8163",
          "transactionIndex": "0x40",
          "logIndex": "0x5e",
          "removed": false
        },
        {
          "address": "0xfff9976782d46cc05630d1f6ebab18b2324d6b14",
          "topics": [
            "0xddf252ad1be2c89b69c2b068fc378daa952ba7f163c4a11628f55a4df523b3ef",
            "0x000000000000000000000000633adfb3430b96238c9fb7026195d1d5b0889ea6",
            "0x00000000000000000000000061d810c745e3cfa17659a64d68824137c7b9625e"
          ],
          "data": "0x0000000000000000000000000000000000000000000000000000000000002710",
          "blockHash": "0xa423e572adb94d97ccedd40d7314a019d6536eea01d408c0cffacc4fbf6f1426",
          "blockNumber": "0x603177",
          "transactionHash": "0x8d9d4b17e62f4a4f53d4350c53c7550e82573ec2523031b677e68146bdba8163",
          "transactionIndex": "0x40",
          "logIndex": "0x5f",
          "removed": false
        },
        {
          "address": "0x1c7d4b196cb0c7b01d743fbc6116a902379c7238",
          "topics": [
            "0xddf252ad1be2c89b69c2b068fc378daa952ba7f163c4a11628f55a4df523b3ef",
            "0x00000000000000000000000061d810c745e3cfa17659a64d68824137c7b9625e",
            "0x000000000000000000000000633adfb3430b96238c9fb7026195d1d5b0889ea6"
          ],
          "data": "0x0000000000000000000000000000000000000000000000000000000000002956",
          "blockHash": "0xa423e572adb94d97ccedd40d7314a019d6536eea01d408c0cffacc4fbf6f1426",
          "blockNumber": "0x603177",
          "transactionHash": "0x8d9d4b17e62f4a4f53d4350c53c7550e82573ec2523031b677e68146bdba8163",
          "transactionIndex": "0x40",
          "logIndex": "0x60",
          "removed": false
        }
      ],
      "logsBloom": "0x00000000000000000000000000000000000000000000000000000000000200000000000000000000000000000000000000000000040000000000000000000000000000000000000000000008000000000001000000000060000000000000000000000000000000000000000000000000000000200000000000000010000000000040000000100000000000000000000000000004000000000000000100000000000020000000000000000004000000000000000000000000000000000000000000000002000000000002000000000100010000000000000000000000000000000000000000000080005010000000000000000000001000000200000000000000",
      "type": "0x2",
      "transactionHash": "0x8d9d4b17e62f4a4f53d4350c53c7550e82573ec2523031b677e68146bdba8163",
      "transactionIndex": "0x40",
      "blockHash": "0xa423e572adb94d97ccedd40d7314a019d6536eea01d408c0cffacc4fbf6f1426",
      "blockNumber": "0x603177",
      "gasUsed": "0x210d7",
      "effectiveGasPrice": "0x5599a48a",
      "from": "0x633adfb3430b96238c9fb7026195d1d5b0889ea6",
      "to": "0x6f41d083b4c66aadb6b4422b8b1de65d6177324a",
      "contractAddress": null
    }
  ],
  "libraries": [],
  "pending": [],
  "returns": {},
  "timestamp": 1720892486,
  "chain": 11155111,
  "commit": "d02f53f"
}