{
  "transactions": [
    {
      "hash": "0x91d9cd5b362c89084d51e6dffce36fa655c93dad0959584b596c97cdfb561d6d",
      "transactionType": "CALL",
      "contractName": null,
      "contractAddress": "0x1c7d4b196cb0c7b01d743fbc6116a902379c7238",
      "function": "approve(address,uint256)",
      "arguments": [
        "0x8994D977ffd78f69f39EDC51d1C130F6371f62aB",
        "115792089237316195423570985008687907853269984665640564039457584007913129639935"
      ],
      "transaction": {
        "from": "0x633adfb3430b96238c9fb7026195d1d5b0889ea6",
        "to": "0x1c7d4b196cb0c7b01d743fbc6116a902379c7238",
        "gas": "0x13eb1",
        "value": "0x0",
        "input": "0x095ea7b30000000000000000000000008994d977ffd78f69f39edc51d1c130f6371f62abffffffffffffffffffffffffffffffffffffffffffffffffffffffffffffffff",
        "nonce": "0x124",
        "chainId": "0xaa36a7"
      },
      "additionalContracts": [],
      "isFixedGasLimit": false
    },
    {
      "hash": "0x2652df784846fe81a437f35eda4597f0fd4aaba28433e991a24a3d8e247cbeb0",
      "transactionType": "CALL",
      "contractName": null,
      "contractAddress": "0xfff9976782d46cc05630d1f6ebab18b2324d6b14",
      "function": "approve(address,uint256)",
      "arguments": [
        "0x8994D977ffd78f69f39EDC51d1C130F6371f62aB",
        "115792089237316195423570985008687907853269984665640564039457584007913129639935"
      ],
      "transaction": {
        "from": "0x633adfb3430b96238c9fb7026195d1d5b0889ea6",
        "to": "0xfff9976782d46cc05630d1f6ebab18b2324d6b14",
        "gas": "0xfa27",
        "value": "0x0",
        "input": "0x095ea7b30000000000000000000000008994d977ffd78f69f39edc51d1c130f6371f62abffffffffffffffffffffffffffffffffffffffffffffffffffffffffffffffff",
        "nonce": "0x125",
        "chainId": "0xaa36a7"
      },
      "additionalContracts": [],
      "isFixedGasLimit": false
    },
    {
      "hash": "0x4f00b54b2083776ff31e4703cbf947f11106429d4ed1bc7382a6e18fea6f3c61",
      "transactionType": "CALL",
      "contractName": null,
      "contractAddress": "0x1c7d4b196cb0c7b01d743fbc6116a902379c7238",
      "function": "approve(address,uint256)",
      "arguments": [
        "0x9C430DBdf1936AA36154e2046bb91C065Aa0107B",
        "115792089237316195423570985008687907853269984665640564039457584007913129639935"
      ],
      "transaction": {
        "from": "0x633adfb3430b96238c9fb7026195d1d5b0889ea6",
        "to": "0x1c7d4b196cb0c7b01d743fbc6116a902379c7238",
        "gas": "0x13eb1",
        "value": "0x0",
        "input": "0x095ea7b30000000000000000000000009c430dbdf1936aa36154e2046bb91c065aa0107bffffffffffffffffffffffffffffffffffffffffffffffffffffffffffffffff",
        "nonce": "0x126",
        "chainId": "0xaa36a7"
      },
      "additionalContracts": [],
      "isFixedGasLimit": false
    },
    {
      "hash": "0xb9d75ecd068377060ebaeae39f0cd91304220ce61fb4cc827ef7275eeb826ee4",
      "transactionType": "CALL",
      "contractName": null,
      "contractAddress": "0xfff9976782d46cc05630d1f6ebab18b2324d6b14",
      "function": "approve(address,uint256)",
      "arguments": [
        "0x9C430DBdf1936AA36154e2046bb91C065Aa0107B",
        "115792089237316195423570985008687907853269984665640564039457584007913129639935"
      ],
      "transaction": {
        "from": "0x633adfb3430b96238c9fb7026195d1d5b0889ea6",
        "to": "0xfff9976782d46cc05630d1f6ebab18b2324d6b14",
        "gas": "0xfa27",
        "value": "0x0",
        "input": "0x095ea7b30000000000000000000000009c430dbdf1936aa36154e2046bb91c065aa0107bffffffffffffffffffffffffffffffffffffffffffffffffffffffffffffffff",
        "nonce": "0x127",
        "chainId": "0xaa36a7"
      },
      "additionalContracts": [],
      "isFixedGasLimit": false
    },
    {
      "hash": "0x7c871ec1880785c6cdb3a5e9dae146e2303cf4da8da51fe074f688ed4febe992",
      "transactionType": "CALL",
      "contractName": null,
      "contractAddress": "0x8994d977ffd78f69f39edc51d1c130f6371f62ab",
      "function": "swap((address,address,uint24,int24,address),(bool,int256,uint160),(bool,bool),bytes)",
      "arguments": [
        "(0x1c7D4B196Cb0C7B01d743Fbc6116a902379C7238, 0xfFf9976782d46CC05630D1f6eBAb18b2324d6B14, 500, 10, 0x0000000000000000000000000000000000000000)",
        "(true, -1000000, 4295128740)",
        "(false, false)",
        "0x"
      ],
      "transaction": {
        "from": "0x633adfb3430b96238c9fb7026195d1d5b0889ea6",
        "to": "0x8994d977ffd78f69f39edc51d1c130f6371f62ab",
        "gas": "0x37ebe",
        "value": "0x0",
        "input": "0x2229d0b40000000000000000000000001c7d4b196cb0c7b01d743fbc6116a902379c7238000000000000000000000000fff9976782d46cc05630d1f6ebab18b2324d6b1400000000000000000000000000000000000000000000000000000000000001f4000000000000000000000000000000000000000000000000000000000000000a00000000000000000000000000000000000000000000000000000000000000000000000000000000000000000000000000000000000000000000000000000001fffffffffffffffffffffffffffffffffffffffffffffffffffffffffff0bdc000000000000000000000000000000000000000000000000000000001000276a40000000000000000000000000000000000000000000000000000000000000000000000000000000000000000000000000000000000000000000000000000000000000000000000000000000000000000000000000000000000000000000001600000000000000000000000000000000000000000000000000000000000000000",
        "nonce": "0x128",
        "chainId": "0xaa36a7"
      },
      "additionalContracts": [],
      "isFixedGasLimit": false
    }
  ],
  "receipts": [
    {
      "status": "0x1",
      "cumulativeGasUsed": "0xd8475f",
      "logs": [
        {
          "address": "0x1c7d4b196cb0c7b01d743fbc6116a902379c7238",
          "topics": [
            "0x8c5be1e5ebec7d5bd14f71427d1e84f3dd0314c0f7b2291e5b200ac8c7c3b925",
            "0x000000000000000000000000633adfb3430b96238c9fb7026195d1d5b0889ea6",
            "0x0000000000000000000000008994d977ffd78f69f39edc51d1c130f6371f62ab"
          ],
          "data": "0xffffffffffffffffffffffffffffffffffffffffffffffffffffffffffffffff",
          "blockHash": "0x3c480250755678fd0ac3ac2b67501808eef6dd5816d976d63f8456086dacd0ea",
          "blockNumber": "0x6032c2",
          "transactionHash": "0x91d9cd5b362c89084d51e6dffce36fa655c93dad0959584b596c97cdfb561d6d",
          "transactionIndex": "0x35",
          "logIndex": "0x57",
          "removed": false
        }
      ],
      "logsBloom": "0x00000000000000000000000000000000000000000000002000000000000200000000000000000000000000000000000000000000000000000000000000200000000000000000000000000000000000000000000000000000000000000000000000000000000000000000000000000000000000200000000000000000000000000000000000100000000000000000000000000000000000000000000000000000020000000000000000000000000000000000000800000000000000000000000000000000000000000000000000000000010000000000000000000000000000000010000000000080000010000000000000000000000000040000000000000000",
      "type": "0x2",
      "transactionHash": "0x91d9cd5b362c89084d51e6dffce36fa655c93dad0959584b596c97cdfb561d6d",
      "transactionIndex": "0x35",
      "blockHash": "0x3c480250755678fd0ac3ac2b67501808eef6dd5816d976d63f8456086dacd0ea",
      "blockNumber": "0x6032c2",
      "gasUsed": "0xd9e9",
      "effectiveGasPrice": "0x4523ced",
      "from": "0x633adfb3430b96238c9fb7026195d1d5b0889ea6",
      "to": "0x1c7d4b196cb0c7b01d743fbc6116a902379c7238",
      "contractAddress": null
    },
    {
      "status": "0x1",
      "cumulativeGasUsed": "0x7409d1",
      "logs": [
        {
          "address": "0xfff9976782d46cc05630d1f6ebab18b2324d6b14",
          "topics": [
            "0x8c5be1e5ebec7d5bd14f71427d1e84f3dd0314c0f7b2291e5b200ac8c7c3b925",
            "0x000000000000000000000000633adfb3430b96238c9fb7026195d1d5b0889ea6",
            "0x0000000000000000000000008994d977ffd78f69f39edc51d1c130f6371f62ab"
          ],
          "data": "0xffffffffffffffffffffffffffffffffffffffffffffffffffffffffffffffff",
          "blockHash": "0xc67d0c923b45b0ba41bfc065ded9c35772296c0832bb5ecee2b61833d72d195d",
          "blockNumber": "0x6032c3",
          "transactionHash": "0x2652df784846fe81a437f35eda4597f0fd4aaba28433e991a24a3d8e247cbeb0",
          "transactionIndex": "0x43",
          "logIndex": "0x62",
          "removed": false
        }
      ],
      "logsBloom": "0x00000000000000000000000000000000000000000000002000000000000000000000000000000000000000000000000000000000000000000000000000200000000000000000000000000000000000000000000000000000000000000000000000000000000000000000000000000000000000200000000000000000000000000040000000000000000000000000000000000000000000000000000000000000020020000000000000000000000000000000000800000000000000000000000000000000000000000002000000000000010000000000000000000000000000000010000000000080000000000000000000000000000000040000000000000000",
      "type": "0x2",
      "transactionHash": "0x2652df784846fe81a437f35eda4597f0fd4aaba28433e991a24a3d8e247cbeb0",
      "transactionIndex": "0x43",
      "blockHash": "0xc67d0c923b45b0ba41bfc065ded9c35772296c0832bb5ecee2b61833d72d195d",
      "blockNumber": "0x6032c3",
      "gasUsed": "0xb51c",
      "effectiveGasPrice": "0x4565981",
      "from": "0x633adfb3430b96238c9fb7026195d1d5b0889ea6",
      "to": "0xfff9976782d46cc05630d1f6ebab18b2324d6b14",
      "contractAddress": null
    },
    {
      "status": "0x1",
      "cumulativeGasUsed": "0x74e3ba",
      "logs": [
        {
          "address": "0x1c7d4b196cb0c7b01d743fbc6116a902379c7238",
          "topics": [
            "0x8c5be1e5ebec7d5bd14f71427d1e84f3dd0314c0f7b2291e5b200ac8c7c3b925",
            "0x000000000000000000000000633adfb3430b96238c9fb7026195d1d5b0889ea6",
            "0x0000000000000000000000009c430dbdf1936aa36154e2046bb91c065aa0107b"
          ],
          "data": "0xffffffffffffffffffffffffffffffffffffffffffffffffffffffffffffffff",
          "blockHash": "0xc67d0c923b45b0ba41bfc065ded9c35772296c0832bb5ecee2b61833d72d195d",
          "blockNumber": "0x6032c3",
          "transactionHash": "0x4f00b54b2083776ff31e4703cbf947f11106429d4ed1bc7382a6e18fea6f3c61",
          "transactionIndex": "0x44",
          "logIndex": "0x63",
          "removed": false
        }
      ],
      "logsBloom": "0x00000000000000000000000000000000000000000000000000000000000200000000000000000000000001000000000000000000000000000000000000200000000000000000000000000000000000000000000004000000000000000000000000000000000000000000000000000000000000200000000000000000000000000000000000100000000000000000000000000000000000000000000000000000020008000000000000000000000000000000000000000000000000000000000000000000000000000000000000000000010000000000000000000000000000000010000000000080000010000000000000000000000000000000000000000000",
      "type": "0x2",
      "transactionHash": "0x4f00b54b2083776ff31e4703cbf947f11106429d4ed1bc7382a6e18fea6f3c61",
      "transactionIndex": "0x44",
      "blockHash": "0xc67d0c923b45b0ba41bfc065ded9c35772296c0832bb5ecee2b61833d72d195d",
      "blockNumber": "0x6032c3",
      "gasUsed": "0xd9e9",
      "effectiveGasPrice": "0x4565981",
      "from": "0x633adfb3430b96238c9fb7026195d1d5b0889ea6",
      "to": "0x1c7d4b196cb0c7b01d743fbc6116a902379c7238",
      "contractAddress": null
    },
    {
      "status": "0x1",
      "cumulativeGasUsed": "0x7598d6",
      "logs": [
        {
          "address": "0xfff9976782d46cc05630d1f6ebab18b2324d6b14",
          "topics": [
            "0x8c5be1e5ebec7d5bd14f71427d1e84f3dd0314c0f7b2291e5b200ac8c7c3b925",
            "0x000000000000000000000000633adfb3430b96238c9fb7026195d1d5b0889ea6",
            "0x0000000000000000000000009c430dbdf1936aa36154e2046bb91c065aa0107b"
          ],
          "data": "0xffffffffffffffffffffffffffffffffffffffffffffffffffffffffffffffff",
          "blockHash": "0xc67d0c923b45b0ba41bfc065ded9c35772296c0832bb5ecee2b61833d72d195d",
          "blockNumber": "0x6032c3",
          "transactionHash": "0xb9d75ecd068377060ebaeae39f0cd91304220ce61fb4cc827ef7275eeb826ee4",
          "transactionIndex": "0x45",
          "logIndex": "0x64",
          "removed": false
        }
      ],
      "logsBloom": "0x00000000000000000000000000000000000000000000000000000000000000000000000000000000000001000000000000000000000000000000000000200000000000000000000000000000000000000000000004000000000000000000000000000000000000000000000000000000000000200000000000000000000000000040000000000000000000000000000000000000000000000000000000000000020028000000000000000000000000000000000000000000000000000000000000000000000000000002000000000000010000000000000000000000000000000010000000000080000000000000000000000000000000000000000000000000",
      "type": "0x2",
      "transactionHash": "0xb9d75ecd068377060ebaeae39f0cd91304220ce61fb4cc827ef7275eeb826ee4",
      "transactionIndex": "0x45",
      "blockHash": "0xc67d0c923b45b0ba41bfc065ded9c35772296c0832bb5ecee2b61833d72d195d",
      "blockNumber": "0x6032c3",
      "gasUsed": "0xb51c",
      "effectiveGasPrice": "0x4565981",
      "from": "0x633adfb3430b96238c9fb7026195d1d5b0889ea6",
      "to": "0xfff9976782d46cc05630d1f6ebab18b2324d6b14",
      "contractAddress": null
    },
    {
      "status": "0x1",
      "cumulativeGasUsed": "0x78209e",
      "logs": [
        {
          "address": "0x9c430dbdf1936aa36154e2046bb91c065aa0107b",
          "topics": [
            "0x40e9cecb9f5f1f1c5b9c97dec2917b7ee92e57ba5563708daca94dd84ad7112f",
            "0xabdb9820d36431e092c155f7151c4c781f09fb4e1b7894fa918a0aadcac87e16"
          ],
          "data": "0x0000000000000000000000008994d977ffd78f69f39edc51d1c130f6371f62abfffffffffffffffffffffffffffffffffffffffffffffffffffffffffff0bdc000000000000000000000000000000000000000000000000000000000000f3c650000000000000000000000000000000000000000ffbe8fea93a9756a9d88193e000000000000000000000000000000000000000000000000000000003b9aca00ffffffffffffffffffffffffffffffffffffffffffffffffffffffffffffffec00000000000000000000000000000000000000000000000000000000000001f4",
          "blockHash": "0xc67d0c923b45b0ba41bfc065ded9c35772296c0832bb5ecee2b61833d72d195d",
          "blockNumber": "0x6032c3",
          "transactionHash": "0x7c871ec1880785c6cdb3a5e9dae146e2303cf4da8da51fe074f688ed4febe992",
          "transactionIndex": "0x46",
          "logIndex": "0x65",
          "removed": false
        },
        {
          "address": "0x1c7d4b196cb0c7b01d743fbc6116a902379c7238",
          "topics": [
            "0xddf252ad1be2c89b69c2b068fc378daa952ba7f163c4a11628f55a4df523b3ef",
            "0x000000000000000000000000633adfb3430b96238c9fb7026195d1d5b0889ea6",
            "0x0000000000000000000000009c430dbdf1936aa36154e2046bb91c065aa0107b"
          ],
          "data": "0x00000000000000000000000000000000000000000000000000000000000f4240",
          "blockHash": "0xc67d0c923b45b0ba41bfc065ded9c35772296c0832bb5ecee2b61833d72d195d",
          "blockNumber": "0x6032c3",
          "transactionHash": "0x7c871ec1880785c6cdb3a5e9dae146e2303cf4da8da51fe074f688ed4febe992",
          "transactionIndex": "0x46",
          "logIndex": "0x66",
          "removed": false
        },
        {
          "address": "0xfff9976782d46cc05630d1f6ebab18b2324d6b14",
          "topics": [
            "0xddf252ad1be2c89b69c2b068fc378daa952ba7f163c4a11628f55a4df523b3ef",
            "0x0000000000000000000000009c430dbdf1936aa36154e2046bb91c065aa0107b",
            "0x000000000000000000000000633adfb3430b96238c9fb7026195d1d5b0889ea6"
          ],
          "data": "0x00000000000000000000000000000000000000000000000000000000000f3c65",
          "blockHash": "0xc67d0c923b45b0ba41bfc065ded9c35772296c0832bb5ecee2b61833d72d195d",
          "blockNumber": "0x6032c3",
          "transactionHash": "0x7c871ec1880785c6cdb3a5e9dae146e2303cf4da8da51fe074f688ed4febe992",
          "transactionIndex": "0x46",
          "logIndex": "0x67",
          "removed": false
        }
      ],
      "logsBloom": "0x00000000000000000000000000000000000000001000000000000000000200000200000000000000000001000000000000000000040000000000000000000000000000000000000000000008000000000000000004000020000000000000000000000000000000000000000000000000000000200000000000000010000000000040000000100000000040000000000000000000000000000000000100000000000028000000000000000000000000000000000000000000000000000000000000000002000000000002000000000100010000000000000000000000000000000000000000000080004010000000000000000000000000000200000000000000",
      "type": "0x2",
      "transactionHash": "0x7c871ec1880785c6cdb3a5e9dae146e2303cf4da8da51fe074f688ed4febe992",
      "transactionIndex": "0x46",
      "blockHash": "0xc67d0c923b45b0ba41bfc065ded9c35772296c0832bb5ecee2b61833d72d195d",
      "blockNumber": "0x6032c3",
      "gasUsed": "0x287c8",
      "effectiveGasPrice": "0x4565981",
      "from": "0x633adfb3430b96238c9fb7026195d1d5b0889ea6",
      "to": "0x8994d977ffd78f69f39edc51d1c130f6371f62ab",
      "contractAddress": null
    }
  ],
  "libraries": [],
  "pending": [],
  "returns": {},
  "timestamp": 1720897284,
  "chain": 11155111,
  "commit": "d02f53f"
}