{
  "transactions": [
    {
      "hash": "0xc98bb4a0747796020e59800c09551fbb1868e1f269bf81cffc7ed5bb0ccb3a39",
      "transactionType": "CALL",
      "contractName": null,
      "contractAddress": "0x1c7d4b196cb0c7b01d743fbc6116a902379c7238",
      "function": "approve(address,uint256)",
      "arguments": [
        "0x6f41d083B4C66aaDB6b4422B8b1De65d6177324A",
        "115792089237316195423570985008687907853269984665640564039457584007913129639935"
      ],
      "transaction": {
        "from": "0x633adfb3430b96238c9fb7026195d1d5b0889ea6",
        "to": "0x1c7d4b196cb0c7b01d743fbc6116a902379c7238",
        "gas": "0xc19d",
        "value": "0x0",
        "input": "0x095ea7b30000000000000000000000006f41d083b4c66aadb6b4422b8b1de65d6177324affffffffffffffffffffffffffffffffffffffffffffffffffffffffffffffff",
        "nonce": "0x10e",
        "chainId": "0xaa36a7"
      },
      "additionalContracts": [],
      "isFixedGasLimit": false
    },
    {
      "hash": "0x67a4a0133e5f29e0b60fb37235c2b31a0f2d99e26a101b06e868aeae8b5f9c81",
      "transactionType": "CALL",
      "contractName": null,
      "contractAddress": "0xfff9976782d46cc05630d1f6ebab18b2324d6b14",
      "function": "approve(address,uint256)",
      "arguments": [
        "0x6f41d083B4C66aaDB6b4422B8b1De65d6177324A",
        "115792089237316195423570985008687907853269984665640564039457584007913129639935"
      ],
      "transaction": {
        "from": "0x633adfb3430b96238c9fb7026195d1d5b0889ea6",
        "to": "0xfff9976782d46cc05630d1f6ebab18b2324d6b14",
        "gas": "0x8ec9",
        "value": "0x0",
        "input": "0x095ea7b30000000000000000000000006f41d083b4c66aadb6b4422b8b1de65d6177324affffffffffffffffffffffffffffffffffffffffffffffffffffffffffffffff",
        "nonce": "0x10f",
        "chainId": "0xaa36a7"
      },
      "additionalContracts": [],
      "isFixedGasLimit": false
    },
    {
      "hash": "0x7a4ef276e56824099ab794f2d5cd4cdee9273d0ae6390d739708de40f8837838",
      "transactionType": "CALL",
      "contractName": null,
      "contractAddress": "0x1c7d4b196cb0c7b01d743fbc6116a902379c7238",
      "function": "approve(address,uint256)",
      "arguments": [
        "0x61d810C745E3cFa17659A64d68824137c7b9625E",
        "115792089237316195423570985008687907853269984665640564039457584007913129639935"
      ],
      "transaction": {
        "from": "0x633adfb3430b96238c9fb7026195d1d5b0889ea6",
        "to": "0x1c7d4b196cb0c7b01d743fbc6116a902379c7238",
        "gas": "0xc19d",
        "value": "0x0",
        "input": "0x095ea7b300000000000000000000000061d810c745e3cfa17659a64d68824137c7b9625effffffffffffffffffffffffffffffffffffffffffffffffffffffffffffffff",
        "nonce": "0x110",
        "chainId": "0xaa36a7"
      },
      "additionalContracts": [],
      "isFixedGasLimit": false
    },
    {
      "hash": "0x0016cd00bb9adddfdbf5e0552864ef41d8a4c8246a8cc1ba3d575b3c6733633b",
      "transactionType": "CALL",
      "contractName": null,
      "contractAddress": "0xfff9976782d46cc05630d1f6ebab18b2324d6b14",
      "function": "approve(address,uint256)",
      "arguments": [
        "0x61d810C745E3cFa17659A64d68824137c7b9625E",
        "115792089237316195423570985008687907853269984665640564039457584007913129639935"
      ],
      "transaction": {
        "from": "0x633adfb3430b96238c9fb7026195d1d5b0889ea6",
        "to": "0xfff9976782d46cc05630d1f6ebab18b2324d6b14",
        "gas": "0x8ec9",
        "value": "0x0",
        "input": "0x095ea7b300000000000000000000000061d810c745e3cfa17659a64d68824137c7b9625effffffffffffffffffffffffffffffffffffffffffffffffffffffffffffffff",
        "nonce": "0x111",
        "chainId": "0xaa36a7"
      },
      "additionalContracts": [],
      "isFixedGasLimit": false
    },
    {
      "hash": "0x3174526483da10328f03ef5cdb71f29c25b65dbbf89af6d067df805055897573",
      "transactionType": "CALL",
      "contractName": null,
      "contractAddress": "0x6f41d083b4c66aadb6b4422b8b1de65d6177324a",
      "function": "swap((address,address,uint24,int24,address),(bool,int256,uint160),(bool,bool),bytes)",
      "arguments": [
        "(0x1c7D4B196Cb0C7B01d743Fbc6116a902379C7238, 0xfFf9976782d46CC05630D1f6eBAb18b2324d6B14, 500, 10, 0x0000000000000000000000000000000000000000)",
        "(true, -10000, 4295128740)",
        "(false, false)",
        "0x"
      ],
      "transaction": {
        "from": "0x633adfb3430b96238c9fb7026195d1d5b0889ea6",
        "to": "0x6f41d083b4c66aadb6b4422b8b1de65d6177324a",
        "gas": "0x3024a",
        "value": "0x0",
        "input": "0x2229d0b40000000000000000000000001c7d4b196cb0c7b01d743fbc6116a902379c7238000000000000000000000000fff9976782d46cc05630d1f6ebab18b2324d6b1400000000000000000000000000000000000000000000000000000000000001f4000000000000000000000000000000000000000000000000000000000000000a00000000000000000000000000000000000000000000000000000000000000000000000000000000000000000000000000000000000000000000000000000001ffffffffffffffffffffffffffffffffffffffffffffffffffffffffffffd8f000000000000000000000000000000000000000000000000000000001000276a40000000000000000000000000000000000000000000000000000000000000000000000000000000000000000000000000000000000000000000000000000000000000000000000000000000000000000000000000000000000000000000001600000000000000000000000000000000000000000000000000000000000000000",
        "nonce": "0x112",
        "chainId": "0xaa36a7"
      },
      "additionalContracts": [],
      "isFixedGasLimit": false
    }
  ],
  "receipts": [
    {
      "status": "0x1",
      "cumulativeGasUsed": "0x7faa0d",
      "logs": [
        {
          "address": "0x1c7d4b196cb0c7b01d743fbc6116a902379c7238",
          "topics": [
            "0x8c5be1e5ebec7d5bd14f71427d1e84f3dd0314c0f7b2291e5b200ac8c7c3b925",
            "0x000000000000000000000000633adfb3430b96238c9fb7026195d1d5b0889ea6",
            "0x0000000000000000000000006f41d083b4c66aadb6b4422b8b1de65d6177324a"
          ],
          "data": "0xffffffffffffffffffffffffffffffffffffffffffffffffffffffffffffffff",
          "blockHash": "0x2d4008f6ca0a7f82ca52762b7a4054fe7ce18fade1052697655499690a878811",
          "blockNumber": "0x60318c",
          "transactionHash": "0xc98bb4a0747796020e59800c09551fbb1868e1f269bf81cffc7ed5bb0ccb3a39",
          "transactionIndex": "0x45",
          "logIndex": "0x69",
          "removed": false
        }
      ],
      "logsBloom": "0x00000000000000000000000000000000000000000000000000000000000200000000000000000000000000000000000000000000000000000000000000200000000000000000000000000000000000000000000000000000000000000000000000000000000000000000000000000000000000200000002000000000000008000000000000100000000000000000000000000000000000000000000000000000020000000000000000000000000000000000000000000000000000000000000000000000000000000000000000000000010000000000000000000000000000000010000000000080000010000000000000000000000020000000000000000000",
      "type": "0x2",
      "transactionHash": "0xc98bb4a0747796020e59800c09551fbb1868e1f269bf81cffc7ed5bb0ccb3a39",
      "transactionIndex": "0x45",
      "blockHash": "0x2d4008f6ca0a7f82ca52762b7a4054fe7ce18fade1052697655499690a878811",
      "blockNumber": "0x60318c",
      "gasUsed": "0x8c2d",
      "effectiveGasPrice": "0x4e108560",
      "from": "0x633adfb3430b96238c9fb7026195d1d5b0889ea6",
      "to": "0x1c7d4b196cb0c7b01d743fbc6116a902379c7238",
      "contractAddress": null
    },
    {
      "status": "0x1",
      "cumulativeGasUsed": "0x80116d",
      "logs": [
        {
          "address": "0xfff9976782d46cc05630d1f6ebab18b2324d6b14",
          "topics": [
            "0x8c5be1e5ebec7d5bd14f71427d1e84f3dd0314c0f7b2291e5b200ac8c7c3b925",
            "0x000000000000000000000000633adfb3430b96238c9fb7026195d1d5b0889ea6",
            "0x0000000000000000000000006f41d083b4c66aadb6b4422b8b1de65d6177324a"
          ],
          "data": "0xffffffffffffffffffffffffffffffffffffffffffffffffffffffffffffffff",
          "blockHash": "0x2d4008f6ca0a7f82ca52762b7a4054fe7ce18fade1052697655499690a878811",
          "blockNumber": "0x60318c",
          "transactionHash": "0x67a4a0133e5f29e0b60fb37235c2b31a0f2d99e26a101b06e868aeae8b5f9c81",
          "transactionIndex": "0x46",
          "logIndex": "0x6a",
          "removed": false
        }
      ],
      "logsBloom": "0x00000000000000000000000000000000000000000000000000000000000000000000000000000000000000000000000000000000000000000000000000200000000000000000000000000000000000000000000000000000000000000000000000000000000000000000000000000000000000200000002000000000000008000040000000000000000000000000000000000000000000000000000000000000020020000000000000000000000000000000000000000000000000000000000000000000000000000002000000000000010000000000000000000000000000000010000000000080000000000000000000000000000020000000000000000000",
      "type": "0x2",
      "transactionHash": "0x67a4a0133e5f29e0b60fb37235c2b31a0f2d99e26a101b06e868aeae8b5f9c81",
      "transactionIndex": "0x46",
      "blockHash": "0x2d4008f6ca0a7f82ca52762b7a4054fe7ce18fade1052697655499690a878811",
      "blockNumber": "0x60318c",
      "gasUsed": "0x6760",
      "effectiveGasPrice": "0x4e108560",
      "from": "0x633adfb3430b96238c9fb7026195d1d5b0889ea6",
      "to": "0xfff9976782d46cc05630d1f6ebab18b2324d6b14",
      "contractAddress": null
    },
    {
      "status": "0x1",
      "cumulativeGasUsed": "0x809d9a",
      "logs": [
        {
          "address": "0x1c7d4b196cb0c7b01d743fbc6116a902379c7238",
          "topics": [
            "0x8c5be1e5ebec7d5bd14f71427d1e84f3dd0314c0f7b2291e5b200ac8c7c3b925",
            "0x000000000000000000000000633adfb3430b96238c9fb7026195d1d5b0889ea6",
            "0x00000000000000000000000061d810c745e3cfa17659a64d68824137c7b9625e"
          ],
          "data": "0xffffffffffffffffffffffffffffffffffffffffffffffffffffffffffffffff",
          "blockHash": "0x2d4008f6ca0a7f82ca52762b7a4054fe7ce18fade1052697655499690a878811",
          "blockNumber": "0x60318c",
          "transactionHash": "0x7a4ef276e56824099ab794f2d5cd4cdee9273d0ae6390d739708de40f8837838",
          "transactionIndex": "0x47",
          "logIndex": "0x6b",
          "removed": false
        }
      ],
      "logsBloom": "0x00000000000000000000000000000000000000000000000000000000000200000000000000000000000000000000000000000000000000000000000000200000000000000000000000000000000000000000000000000040000000000000000000000000000000000000000000000000000000200000000000000000000000000000000000100000000000000000000000000000000000000000000000000000020000000000000000000004000000000000000000000000000000000000000000000000000000000000000000000000010000000000000000000000000000000010000000000080001010000000000000000000000000000000000000000000",
      "type": "0x2",
      "transactionHash": "0x7a4ef276e56824099ab794f2d5cd4cdee9273d0ae6390d739708de40f8837838",
      "transactionIndex": "0x47",
      "blockHash": "0x2d4008f6ca0a7f82ca52762b7a4054fe7ce18fade1052697655499690a878811",
      "blockNumber": "0x60318c",
      "gasUsed": "0x8c2d",
      "effectiveGasPrice": "0x4e108560",
      "from": "0x633adfb3430b96238c9fb7026195d1d5b0889ea6",
      "to": "0x1c7d4b196cb0c7b01d743fbc6116a902379c7238",
      "contractAddress": null
    },
    {
      "status": "0x1",
      "cumulativeGasUsed": "0x8104fa",
      "logs": [
        {
          "address": "0xfff9976782d46cc05630d1f6ebab18b2324d6b14",
          "topics": [
            "0x8c5be1e5ebec7d5bd14f71427d1e84f3dd0314c0f7b2291e5b200ac8c7c3b925",
            "0x000000000000000000000000633adfb3430b96238c9fb7026195d1d5b0889ea6",
            "0x00000000000000000000000061d810c745e3cfa17659a64d68824137c7b9625e"
          ],
          "data": "0xffffffffffffffffffffffffffffffffffffffffffffffffffffffffffffffff",
          "blockHash": "0x2d4008f6ca0a7f82ca52762b7a4054fe7ce18fade1052697655499690a878811",
          "blockNumber": "0x60318c",
          "transactionHash": "0x0016cd00bb9adddfdbf5e0552864ef41d8a4c8246a8cc1ba3d575b3c6733633b",
          "transactionIndex": "0x48",
          "logIndex": "0x6c",
          "removed": false
        }
      ],
      "logsBloom": "0x00000000000000000000000000000000000000000000000000000000000000000000000000000000000000000000000000000000000000000000000000200000000000000000000000000000000000000000000000000040000000000000000000000000000000000000000000000000000000200000000000000000000000000040000000000000000000000000000000000000000000000000000000000000020020000000000000000004000000000000000000000000000000000000000000000000000000000002000000000000010000000000000000000000000000000010000000000080001000000000000000000000000000000000000000000000",
      "type": "0x2",
      "transactionHash": "0x0016cd00bb9adddfdbf5e0552864ef41d8a4c8246a8cc1ba3d575b3c6733633b",
      "transactionIndex": "0x48",
      "blockHash": "0x2d4008f6ca0a7f82ca52762b7a4054fe7ce18fade1052697655499690a878811",
      "blockNumber": "0x60318c",
      "gasUsed": "0x6760",
      "effectiveGasPrice": "0x4e108560",
      "from": "0x633adfb3430b96238c9fb7026195d1d5b0889ea6",
      "to": "0xfff9976782d46cc05630d1f6ebab18b2324d6b14",
      "contractAddress": null
    },
    {
      "status": "0x1",
      "cumulativeGasUsed": "0x8332a8",
      "logs": [
        {
          "address": "0x61d810c745e3cfa17659a64d68824137c7b9625e",
          "topics": [
            "0x40e9cecb9f5f1f1c5b9c97dec2917b7ee92e57ba5563708daca94dd84ad7112f",
            "0xabdb9820d36431e092c155f7151c4c781f09fb4e1b7894fa918a0aadcac87e16"
          ],
          "data": "0x0000000000000000000000006f41d083b4c66aadb6b4422b8b1de65d6177324affffffffffffffffffffffffffffffffffffffffffffffffffffffffffffd8f000000000000000000000000000000000000000000000000000000000000024e00000000000000000000000000000000000000000f8bf459195955522dac301ff00000000000000000000000000000000000000000000000000000000017d7840fffffffffffffffffffffffffffffffffffffffffffffffffffffffffffffdc100000000000000000000000000000000000000000000000000000000000001f4",
          "blockHash": "0x2d4008f6ca0a7f82ca52762b7a4054fe7ce18fade1052697655499690a878811",
          "blockNumber": "0x60318c",
          "transactionHash": "0x3174526483da10328f03ef5cdb71f29c25b65dbbf89af6d067df805055897573",
          "transactionIndex": "0x49",
          "logIndex": "0x6d",
          "removed": false
        },
        {
          "address": "0x1c7d4b196cb0c7b01d743fbc6116a902379c7238",
          "topics": [
            "0xddf252ad1be2c89b69c2b068fc378daa952ba7f163c4a11628f55a4df523b3ef",
            "0x000000000000000000000000633adfb3430b96238c9fb7026195d1d5b0889ea6",
            "0x00000000000000000000000061d810c745e3cfa17659a64d68824137c7b9625e"
          ],
          "data": "0x0000000000000000000000000000000000000000000000000000000000002710",
          "blockHash": "0x2d4008f6ca0a7f82ca52762b7a4054fe7ce18fade1052697655499690a878811",
          "blockNumber": "0x60318c",
          "transactionHash": "0x3174526483da10328f03ef5cdb71f29c25b65dbbf89af6d067df805055897573",
          "transactionIndex": "0x49",
          "logIndex": "0x6e",
          "removed": false
        },
        {
          "address": "0xfff9976782d46cc05630d1f6ebab18b2324d6b14",
          "topics": [
            "0xddf252ad1be2c89b69c2b068fc378daa952ba7f163c4a11628f55a4df523b3ef",
            "0x00000000000000000000000061d810c745e3cfa17659a64d68824137c7b9625e",
            "0x000000000000000000000000633adfb3430b96238c9fb7026195d1d5b0889ea6"
          ],
          "data": "0x00000000000000000000000000000000000000000000000000000000000024e0",
          "blockHash": "0x2d4008f6ca0a7f82ca52762b7a4054fe7ce18fade1052697655499690a878811",
          "blockNumber": "0x60318c",
          "transactionHash": "0x3174526483da10328f03ef5cdb71f29c25b65dbbf89af6d067df805055897573",
          "transactionIndex": "0x49",
          "logIndex": "0x6f",
          "removed": false
        }
      ],
      "logsBloom": "0x00000000000000000000000000000000000000000000000000000000000200000000000000000000000000000000000000000000040000000000000000000000000000000000000000000008000000000001000000000060000000000000000000000000000000000000000000000000000000200000000000000010000000000040000000100000000000000000000000000004000000000000000100000000000020000000000000000004000000000000000000000000000000000000000000000002000000000002000000000100010000000000000000000000000000000000000000000080005010000000000000000000001000000200000000000000",
      "type": "0x2",
      "transactionHash": "0x3174526483da10328f03ef5cdb71f29c25b65dbbf89af6d067df805055897573",
      "transactionIndex": "0x49",
      "blockHash": "0x2d4008f6ca0a7f82ca52762b7a4054fe7ce18fade1052697655499690a878811",
      "blockNumber": "0x60318c",
      "gasUsed": "0x22dae",
      "effectiveGasPrice": "0x4e108560",
      "from": "0x633adfb3430b96238c9fb7026195d1d5b0889ea6",
      "to": "0x6f41d083b4c66aadb6b4422b8b1de65d6177324a",
      "contractAddress": null
    }
  ],
  "libraries": [],
  "pending": [],
  "returns": {},
  "timestamp": 1720892788,
  "chain": 11155111,
  "commit": "d02f53f"
}