{
  "transactions": [
    {
      "hash": "0x6bc95f444cbe31d9a7b2d5ff5e848f065ecb57e20f5aff5afa33269424dc1f64",
      "transactionType": "CALL",
      "contractName": null,
      "contractAddress": "0x1c7d4b196cb0c7b01d743fbc6116a902379c7238",
      "function": "approve(address,uint256)",
      "arguments": [
        "0x8994D977ffd78f69f39EDC51d1C130F6371f62aB",
        "115792089237316195423570985008687907853269984665640564039457584007913129639935"
      ],
      "transaction": {
        "from": "0x633adfb3430b96238c9fb7026195d1d5b0889ea6",
        "to": "0x1c7d4b196cb0c7b01d743fbc6116a902379c7238",
        "gas": "0xc19d",
        "value": "0x0",
        "input": "0x095ea7b30000000000000000000000008994d977ffd78f69f39edc51d1c130f6371f62abffffffffffffffffffffffffffffffffffffffffffffffffffffffffffffffff",
        "nonce": "0x164",
        "chainId": "0xaa36a7"
      },
      "additionalContracts": [],
      "isFixedGasLimit": false
    },
    {
      "hash": "0xc92a36ce8665c168871104ad488575ac58ede3ae889de2bea2f51f09bde06ecb",
      "transactionType": "CALL",
      "contractName": null,
      "contractAddress": "0xfff9976782d46cc05630d1f6ebab18b2324d6b14",
      "function": "approve(address,uint256)",
      "arguments": [
        "0x8994D977ffd78f69f39EDC51d1C130F6371f62aB",
        "115792089237316195423570985008687907853269984665640564039457584007913129639935"
      ],
      "transaction": {
        "from": "0x633adfb3430b96238c9fb7026195d1d5b0889ea6",
        "to": "0xfff9976782d46cc05630d1f6ebab18b2324d6b14",
        "gas": "0x8ec9",
        "value": "0x0",
        "input": "0x095ea7b30000000000000000000000008994d977ffd78f69f39edc51d1c130f6371f62abffffffffffffffffffffffffffffffffffffffffffffffffffffffffffffffff",
        "nonce": "0x165",
        "chainId": "0xaa36a7"
      },
      "additionalContracts": [],
      "isFixedGasLimit": false
    },
    {
      "hash": "0x637bea3ae0f10d0d43db306de2b0d7504ca75192c6c331874e3fe5f444da13b2",
      "transactionType": "CALL",
      "contractName": null,
      "contractAddress": "0x1c7d4b196cb0c7b01d743fbc6116a902379c7238",
      "function": "approve(address,uint256)",
      "arguments": [
        "0x9C430DBdf1936AA36154e2046bb91C065Aa0107B",
        "115792089237316195423570985008687907853269984665640564039457584007913129639935"
      ],
      "transaction": {
        "from": "0x633adfb3430b96238c9fb7026195d1d5b0889ea6",
        "to": "0x1c7d4b196cb0c7b01d743fbc6116a902379c7238",
        "gas": "0xc19d",
        "value": "0x0",
        "input": "0x095ea7b30000000000000000000000009c430dbdf1936aa36154e2046bb91c065aa0107bffffffffffffffffffffffffffffffffffffffffffffffffffffffffffffffff",
        "nonce": "0x166",
        "chainId": "0xaa36a7"
      },
      "additionalContracts": [],
      "isFixedGasLimit": false
    },
    {
      "hash": "0x9caca26fb34b5502580226ec7bf0853782fb10631be1b2c22814b308e4d91943",
      "transactionType": "CALL",
      "contractName": null,
      "contractAddress": "0xfff9976782d46cc05630d1f6ebab18b2324d6b14",
      "function": "approve(address,uint256)",
      "arguments": [
        "0x9C430DBdf1936AA36154e2046bb91C065Aa0107B",
        "115792089237316195423570985008687907853269984665640564039457584007913129639935"
      ],
      "transaction": {
        "from": "0x633adfb3430b96238c9fb7026195d1d5b0889ea6",
        "to": "0xfff9976782d46cc05630d1f6ebab18b2324d6b14",
        "gas": "0x8ec9",
        "value": "0x0",
        "input": "0x095ea7b30000000000000000000000009c430dbdf1936aa36154e2046bb91c065aa0107bffffffffffffffffffffffffffffffffffffffffffffffffffffffffffffffff",
        "nonce": "0x167",
        "chainId": "0xaa36a7"
      },
      "additionalContracts": [],
      "isFixedGasLimit": false
    },
    {
      "hash": "0x5eddb6adf418a1db891a7cde01de9409359579a84ef36420a254e4226aa62e6c",
      "transactionType": "CALL",
      "contractName": null,
      "contractAddress": "0x8994d977ffd78f69f39edc51d1c130f6371f62ab",
      "function": "swap((address,address,uint24,int24,address),(bool,int256,uint160),(bool,bool),bytes)",
      "arguments": [
        "(0x1c7D4B196Cb0C7B01d743Fbc6116a902379C7238, 0xfFf9976782d46CC05630D1f6eBAb18b2324d6B14, 500, 10, 0x0000000000000000000000000000000000000000)",
        "(false, 1000000, 1461446703485210103287273052203988822378723970341)",
        "(false, false)",
        "0x"
      ],
      "transaction": {
        "from": "0x633adfb3430b96238c9fb7026195d1d5b0889ea6",
        "to": "0x8994d977ffd78f69f39edc51d1c130f6371f62ab",
        "gas": "0x2d656",
        "value": "0x0",
        "input": "0x2229d0b40000000000000000000000001c7d4b196cb0c7b01d743fbc6116a902379c7238000000000000000000000000fff9976782d46cc05630d1f6ebab18b2324d6b1400000000000000000000000000000000000000000000000000000000000001f4000000000000000000000000000000000000000000000000000000000000000a0000000000000000000000000000000000000000000000000000000000000000000000000000000000000000000000000000000000000000000000000000000000000000000000000000000000000000000000000000000000000000000f4240000000000000000000000000fffd8963efd1fc6a506488495d951d5263988d250000000000000000000000000000000000000000000000000000000000000000000000000000000000000000000000000000000000000000000000000000000000000000000000000000000000000000000000000000000000000000000001600000000000000000000000000000000000000000000000000000000000000000",
        "nonce": "0x168",
        "chainId": "0xaa36a7"
      },
      "additionalContracts": [],
      "isFixedGasLimit": false
    }
  ],
  "receipts": [
    {
      "status": "0x1",
      "cumulativeGasUsed": "0x100eecc",
      "logs": [
        {
          "address": "0x1c7d4b196cb0c7b01d743fbc6116a902379c7238",
          "topics": [
            "0x8c5be1e5ebec7d5bd14f71427d1e84f3dd0314c0f7b2291e5b200ac8c7c3b925",
            "0x000000000000000000000000633adfb3430b96238c9fb7026195d1d5b0889ea6",
            "0x0000000000000000000000008994d977ffd78f69f39edc51d1c130f6371f62ab"
          ],
          "data": "0xffffffffffffffffffffffffffffffffffffffffffffffffffffffffffffffff",
          "blockHash": "0xa2abf13698710462035f766659b898060363001c022c06898db5728de7ac09ea",
          "blockNumber": "0x603a4c",
          "transactionHash": "0x6bc95f444cbe31d9a7b2d5ff5e848f065ecb57e20f5aff5afa33269424dc1f64",
          "transactionIndex": "0x29",
          "logIndex": "0x97",
          "removed": false
        }
      ],
      "logsBloom": "0x00000000000000000000000000000000000000000000002000000000000200000000000000000000000000000000000000000000000000000000000000200000000000000000000000000000000000000000000000000000000000000000000000000000000000000000000000000000000000200000000000000000000000000000000000100000000000000000000000000000000000000000000000000000020000000000000000000000000000000000000800000000000000000000000000000000000000000000000000000000010000000000000000000000000000000010000000000080000010000000000000000000000000040000000000000000",
      "type": "0x2",
      "transactionHash": "0x6bc95f444cbe31d9a7b2d5ff5e848f065ecb57e20f5aff5afa33269424dc1f64",
      "transactionIndex": "0x29",
      "blockHash": "0xa2abf13698710462035f766659b898060363001c022c06898db5728de7ac09ea",
      "blockNumber": "0x603a4c",
      "gasUsed": "0x8c2d",
      "effectiveGasPrice": "0x65f2590b",
      "from": "0x633adfb3430b96238c9fb7026195d1d5b0889ea6",
      "to": "0x1c7d4b196cb0c7b01d743fbc6116a902379c7238",
      "contractAddress": null
    },
    {
      "status": "0x1",
      "cumulativeGasUsed": "0x101562c",
      "logs": [
        {
          "address": "0xfff9976782d46cc05630d1f6ebab18b2324d6b14",
          "topics": [
            "0x8c5be1e5ebec7d5bd14f71427d1e84f3dd0314c0f7b2291e5b200ac8c7c3b925",
            "0x000000000000000000000000633adfb3430b96238c9fb7026195d1d5b0889ea6",
            "0x0000000000000000000000008994d977ffd78f69f39edc51d1c130f6371f62ab"
          ],
          "data": "0xffffffffffffffffffffffffffffffffffffffffffffffffffffffffffffffff",
          "blockHash": "0xa2abf13698710462035f766659b898060363001c022c06898db5728de7ac09ea",
          "blockNumber": "0x603a4c",
          "transactionHash": "0xc92a36ce8665c168871104ad488575ac58ede3ae889de2bea2f51f09bde06ecb",
          "transactionIndex": "0x2a",
          "logIndex": "0x98",
          "removed": false
        }
      ],
      "logsBloom": "0x00000000000000000000000000000000000000000000002000000000000000000000000000000000000000000000000000000000000000000000000000200000000000000000000000000000000000000000000000000000000000000000000000000000000000000000000000000000000000200000000000000000000000000040000000000000000000000000000000000000000000000000000000000000020020000000000000000000000000000000000800000000000000000000000000000000000000000002000000000000010000000000000000000000000000000010000000000080000000000000000000000000000000040000000000000000",
      "type": "0x2",
      "transactionHash": "0xc92a36ce8665c168871104ad488575ac58ede3ae889de2bea2f51f09bde06ecb",
      "transactionIndex": "0x2a",
      "blockHash": "0xa2abf13698710462035f766659b898060363001c022c06898db5728de7ac09ea",
      "blockNumber": "0x603a4c",
      "gasUsed": "0x6760",
      "effectiveGasPrice": "0x65f2590b",
      "from": "0x633adfb3430b96238c9fb7026195d1d5b0889ea6",
      "to": "0xfff9976782d46cc05630d1f6ebab18b2324d6b14",
      "contractAddress": null
    },
    {
      "status": "0x1",
      "cumulativeGasUsed": "0x101e259",
      "logs": [
        {
          "address": "0x1c7d4b196cb0c7b01d743fbc6116a902379c7238",
          "topics": [
            "0x8c5be1e5ebec7d5bd14f71427d1e84f3dd0314c0f7b2291e5b200ac8c7c3b925",
            "0x000000000000000000000000633adfb3430b96238c9fb7026195d1d5b0889ea6",
            "0x0000000000000000000000009c430dbdf1936aa36154e2046bb91c065aa0107b"
          ],
          "data": "0xffffffffffffffffffffffffffffffffffffffffffffffffffffffffffffffff",
          "blockHash": "0xa2abf13698710462035f766659b898060363001c022c06898db5728de7ac09ea",
          "blockNumber": "0x603a4c",
          "transactionHash": "0x637bea3ae0f10d0d43db306de2b0d7504ca75192c6c331874e3fe5f444da13b2",
          "transactionIndex": "0x2b",
          "logIndex": "0x99",
          "removed": false
        }
      ],
      "logsBloom": "0x00000000000000000000000000000000000000000000000000000000000200000000000000000000000001000000000000000000000000000000000000200000000000000000000000000000000000000000000004000000000000000000000000000000000000000000000000000000000000200000000000000000000000000000000000100000000000000000000000000000000000000000000000000000020008000000000000000000000000000000000000000000000000000000000000000000000000000000000000000000010000000000000000000000000000000010000000000080000010000000000000000000000000000000000000000000",
      "type": "0x2",
      "transactionHash": "0x637bea3ae0f10d0d43db306de2b0d7504ca75192c6c331874e3fe5f444da13b2",
      "transactionIndex": "0x2b",
      "blockHash": "0xa2abf13698710462035f766659b898060363001c022c06898db5728de7ac09ea",
      "blockNumber": "0x603a4c",
      "gasUsed": "0x8c2d",
      "effectiveGasPrice": "0x65f2590b",
      "from": "0x633adfb3430b96238c9fb7026195d1d5b0889ea6",
      "to": "0x1c7d4b196cb0c7b01d743fbc6116a902379c7238",
      "contractAddress": null
    },
    {
      "status": "0x1",
      "cumulativeGasUsed": "0x10249b9",
      "logs": [
        {
          "address": "0xfff9976782d46cc05630d1f6ebab18b2324d6b14",
          "topics": [
            "0x8c5be1e5ebec7d5bd14f71427d1e84f3dd0314c0f7b2291e5b200ac8c7c3b925",
            "0x000000000000000000000000633adfb3430b96238c9fb7026195d1d5b0889ea6",
            "0x0000000000000000000000009c430dbdf1936aa36154e2046bb91c065aa0107b"
          ],
          "data": "0xffffffffffffffffffffffffffffffffffffffffffffffffffffffffffffffff",
          "blockHash": "0xa2abf13698710462035f766659b898060363001c022c06898db5728de7ac09ea",
          "blockNumber": "0x603a4c",
          "transactionHash": "0x9caca26fb34b5502580226ec7bf0853782fb10631be1b2c22814b308e4d91943",
          "transactionIndex": "0x2c",
          "logIndex": "0x9a",
          "removed": false
        }
      ],
      "logsBloom": "0x00000000000000000000000000000000000000000000000000000000000000000000000000000000000001000000000000000000000000000000000000200000000000000000000000000000000000000000000004000000000000000000000000000000000000000000000000000000000000200000000000000000000000000040000000000000000000000000000000000000000000000000000000000000020028000000000000000000000000000000000000000000000000000000000000000000000000000002000000000000010000000000000000000000000000000010000000000080000000000000000000000000000000000000000000000000",
      "type": "0x2",
      "transactionHash": "0x9caca26fb34b5502580226ec7bf0853782fb10631be1b2c22814b308e4d91943",
      "transactionIndex": "0x2c",
      "blockHash": "0xa2abf13698710462035f766659b898060363001c022c06898db5728de7ac09ea",
      "blockNumber": "0x603a4c",
      "gasUsed": "0x6760",
      "effectiveGasPrice": "0x65f2590b",
      "from": "0x633adfb3430b96238c9fb7026195d1d5b0889ea6",
      "to": "0xfff9976782d46cc05630d1f6ebab18b2324d6b14",
      "contractAddress": null
    },
    {
      "status": "0x1",
      "cumulativeGasUsed": "0x1045795",
      "logs": [
        {
          "address": "0x9c430dbdf1936aa36154e2046bb91c065aa0107b",
          "topics": [
            "0x40e9cecb9f5f1f1c5b9c97dec2917b7ee92e57ba5563708daca94dd84ad7112f",
            "0xabdb9820d36431e092c155f7151c4c781f09fb4e1b7894fa918a0aadcac87e16"
          ],
          "data": "0x0000000000000000000000008994d977ffd78f69f39edc51d1c130f6371f62ab00000000000000000000000000000000000000000000000000000000000f4240fffffffffffffffffffffffffffffffffffffffffffffffffffffffffff0d1400000000000000000000000000000000000000000ff5c24c7ca81d6f482c9cafb0000000000000000000000000000000000000000000000000000000077359400ffffffffffffffffffffffffffffffffffffffffffffffffffffffffffffffcd00000000000000000000000000000000000000000000000000000000000001f4",
          "blockHash": "0xa2abf13698710462035f766659b898060363001c022c06898db5728de7ac09ea",
          "blockNumber": "0x603a4c",
          "transactionHash": "0x5eddb6adf418a1db891a7cde01de9409359579a84ef36420a254e4226aa62e6c",
          "transactionIndex": "0x2d",
          "logIndex": "0x9b",
          "removed": false
        },
        {
          "address": "0xfff9976782d46cc05630d1f6ebab18b2324d6b14",
          "topics": [
            "0xddf252ad1be2c89b69c2b068fc378daa952ba7f163c4a11628f55a4df523b3ef",
            "0x000000000000000000000000633adfb3430b96238c9fb7026195d1d5b0889ea6",
            "0x0000000000000000000000009c430dbdf1936aa36154e2046bb91c065aa0107b"
          ],
          "data": "0x00000000000000000000000000000000000000000000000000000000000f2ec0",
          "blockHash": "0xa2abf13698710462035f766659b898060363001c022c06898db5728de7ac09ea",
          "blockNumber": "0x603a4c",
          "transactionHash": "0x5eddb6adf418a1db891a7cde01de9409359579a84ef36420a254e4226aa62e6c",
          "transactionIndex": "0x2d",
          "logIndex": "0x9c",
          "removed": false
        },
        {
          "address": "0x1c7d4b196cb0c7b01d743fbc6116a902379c7238",
          "topics": [
            "0xddf252ad1be2c89b69c2b068fc378daa952ba7f163c4a11628f55a4df523b3ef",
            "0x0000000000000000000000009c430dbdf1936aa36154e2046bb91c065aa0107b",
            "0x000000000000000000000000633adfb3430b96238c9fb7026195d1d5b0889ea6"
          ],
          "data": "0x00000000000000000000000000000000000000000000000000000000000f4240",
          "blockHash": "0xa2abf13698710462035f766659b898060363001c022c06898db5728de7ac09ea",
          "blockNumber": "0x603a4c",
          "transactionHash": "0x5eddb6adf418a1db891a7cde01de9409359579a84ef36420a254e4226aa62e6c",
          "transactionIndex": "0x2d",
          "logIndex": "0x9d",
          "removed": false
        }
      ],
      "logsBloom": "0x00000000000000000000000000000000000000001000000000000000000200000200000000000000000001000000000000000000040000000000000000000000000000000000000000000008000000000000000004000020000000000000000000000000000000000000000000000000000000200000000000000010000000000040000000100000000040000000000000000000000000000000000100000000000028000000000000000000000000000000000000000000000000000000000000000002000000000002000000000100010000000000000000000000000000000000000000000080004010000000000000000000000000000200000000000000",
      "type": "0x2",
      "transactionHash": "0x5eddb6adf418a1db891a7cde01de9409359579a84ef36420a254e4226aa62e6c",
      "transactionIndex": "0x2d",
      "blockHash": "0xa2abf13698710462035f766659b898060363001c022c06898db5728de7ac09ea",
      "blockNumber": "0x603a4c",
      "gasUsed": "0x20ddc",
      "effectiveGasPrice": "0x65f2590b",
      "from": "0x633adfb3430b96238c9fb7026195d1d5b0889ea6",
      "to": "0x8994d977ffd78f69f39edc51d1c130f6371f62ab",
      "contractAddress": null
    }
  ],
  "libraries": [],
  "pending": [],
  "returns": {},
  "timestamp": 1720924862,
  "chain": 11155111,
  "commit": "371f960"
}