{
  "transactions": [
    {
      "hash": "0x9bb353804a03583af8c359a5d4a16aa9a510eff661093fba058535877bd73d1a",
      "transactionType": "CALL",
      "contractName": null,
      "contractAddress": "0x1c7d4b196cb0c7b01d743fbc6116a902379c7238",
      "function": "approve(address,uint256)",
      "arguments": [
        "0x8994D977ffd78f69f39EDC51d1C130F6371f62aB",
        "115792089237316195423570985008687907853269984665640564039457584007913129639935"
      ],
      "transaction": {
        "from": "0x633adfb3430b96238c9fb7026195d1d5b0889ea6",
        "to": "0x1c7d4b196cb0c7b01d743fbc6116a902379c7238",
        "gas": "0xd0b8",
        "value": "0x0",
        "input": "0x095ea7b30000000000000000000000008994d977ffd78f69f39edc51d1c130f6371f62abffffffffffffffffffffffffffffffffffffffffffffffffffffffffffffffff",
        "nonce": "0x15e",
        "chainId": "0xaa36a7"
      },
      "additionalContracts": [],
      "isFixedGasLimit": false
    },
    {
      "hash": "0x034f4989f922a218b1b0576ff352ce22134215b5401740b65e9592deb9c70137",
      "transactionType": "CALL",
      "contractName": null,
      "contractAddress": "0xfff9976782d46cc05630d1f6ebab18b2324d6b14",
      "function": "approve(address,uint256)",
      "arguments": [
        "0x8994D977ffd78f69f39EDC51d1C130F6371f62aB",
        "115792089237316195423570985008687907853269984665640564039457584007913129639935"
      ],
      "transaction": {
        "from": "0x633adfb3430b96238c9fb7026195d1d5b0889ea6",
        "to": "0xfff9976782d46cc05630d1f6ebab18b2324d6b14",
        "gas": "0x8ec9",
        "value": "0x0",
        "input": "0x095ea7b30000000000000000000000008994d977ffd78f69f39edc51d1c130f6371f62abffffffffffffffffffffffffffffffffffffffffffffffffffffffffffffffff",
        "nonce": "0x15f",
        "chainId": "0xaa36a7"
      },
      "additionalContracts": [],
      "isFixedGasLimit": false
    },
    {
      "hash": "0x9e447b965cbe97be31e3aaa4bbe29b94a839f601b12adedb7e1b2168db261a05",
      "transactionType": "CALL",
      "contractName": null,
      "contractAddress": "0x1c7d4b196cb0c7b01d743fbc6116a902379c7238",
      "function": "approve(address,uint256)",
      "arguments": [
        "0x9C430DBdf1936AA36154e2046bb91C065Aa0107B",
        "115792089237316195423570985008687907853269984665640564039457584007913129639935"
      ],
      "transaction": {
        "from": "0x633adfb3430b96238c9fb7026195d1d5b0889ea6",
        "to": "0x1c7d4b196cb0c7b01d743fbc6116a902379c7238",
        "gas": "0xc19d",
        "value": "0x0",
        "input": "0x095ea7b30000000000000000000000009c430dbdf1936aa36154e2046bb91c065aa0107bffffffffffffffffffffffffffffffffffffffffffffffffffffffffffffffff",
        "nonce": "0x160",
        "chainId": "0xaa36a7"
      },
      "additionalContracts": [],
      "isFixedGasLimit": false
    },
    {
      "hash": "0x37772cbba42d43338775a15ef04de185e04f23209cf8cecc55e1e0b8d89b1f6b",
      "transactionType": "CALL",
      "contractName": null,
      "contractAddress": "0xfff9976782d46cc05630d1f6ebab18b2324d6b14",
      "function": "approve(address,uint256)",
      "arguments": [
        "0x9C430DBdf1936AA36154e2046bb91C065Aa0107B",
        "115792089237316195423570985008687907853269984665640564039457584007913129639935"
      ],
      "transaction": {
        "from": "0x633adfb3430b96238c9fb7026195d1d5b0889ea6",
        "to": "0xfff9976782d46cc05630d1f6ebab18b2324d6b14",
        "gas": "0x8ec9",
        "value": "0x0",
        "input": "0x095ea7b30000000000000000000000009c430dbdf1936aa36154e2046bb91c065aa0107bffffffffffffffffffffffffffffffffffffffffffffffffffffffffffffffff",
        "nonce": "0x161",
        "chainId": "0xaa36a7"
      },
      "additionalContracts": [],
      "isFixedGasLimit": false
    },
    {
      "hash": "0x883e214d48126d83c5ce79a50f0e4688660a5c613d8543c0300632e4dc00af3a",
      "transactionType": "CALL",
      "contractName": null,
      "contractAddress": "0x8994d977ffd78f69f39edc51d1c130f6371f62ab",
      "function": "swap((address,address,uint24,int24,address),(bool,int256,uint160),(bool,bool),bytes)",
      "arguments": [
        "(0x1c7D4B196Cb0C7B01d743Fbc6116a902379C7238, 0xfFf9976782d46CC05630D1f6eBAb18b2324d6B14, 500, 10, 0x0000000000000000000000000000000000000000)",
        "(false, 1000000, 1461446703485210103287273052203988822378723970341)",
        "(false, false)",
        "0x"
      ],
      "transaction": {
        "from": "0x633adfb3430b96238c9fb7026195d1d5b0889ea6",
        "to": "0x8994d977ffd78f69f39edc51d1c130f6371f62ab",
        "gas": "0x30125",
        "value": "0x0",
        "input": "0x2229d0b40000000000000000000000001c7d4b196cb0c7b01d743fbc6116a902379c7238000000000000000000000000fff9976782d46cc05630d1f6ebab18b2324d6b1400000000000000000000000000000000000000000000000000000000000001f4000000000000000000000000000000000000000000000000000000000000000a0000000000000000000000000000000000000000000000000000000000000000000000000000000000000000000000000000000000000000000000000000000000000000000000000000000000000000000000000000000000000000000f4240000000000000000000000000fffd8963efd1fc6a506488495d951d5263988d250000000000000000000000000000000000000000000000000000000000000000000000000000000000000000000000000000000000000000000000000000000000000000000000000000000000000000000000000000000000000000000001600000000000000000000000000000000000000000000000000000000000000000",
        "nonce": "0x162",
        "chainId": "0xaa36a7"
      },
      "additionalContracts": [],
      "isFixedGasLimit": false
    }
  ],
  "receipts": [
    {
      "status": "0x1",
      "cumulativeGasUsed": "0xe12ef7",
      "logs": [
        {
          "address": "0x1c7d4b196cb0c7b01d743fbc6116a902379c7238",
          "topics": [
            "0x8c5be1e5ebec7d5bd14f71427d1e84f3dd0314c0f7b2291e5b200ac8c7c3b925",
            "0x000000000000000000000000633adfb3430b96238c9fb7026195d1d5b0889ea6",
            "0x0000000000000000000000008994d977ffd78f69f39edc51d1c130f6371f62ab"
          ],
          "data": "0xffffffffffffffffffffffffffffffffffffffffffffffffffffffffffffffff",
          "blockHash": "0x786a75259cd66e71d88f0a9aab880adf2d52f5249f85e8a30481936b7432c608",
          "blockNumber": "0x60397e",
          "transactionHash": "0x9bb353804a03583af8c359a5d4a16aa9a510eff661093fba058535877bd73d1a",
          "transactionIndex": "0x57",
          "logIndex": "0x9d",
          "removed": false
        }
      ],
      "logsBloom": "0x00000000000000000000000000000000000000000000002000000000000200000000000000000000000000000000000000000000000000000000000000200000000000000000000000000000000000000000000000000000000000000000000000000000000000000000000000000000000000200000000000000000000000000000000000100000000000000000000000000000000000000000000000000000020000000000000000000000000000000000000800000000000000000000000000000000000000000000000000000000010000000000000000000000000000000010000000000080000010000000000000000000000000040000000000000000",
      "type": "0x2",
      "transactionHash": "0x9bb353804a03583af8c359a5d4a16aa9a510eff661093fba058535877bd73d1a",
      "transactionIndex": "0x57",
      "blockHash": "0x786a75259cd66e71d88f0a9aab880adf2d52f5249f85e8a30481936b7432c608",
      "blockNumber": "0x60397e",
      "gasUsed": "0x971d",
      "effectiveGasPrice": "0x2e3d2c82",
      "from": "0x633adfb3430b96238c9fb7026195d1d5b0889ea6",
      "to": "0x1c7d4b196cb0c7b01d743fbc6116a902379c7238",
      "contractAddress": null
    },
    {
      "status": "0x1",
      "cumulativeGasUsed": "0xe19657",
      "logs": [
        {
          "address": "0xfff9976782d46cc05630d1f6ebab18b2324d6b14",
          "topics": [
            "0x8c5be1e5ebec7d5bd14f71427d1e84f3dd0314c0f7b2291e5b200ac8c7c3b925",
            "0x000000000000000000000000633adfb3430b96238c9fb7026195d1d5b0889ea6",
            "0x0000000000000000000000008994d977ffd78f69f39edc51d1c130f6371f62ab"
          ],
          "data": "0xffffffffffffffffffffffffffffffffffffffffffffffffffffffffffffffff",
          "blockHash": "0x786a75259cd66e71d88f0a9aab880adf2d52f5249f85e8a30481936b7432c608",
          "blockNumber": "0x60397e",
          "transactionHash": "0x034f4989f922a218b1b0576ff352ce22134215b5401740b65e9592deb9c70137",
          "transactionIndex": "0x58",
          "logIndex": "0x9e",
          "removed": false
        }
      ],
      "logsBloom": "0x00000000000000000000000000000000000000000000002000000000000000000000000000000000000000000000000000000000000000000000000000200000000000000000000000000000000000000000000000000000000000000000000000000000000000000000000000000000000000200000000000000000000000000040000000000000000000000000000000000000000000000000000000000000020020000000000000000000000000000000000800000000000000000000000000000000000000000002000000000000010000000000000000000000000000000010000000000080000000000000000000000000000000040000000000000000",
      "type": "0x2",
      "transactionHash": "0x034f4989f922a218b1b0576ff352ce22134215b5401740b65e9592deb9c70137",
      "transactionIndex": "0x58",
      "blockHash": "0x786a75259cd66e71d88f0a9aab880adf2d52f5249f85e8a30481936b7432c608",
      "blockNumber": "0x60397e",
      "gasUsed": "0x6760",
      "effectiveGasPrice": "0x2e3d2c82",
      "from": "0x633adfb3430b96238c9fb7026195d1d5b0889ea6",
      "to": "0xfff9976782d46cc05630d1f6ebab18b2324d6b14",
      "contractAddress": null
    },
    {
      "status": "0x1",
      "cumulativeGasUsed": "0xe22284",
      "logs": [
        {
          "address": "0x1c7d4b196cb0c7b01d743fbc6116a902379c7238",
          "topics": [
            "0x8c5be1e5ebec7d5bd14f71427d1e84f3dd0314c0f7b2291e5b200ac8c7c3b925",
            "0x000000000000000000000000633adfb3430b96238c9fb7026195d1d5b0889ea6",
            "0x0000000000000000000000009c430dbdf1936aa36154e2046bb91c065aa0107b"
          ],
          "data": "0xffffffffffffffffffffffffffffffffffffffffffffffffffffffffffffffff",
          "blockHash": "0x786a75259cd66e71d88f0a9aab880adf2d52f5249f85e8a30481936b7432c608",
          "blockNumber": "0x60397e",
          "transactionHash": "0x9e447b965cbe97be31e3aaa4bbe29b94a839f601b12adedb7e1b2168db261a05",
          "transactionIndex": "0x59",
          "logIndex": "0x9f",
          "removed": false
        }
      ],
      "logsBloom": "0x00000000000000000000000000000000000000000000000000000000000200000000000000000000000001000000000000000000000000000000000000200000000000000000000000000000000000000000000004000000000000000000000000000000000000000000000000000000000000200000000000000000000000000000000000100000000000000000000000000000000000000000000000000000020008000000000000000000000000000000000000000000000000000000000000000000000000000000000000000000010000000000000000000000000000000010000000000080000010000000000000000000000000000000000000000000",
      "type": "0x2",
      "transactionHash": "0x9e447b965cbe97be31e3aaa4bbe29b94a839f601b12adedb7e1b2168db261a05",
      "transactionIndex": "0x59",
      "blockHash": "0x786a75259cd66e71d88f0a9aab880adf2d52f5249f85e8a30481936b7432c608",
      "blockNumber": "0x60397e",
      "gasUsed": "0x8c2d",
      "effectiveGasPrice": "0x2e3d2c82",
      "from": "0x633adfb3430b96238c9fb7026195d1d5b0889ea6",
      "to": "0x1c7d4b196cb0c7b01d743fbc6116a902379c7238",
      "contractAddress": null
    },
    {
      "status": "0x1",
      "cumulativeGasUsed": "0xe289e4",
      "logs": [
        {
          "address": "0xfff9976782d46cc05630d1f6ebab18b2324d6b14",
          "topics": [
            "0x8c5be1e5ebec7d5bd14f71427d1e84f3dd0314c0f7b2291e5b200ac8c7c3b925",
            "0x000000000000000000000000633adfb3430b96238c9fb7026195d1d5b0889ea6",
            "0x0000000000000000000000009c430dbdf1936aa36154e2046bb91c065aa0107b"
          ],
          "data": "0xffffffffffffffffffffffffffffffffffffffffffffffffffffffffffffffff",
          "blockHash": "0x786a75259cd66e71d88f0a9aab880adf2d52f5249f85e8a30481936b7432c608",
          "blockNumber": "0x60397e",
          "transactionHash": "0x37772cbba42d43338775a15ef04de185e04f23209cf8cecc55e1e0b8d89b1f6b",
          "transactionIndex": "0x5a",
          "logIndex": "0xa0",
          "removed": false
        }
      ],
      "logsBloom": "0x00000000000000000000000000000000000000000000000000000000000000000000000000000000000001000000000000000000000000000000000000200000000000000000000000000000000000000000000004000000000000000000000000000000000000000000000000000000000000200000000000000000000000000040000000000000000000000000000000000000000000000000000000000000020028000000000000000000000000000000000000000000000000000000000000000000000000000002000000000000010000000000000000000000000000000010000000000080000000000000000000000000000000000000000000000000",
      "type": "0x2",
      "transactionHash": "0x37772cbba42d43338775a15ef04de185e04f23209cf8cecc55e1e0b8d89b1f6b",
      "transactionIndex": "0x5a",
      "blockHash": "0x786a75259cd66e71d88f0a9aab880adf2d52f5249f85e8a30481936b7432c608",
      "blockNumber": "0x60397e",
      "gasUsed": "0x6760",
      "effectiveGasPrice": "0x2e3d2c82",
      "from": "0x633adfb3430b96238c9fb7026195d1d5b0889ea6",
      "to": "0xfff9976782d46cc05630d1f6ebab18b2324d6b14",
      "contractAddress": null
    },
    {
      "status": "0x1",
      "cumulativeGasUsed": "0xe497ce",
      "logs": [
        {
          "address": "0x9c430dbdf1936aa36154e2046bb91c065aa0107b",
          "topics": [
            "0x40e9cecb9f5f1f1c5b9c97dec2917b7ee92e57ba5563708daca94dd84ad7112f",
            "0xabdb9820d36431e092c155f7151c4c781f09fb4e1b7894fa918a0aadcac87e16"
          ],
          "data": "0x0000000000000000000000008994d977ffd78f69f39edc51d1c130f6371f62ab00000000000000000000000000000000000000000000000000000000000f4240fffffffffffffffffffffffffffffffffffffffffffffffffffffffffff0d70f0000000000000000000000000000000000000000ff3b8e3a62354b9d717d8c80000000000000000000000000000000000000000000000000000000003b9aca00ffffffffffffffffffffffffffffffffffffffffffffffffffffffffffffffc300000000000000000000000000000000000000000000000000000000000001f4",
          "blockHash": "0x786a75259cd66e71d88f0a9aab880adf2d52f5249f85e8a30481936b7432c608",
          "blockNumber": "0x60397e",
          "transactionHash": "0x883e214d48126d83c5ce79a50f0e4688660a5c613d8543c0300632e4dc00af3a",
          "transactionIndex": "0x5b",
          "logIndex": "0xa1",
          "removed": false
        },
        {
          "address": "0xfff9976782d46cc05630d1f6ebab18b2324d6b14",
          "topics": [
            "0xddf252ad1be2c89b69c2b068fc378daa952ba7f163c4a11628f55a4df523b3ef",
            "0x000000000000000000000000633adfb3430b96238c9fb7026195d1d5b0889ea6",
            "0x0000000000000000000000009c430dbdf1936aa36154e2046bb91c065aa0107b"
          ],
          "data": "0x00000000000000000000000000000000000000000000000000000000000f28f1",
          "blockHash": "0x786a75259cd66e71d88f0a9aab880adf2d52f5249f85e8a30481936b7432c608",
          "blockNumber": "0x60397e",
          "transactionHash": "0x883e214d48126d83c5ce79a50f0e4688660a5c613d8543c0300632e4dc00af3a",
          "transactionIndex": "0x5b",
          "logIndex": "0xa2",
          "removed": false
        },
        {
          "address": "0x1c7d4b196cb0c7b01d743fbc6116a902379c7238",
          "topics": [
            "0xddf252ad1be2c89b69c2b068fc378daa952ba7f163c4a11628f55a4df523b3ef",
            "0x0000000000000000000000009c430dbdf1936aa36154e2046bb91c065aa0107b",
            "0x000000000000000000000000633adfb3430b96238c9fb7026195d1d5b0889ea6"
          ],
          "data": "0x00000000000000000000000000000000000000000000000000000000000f4240",
          "blockHash": "0x786a75259cd66e71d88f0a9aab880adf2d52f5249f85e8a30481936b7432c608",
          "blockNumber": "0x60397e",
          "transactionHash": "0x883e214d48126d83c5ce79a50f0e4688660a5c613d8543c0300632e4dc00af3a",
          "transactionIndex": "0x5b",
          "logIndex": "0xa3",
          "removed": false
        }
      ],
      "logsBloom": "0x00000000000000000000000000000000000000001000000000000000000200000200000000000000000001000000000000000000040000000000000000000000000000000000000000000008000000000000000004000020000000000000000000000000000000000000000000000000000000200000000000000010000000000040000000100000000040000000000000000000000000000000000100000000000028000000000000000000000000000000000000000000000000000000000000000002000000000002000000000100010000000000000000000000000000000000000000000080004010000000000000000000000000000200000000000000",
      "type": "0x2",
      "transactionHash": "0x883e214d48126d83c5ce79a50f0e4688660a5c613d8543c0300632e4dc00af3a",
      "transactionIndex": "0x5b",
      "blockHash": "0x786a75259cd66e71d88f0a9aab880adf2d52f5249f85e8a30481936b7432c608",
      "blockNumber": "0x60397e",
      "gasUsed": "0x20dea",
      "effectiveGasPrice": "0x2e3d2c82",
      "from": "0x633adfb3430b96238c9fb7026195d1d5b0889ea6",
      "to": "0x8994d977ffd78f69f39edc51d1c130f6371f62ab",
      "contractAddress": null
    }
  ],
  "libraries": [],
  "pending": [],
  "returns": {},
  "timestamp": 1720921976,
  "chain": 11155111,
  "commit": "371f960"
}