{
  "transactions": [
    {
      "hash": "0x022c331a1d879b774ed93e841138b2c162cad2f98c37ec5fa9bd37ae8c991cb1",
      "transactionType": "CALL",
      "contractName": null,
      "contractAddress": "0x1c7d4b196cb0c7b01d743fbc6116a902379c7238",
      "function": "approve(address,uint256)",
      "arguments": [
        "0x6f41d083B4C66aaDB6b4422B8b1De65d6177324A",
        "115792089237316195423570985008687907853269984665640564039457584007913129639935"
      ],
      "transaction": {
        "from": "0x633adfb3430b96238c9fb7026195d1d5b0889ea6",
        "to": "0x1c7d4b196cb0c7b01d743fbc6116a902379c7238",
        "gas": "0xc19d",
        "value": "0x0",
        "input": "0x095ea7b30000000000000000000000006f41d083b4c66aadb6b4422b8b1de65d6177324affffffffffffffffffffffffffffffffffffffffffffffffffffffffffffffff",
        "nonce": "0xe6",
        "chainId": "0xaa36a7"
      },
      "additionalContracts": [],
      "isFixedGasLimit": false
    },
    {
      "hash": "0xae405ac8ad65efad3c8f9909d70716a864463f927efc5ccfc0cbcbabd88b8460",
      "transactionType": "CALL",
      "contractName": null,
      "contractAddress": "0xfff9976782d46cc05630d1f6ebab18b2324d6b14",
      "function": "approve(address,uint256)",
      "arguments": [
        "0x6f41d083B4C66aaDB6b4422B8b1De65d6177324A",
        "115792089237316195423570985008687907853269984665640564039457584007913129639935"
      ],
      "transaction": {
        "from": "0x633adfb3430b96238c9fb7026195d1d5b0889ea6",
        "to": "0xfff9976782d46cc05630d1f6ebab18b2324d6b14",
        "gas": "0x8ec9",
        "value": "0x0",
        "input": "0x095ea7b30000000000000000000000006f41d083b4c66aadb6b4422b8b1de65d6177324affffffffffffffffffffffffffffffffffffffffffffffffffffffffffffffff",
        "nonce": "0xe7",
        "chainId": "0xaa36a7"
      },
      "additionalContracts": [],
      "isFixedGasLimit": false
    },
    {
      "hash": "0x7f240114b513f146b67ea7228fd94fb20a2acefe76c314db158930a991ee297b",
      "transactionType": "CALL",
      "contractName": null,
      "contractAddress": "0x1c7d4b196cb0c7b01d743fbc6116a902379c7238",
      "function": "approve(address,uint256)",
      "arguments": [
        "0x61d810C745E3cFa17659A64d68824137c7b9625E",
        "115792089237316195423570985008687907853269984665640564039457584007913129639935"
      ],
      "transaction": {
        "from": "0x633adfb3430b96238c9fb7026195d1d5b0889ea6",
        "to": "0x1c7d4b196cb0c7b01d743fbc6116a902379c7238",
        "gas": "0xc19d",
        "value": "0x0",
        "input": "0x095ea7b300000000000000000000000061d810c745e3cfa17659a64d68824137c7b9625effffffffffffffffffffffffffffffffffffffffffffffffffffffffffffffff",
        "nonce": "0xe8",
        "chainId": "0xaa36a7"
      },
      "additionalContracts": [],
      "isFixedGasLimit": false
    },
    {
      "hash": "0x446390a9f681b5c92427c79099492b2c51494be719204e61724f26b030ec2f1a",
      "transactionType": "CALL",
      "contractName": null,
      "contractAddress": "0xfff9976782d46cc05630d1f6ebab18b2324d6b14",
      "function": "approve(address,uint256)",
      "arguments": [
        "0x61d810C745E3cFa17659A64d68824137c7b9625E",
        "115792089237316195423570985008687907853269984665640564039457584007913129639935"
      ],
      "transaction": {
        "from": "0x633adfb3430b96238c9fb7026195d1d5b0889ea6",
        "to": "0xfff9976782d46cc05630d1f6ebab18b2324d6b14",
        "gas": "0x8ec9",
        "value": "0x0",
        "input": "0x095ea7b300000000000000000000000061d810c745e3cfa17659a64d68824137c7b9625effffffffffffffffffffffffffffffffffffffffffffffffffffffffffffffff",
        "nonce": "0xe9",
        "chainId": "0xaa36a7"
      },
      "additionalContracts": [],
      "isFixedGasLimit": false
    },
    {
      "hash": "0x72d7d1f9c3f1e49982cb4515f4372627ceca93527326b7b2dab3a8a78fc61810",
      "transactionType": "CALL",
      "contractName": null,
      "contractAddress": "0x6f41d083b4c66aadb6b4422b8b1de65d6177324a",
      "function": "swap((address,address,uint24,int24,address),(bool,int256,uint160),(bool,bool),bytes)",
      "arguments": [
        "(0x1c7D4B196Cb0C7B01d743Fbc6116a902379C7238, 0xfFf9976782d46CC05630D1f6eBAb18b2324d6B14, 500, 10, 0x0000000000000000000000000000000000000000)",
        "(true, -1000000, 4295128740)",
        "(false, false)",
        "0x"
      ],
      "transaction": {
        "from": "0x633adfb3430b96238c9fb7026195d1d5b0889ea6",
        "to": "0x6f41d083b4c66aadb6b4422b8b1de65d6177324a",
        "gas": "0x31a680",
        "value": "0x0",
        "input": "0x2229d0b40000000000000000000000001c7d4b196cb0c7b01d743fbc6116a902379c7238000000000000000000000000fff9976782d46cc05630d1f6ebab18b2324d6b1400000000000000000000000000000000000000000000000000000000000001f4000000000000000000000000000000000000000000000000000000000000000a00000000000000000000000000000000000000000000000000000000000000000000000000000000000000000000000000000000000000000000000000000001fffffffffffffffffffffffffffffffffffffffffffffffffffffffffff0bdc000000000000000000000000000000000000000000000000000000001000276a40000000000000000000000000000000000000000000000000000000000000000000000000000000000000000000000000000000000000000000000000000000000000000000000000000000000000000000000000000000000000000000001600000000000000000000000000000000000000000000000000000000000000000",
        "nonce": "0xea",
        "chainId": "0xaa36a7"
      },
      "additionalContracts": [],
      "isFixedGasLimit": false
    }
  ],
  "receipts": [
    {
      "status": "0x1",
      "cumulativeGasUsed": "0x10dcf24",
      "logs": [
        {
          "address": "0x1c7d4b196cb0c7b01d743fbc6116a902379c7238",
          "topics": [
            "0x8c5be1e5ebec7d5bd14f71427d1e84f3dd0314c0f7b2291e5b200ac8c7c3b925",
            "0x000000000000000000000000633adfb3430b96238c9fb7026195d1d5b0889ea6",
            "0x0000000000000000000000006f41d083b4c66aadb6b4422b8b1de65d6177324a"
          ],
          "data": "0xffffffffffffffffffffffffffffffffffffffffffffffffffffffffffffffff",
          "blockHash": "0xf88e042f8127f2d0953f91413a80c3325d44129da01d254ce29b754d3f7010d9",
          "blockNumber": "0x602db6",
          "transactionHash": "0x022c331a1d879b774ed93e841138b2c162cad2f98c37ec5fa9bd37ae8c991cb1",
          "transactionIndex": "0x4e",
          "logIndex": "0xbc",
          "removed": false
        }
      ],
      "logsBloom": "0x00000000000000000000000000000000000000000000000000000000000200000000000000000000000000000000000000000000000000000000000000200000000000000000000000000000000000000000000000000000000000000000000000000000000000000000000000000000000000200000002000000000000008000000000000100000000000000000000000000000000000000000000000000000020000000000000000000000000000000000000000000000000000000000000000000000000000000000000000000000010000000000000000000000000000000010000000000080000010000000000000000000000020000000000000000000",
      "type": "0x2",
      "transactionHash": "0x022c331a1d879b774ed93e841138b2c162cad2f98c37ec5fa9bd37ae8c991cb1",
      "transactionIndex": "0x4e",
      "blockHash": "0xf88e042f8127f2d0953f91413a80c3325d44129da01d254ce29b754d3f7010d9",
      "blockNumber": "0x602db6",
      "gasUsed": "0x8c2d",
      "effectiveGasPrice": "0x1b4d21241",
      "from": "0x633adfb3430b96238c9fb7026195d1d5b0889ea6",
      "to": "0x1c7d4b196cb0c7b01d743fbc6116a902379c7238",
      "contractAddress": null
    },
    {
      "status": "0x1",
      "cumulativeGasUsed": "0x10e3684",
      "logs": [
        {
          "address": "0xfff9976782d46cc05630d1f6ebab18b2324d6b14",
          "topics": [
            "0x8c5be1e5ebec7d5bd14f71427d1e84f3dd0314c0f7b2291e5b200ac8c7c3b925",
            "0x000000000000000000000000633adfb3430b96238c9fb7026195d1d5b0889ea6",
            "0x0000000000000000000000006f41d083b4c66aadb6b4422b8b1de65d6177324a"
          ],
          "data": "0xffffffffffffffffffffffffffffffffffffffffffffffffffffffffffffffff",
          "blockHash": "0xf88e042f8127f2d0953f91413a80c3325d44129da01d254ce29b754d3f7010d9",
          "blockNumber": "0x602db6",
          "transactionHash": "0xae405ac8ad65efad3c8f9909d70716a864463f927efc5ccfc0cbcbabd88b8460",
          "transactionIndex": "0x4f",
          "logIndex": "0xbd",
          "removed": false
        }
      ],
      "logsBloom": "0x00000000000000000000000000000000000000000000000000000000000000000000000000000000000000000000000000000000000000000000000000200000000000000000000000000000000000000000000000000000000000000000000000000000000000000000000000000000000000200000002000000000000008000040000000000000000000000000000000000000000000000000000000000000020020000000000000000000000000000000000000000000000000000000000000000000000000000002000000000000010000000000000000000000000000000010000000000080000000000000000000000000000020000000000000000000",
      "type": "0x2",
      "transactionHash": "0xae405ac8ad65efad3c8f9909d70716a864463f927efc5ccfc0cbcbabd88b8460",
      "transactionIndex": "0x4f",
      "blockHash": "0xf88e042f8127f2d0953f91413a80c3325d44129da01d254ce29b754d3f7010d9",
      "blockNumber": "0x602db6",
      "gasUsed": "0x6760",
      "effectiveGasPrice": "0x1b4d21241",
      "from": "0x633adfb3430b96238c9fb7026195d1d5b0889ea6",
      "to": "0xfff9976782d46cc05630d1f6ebab18b2324d6b14",
      "contractAddress": null
    },
    {
      "status": "0x1",
      "cumulativeGasUsed": "0x10ec2b1",
      "logs": [
        {
          "address": "0x1c7d4b196cb0c7b01d743fbc6116a902379c7238",
          "topics": [
            "0x8c5be1e5ebec7d5bd14f71427d1e84f3dd0314c0f7b2291e5b200ac8c7c3b925",
            "0x000000000000000000000000633adfb3430b96238c9fb7026195d1d5b0889ea6",
            "0x00000000000000000000000061d810c745e3cfa17659a64d68824137c7b9625e"
          ],
          "data": "0xffffffffffffffffffffffffffffffffffffffffffffffffffffffffffffffff",
          "blockHash": "0xf88e042f8127f2d0953f91413a80c3325d44129da01d254ce29b754d3f7010d9",
          "blockNumber": "0x602db6",
          "transactionHash": "0x7f240114b513f146b67ea7228fd94fb20a2acefe76c314db158930a991ee297b",
          "transactionIndex": "0x50",
          "logIndex": "0xbe",
          "removed": false
        }
      ],
      "logsBloom": "0x00000000000000000000000000000000000000000000000000000000000200000000000000000000000000000000000000000000000000000000000000200000000000000000000000000000000000000000000000000040000000000000000000000000000000000000000000000000000000200000000000000000000000000000000000100000000000000000000000000000000000000000000000000000020000000000000000000004000000000000000000000000000000000000000000000000000000000000000000000000010000000000000000000000000000000010000000000080001010000000000000000000000000000000000000000000",
      "type": "0x2",
      "transactionHash": "0x7f240114b513f146b67ea7228fd94fb20a2acefe76c314db158930a991ee297b",
      "transactionIndex": "0x50",
      "blockHash": "0xf88e042f8127f2d0953f91413a80c3325d44129da01d254ce29b754d3f7010d9",
      "blockNumber": "0x602db6",
      "gasUsed": "0x8c2d",
      "effectiveGasPrice": "0x1b4d21241",
      "from": "0x633adfb3430b96238c9fb7026195d1d5b0889ea6",
      "to": "0x1c7d4b196cb0c7b01d743fbc6116a902379c7238",
      "contractAddress": null
    },
    {
      "status": "0x1",
      "cumulativeGasUsed": "0x10f2a11",
      "logs": [
        {
          "address": "0xfff9976782d46cc05630d1f6ebab18b2324d6b14",
          "topics": [
            "0x8c5be1e5ebec7d5bd14f71427d1e84f3dd0314c0f7b2291e5b200ac8c7c3b925",
            "0x000000000000000000000000633adfb3430b96238c9fb7026195d1d5b0889ea6",
            "0x00000000000000000000000061d810c745e3cfa17659a64d68824137c7b9625e"
          ],
          "data": "0xffffffffffffffffffffffffffffffffffffffffffffffffffffffffffffffff",
          "blockHash": "0xf88e042f8127f2d0953f91413a80c3325d44129da01d254ce29b754d3f7010d9",
          "blockNumber": "0x602db6",
          "transactionHash": "0x446390a9f681b5c92427c79099492b2c51494be719204e61724f26b030ec2f1a",
          "transactionIndex": "0x51",
          "logIndex": "0xbf",
          "removed": false
        }
      ],
      "logsBloom": "0x00000000000000000000000000000000000000000000000000000000000000000000000000000000000000000000000000000000000000000000000000200000000000000000000000000000000000000000000000000040000000000000000000000000000000000000000000000000000000200000000000000000000000000040000000000000000000000000000000000000000000000000000000000000020020000000000000000004000000000000000000000000000000000000000000000000000000000002000000000000010000000000000000000000000000000010000000000080001000000000000000000000000000000000000000000000",
      "type": "0x2",
      "transactionHash": "0x446390a9f681b5c92427c79099492b2c51494be719204e61724f26b030ec2f1a",
      "transactionIndex": "0x51",
      "blockHash": "0xf88e042f8127f2d0953f91413a80c3325d44129da01d254ce29b754d3f7010d9",
      "blockNumber": "0x602db6",
      "gasUsed": "0x6760",
      "effectiveGasPrice": "0x1b4d21241",
      "from": "0x633adfb3430b96238c9fb7026195d1d5b0889ea6",
      "to": "0xfff9976782d46cc05630d1f6ebab18b2324d6b14",
      "contractAddress": null
    },
    {
      "status": "0x1",
      "cumulativeGasUsed": "0x1311d02",
      "logs": [
        {
          "address": "0x61d810c745e3cfa17659a64d68824137c7b9625e",
          "topics": [
            "0x40e9cecb9f5f1f1c5b9c97dec2917b7ee92e57ba5563708daca94dd84ad7112f",
            "0xabdb9820d36431e092c155f7151c4c781f09fb4e1b7894fa918a0aadcac87e16"
          ],
          "data": "0x0000000000000000000000006f41d083b4c66aadb6b4422b8b1de65d6177324afffffffffffffffffffffffffffffffffffffffffffffffffffffffffffe23ef000000000000000000000000000000000000000000000000000000000001cdc400000000000000000000000000000000000000000000000000000001000276a40000000000000000000000000000000000000000000000000000000000000000fffffffffffffffffffffffffffffffffffffffffffffffffffffffffff2761800000000000000000000000000000000000000000000000000000000000001f4",
          "blockHash": "0xf88e042f8127f2d0953f91413a80c3325d44129da01d254ce29b754d3f7010d9",
          "blockNumber": "0x602db6",
          "transactionHash": "0x72d7d1f9c3f1e49982cb4515f4372627ceca93527326b7b2dab3a8a78fc61810",
          "transactionIndex": "0x52",
          "logIndex": "0xc0",
          "removed": false
        },
        {
          "address": "0x1c7d4b196cb0c7b01d743fbc6116a902379c7238",
          "topics": [
            "0xddf252ad1be2c89b69c2b068fc378daa952ba7f163c4a11628f55a4df523b3ef",
            "0x000000000000000000000000633adfb3430b96238c9fb7026195d1d5b0889ea6",
            "0x00000000000000000000000061d810c745e3cfa17659a64d68824137c7b9625e"
          ],
          "data": "0x000000000000000000000000000000000000000000000000000000000001dc11",
          "blockHash": "0xf88e042f8127f2d0953f91413a80c3325d44129da01d254ce29b754d3f7010d9",
          "blockNumber": "0x602db6",
          "transactionHash": "0x72d7d1f9c3f1e49982cb4515f4372627ceca93527326b7b2dab3a8a78fc61810",
          "transactionIndex": "0x52",
          "logIndex": "0xc1",
          "removed": false
        },
        {
          "address": "0xfff9976782d46cc05630d1f6ebab18b2324d6b14",
          "topics": [
            "0xddf252ad1be2c89b69c2b068fc378daa952ba7f163c4a11628f55a4df523b3ef",
            "0x00000000000000000000000061d810c745e3cfa17659a64d68824137c7b9625e",
            "0x000000000000000000000000633adfb3430b96238c9fb7026195d1d5b0889ea6"
          ],
          "data": "0x000000000000000000000000000000000000000000000000000000000001cdc4",
          "blockHash": "0xf88e042f8127f2d0953f91413a80c3325d44129da01d254ce29b754d3f7010d9",
          "blockNumber": "0x602db6",
          "transactionHash": "0x72d7d1f9c3f1e49982cb4515f4372627ceca93527326b7b2dab3a8a78fc61810",
          "transactionIndex": "0x52",
          "logIndex": "0xc2",
          "removed": false
        }
      ],
      "logsBloom": "0x00000000000000000000000000000000000000000000000000000000000200000000000000000000000000000000000000000000040000000000000000000000000000000000000000000008000000000001000000000060000000000000000000000000000000000000000000000000000000200000000000000010000000000040000000100000000000000000000000000004000000000000000100000000000020000000000000000004000000000000000000000000000000000000000000000002000000000002000000000100010000000000000000000000000000000000000000000080005010000000000000000000001000000200000000000000",
      "type": "0x2",
      "transactionHash": "0x72d7d1f9c3f1e49982cb4515f4372627ceca93527326b7b2dab3a8a78fc61810",
      "transactionIndex": "0x52",
      "blockHash": "0xf88e042f8127f2d0953f91413a80c3325d44129da01d254ce29b754d3f7010d9",
      "blockNumber": "0x602db6",
      "gasUsed": "0x21f2f1",
      "effectiveGasPrice": "0x1b4d21241",
      "from": "0x633adfb3430b96238c9fb7026195d1d5b0889ea6",
      "to": "0x6f41d083b4c66aadb6b4422b8b1de65d6177324a",
      "contractAddress": null
    }
  ],
  "libraries": [],
  "pending": [],
  "returns": {},
  "timestamp": 1720879021,
  "chain": 11155111,
  "commit": "2396f65"
}