{
  "transactions": [
    {
      "hash": "0xe640699a1e69153bce88c2a9203841397f2bf38f7cc52d00d1e7a45653058526",
      "transactionType": "CALL",
      "contractName": null,
      "contractAddress": "0x1c7d4b196cb0c7b01d743fbc6116a902379c7238",
      "function": "approve(address,uint256)",
      "arguments": [
        "0xff80e212A63059B8d904104a7d58baa4fB00D30E",
        "115792089237316195423570985008687907853269984665640564039457584007913129639935"
      ],
      "transaction": {
        "from": "0x633adfb3430b96238c9fb7026195d1d5b0889ea6",
        "to": "0x1c7d4b196cb0c7b01d743fbc6116a902379c7238",
        "gas": "0xdcef",
        "value": "0x0",
        "input": "0x095ea7b3000000000000000000000000ff80e212a63059b8d904104a7d58baa4fb00d30effffffffffffffffffffffffffffffffffffffffffffffffffffffffffffffff",
        "nonce": "0xcd",
        "chainId": "0xaa36a7"
      },
      "additionalContracts": [],
      "isFixedGasLimit": false
    }
  ],
  "receipts": [
    {
      "status": "0x1",
      "cumulativeGasUsed": "0xab53d8",
      "logs": [
        {
          "address": "0x1c7d4b196cb0c7b01d743fbc6116a902379c7238",
          "topics": [
            "0x8c5be1e5ebec7d5bd14f71427d1e84f3dd0314c0f7b2291e5b200ac8c7c3b925",
            "0x000000000000000000000000633adfb3430b96238c9fb7026195d1d5b0889ea6",
            "0x000000000000000000000000ff80e212a63059b8d904104a7d58baa4fb00d30e"
          ],
          "data": "0xffffffffffffffffffffffffffffffffffffffffffffffffffffffffffffffff",
          "blockHash": "0xf0054c5b4392e7e20e6e99d63002ecd9060658cbd1bf0ccb42962e15ba4c7937",
          "blockNumber": "0x602b54",
          "transactionHash": "0xe640699a1e69153bce88c2a9203841397f2bf38f7cc52d00d1e7a45653058526",
          "transactionIndex": "0x57",
          "logIndex": "0x66",
          "removed": false
        }
      ],
      "logsBloom": "0x00000000000000000000000000000000000000000000000000000000000200000000000000000000000000000000000000000000200000000000000000200001000000000000000000000000000000000000000000000000000000000000000000000000000000000000000000000000000000200000000000002000000000000000000000100000000000000000000000000000000000000000000000000000020000000000000000000000000000000000000000000000000000000000000000000000000000000000000000000000010000000000000000000000000000000010000000000080000010000000000000000000000000000000000000000000",
      "type": "0x2",
      "transactionHash": "0xe640699a1e69153bce88c2a9203841397f2bf38f7cc52d00d1e7a45653058526",
      "transactionIndex": "0x57",
      "blockHash": "0xf0054c5b4392e7e20e6e99d63002ecd9060658cbd1bf0ccb42962e15ba4c7937",
      "blockNumber": "0x602b54",
      "gasUsed": "0x9711",
      "effectiveGasPrice": "0x3d12a61c",
      "from": "0x633adfb3430b96238c9fb7026195d1d5b0889ea6",
      "to": "0x1c7d4b196cb0c7b01d743fbc6116a902379c7238",
      "contractAddress": null
    }
  ],
  "libraries": [],
  "pending": [],
  "returns": {},
  "timestamp": 1720870613,
  "chain": 11155111,
  "commit": "2396f65"
}