{
  "transactions": [
    {
      "hash": "0x49601529712b2bfde0d18e3005c7ebff6a8078af4ce04d8b6f9c3486ae99a2e7",
      "transactionType": "CALL",
      "contractName": null,
      "contractAddress": "0x1c7d4b196cb0c7b01d743fbc6116a902379c7238",
      "function": "approve(address,uint256)",
      "arguments": [
        "0xff80e212A63059B8d904104a7d58baa4fB00D30E",
        "10000000"
      ],
      "transaction": {
        "from": "0x633adfb3430b96238c9fb7026195d1d5b0889ea6",
        "to": "0x1c7d4b196cb0c7b01d743fbc6116a902379c7238",
        "gas": "0xcec8",
        "value": "0x0",
        "input": "0x095ea7b3000000000000000000000000ff80e212a63059b8d904104a7d58baa4fb00d30e0000000000000000000000000000000000000000000000000000000000989680",
        "nonce": "0xc9",
        "chainId": "0xaa36a7"
      },
      "additionalContracts": [],
      "isFixedGasLimit": false
    }
  ],
  "receipts": [
    {
      "status": "0x1",
      "cumulativeGasUsed": "0x7179d0",
      "logs": [
        {
          "address": "0x1c7d4b196cb0c7b01d743fbc6116a902379c7238",
          "topics": [
            "0x8c5be1e5ebec7d5bd14f71427d1e84f3dd0314c0f7b2291e5b200ac8c7c3b925",
            "0x000000000000000000000000633adfb3430b96238c9fb7026195d1d5b0889ea6",
            "0x000000000000000000000000ff80e212a63059b8d904104a7d58baa4fb00d30e"
          ],
          "data": "0x0000000000000000000000000000000000000000000000000000000000989680",
          "blockHash": "0xd5054a5fcedd1cbb5db0a55d5c820f260404fd82a2e643c0c162ab8a2f79233a",
          "blockNumber": "0x602973",
          "transactionHash": "0x49601529712b2bfde0d18e3005c7ebff6a8078af4ce04d8b6f9c3486ae99a2e7",
          "transactionIndex": "0x45",
          "logIndex": "0x66",
          "removed": false
        }
      ],
      "logsBloom": "0x00000000000000000000000000000000000000000000000000000000000200000000000000000000000000000000000000000000200000000000000000200001000000000000000000000000000000000000000000000000000000000000000000000000000000000000000000000000000000200000000000002000000000000000000000100000000000000000000000000000000000000000000000000000020000000000000000000000000000000000000000000000000000000000000000000000000000000000000000000000010000000000000000000000000000000010000000000080000010000000000000000000000000000000000000000000",
      "type": "0x2",
      "transactionHash": "0x49601529712b2bfde0d18e3005c7ebff6a8078af4ce04d8b6f9c3486ae99a2e7",
      "transactionIndex": "0x45",
      "blockHash": "0xd5054a5fcedd1cbb5db0a55d5c820f260404fd82a2e643c0c162ab8a2f79233a",
      "blockNumber": "0x602973",
      "gasUsed": "0x95b5",
      "effectiveGasPrice": "0xe0025494",
      "from": "0x633adfb3430b96238c9fb7026195d1d5b0889ea6",
      "to": "0x1c7d4b196cb0c7b01d743fbc6116a902379c7238",
      "contractAddress": null
    }
  ],
  "libraries": [],
  "pending": [],
  "returns": {},
  "timestamp": 1720864314,
  "chain": 11155111,
  "commit": "0692a9a"
}