{
  "transactions": [
    {
      "hash": "0xeda0b09828ac491b2a96b92298c1a93c4586e315b2f264386a26c49851fea6d7",
      "transactionType": "CALL",
      "contractName": null,
      "contractAddress": "0xfff9976782d46cc05630d1f6ebab18b2324d6b14",
      "function": "approve(address,uint256)",
      "arguments": [
        "0xff80e212A63059B8d904104a7d58baa4fB00D30E",
        "10000000"
      ],
      "transaction": {
        "from": "0x633adfb3430b96238c9fb7026195d1d5b0889ea6",
        "to": "0xfff9976782d46cc05630d1f6ebab18b2324d6b14",
        "gas": "0xf836",
        "value": "0x0",
        "input": "0x095ea7b3000000000000000000000000ff80e212a63059b8d904104a7d58baa4fb00d30e0000000000000000000000000000000000000000000000000000000000989680",
        "nonce": "0xcb",
        "chainId": "0xaa36a7"
      },
      "additionalContracts": [],
      "isFixedGasLimit": false
    }
  ],
  "receipts": [
    {
      "status": "0x1",
      "cumulativeGasUsed": "0x93ce91",
      "logs": [
        {
          "address": "0xfff9976782d46cc05630d1f6ebab18b2324d6b14",
          "topics": [
            "0x8c5be1e5ebec7d5bd14f71427d1e84f3dd0314c0f7b2291e5b200ac8c7c3b925",
            "0x000000000000000000000000633adfb3430b96238c9fb7026195d1d5b0889ea6",
            "0x000000000000000000000000ff80e212a63059b8d904104a7d58baa4fb00d30e"
          ],
          "data": "0x0000000000000000000000000000000000000000000000000000000000989680",
          "blockHash": "0x3445d66bfe7b4c48e1a8a4e5dddeb2b9c0b871270b645223996e9add6cec829d",
          "blockNumber": "0x602b4a",
          "transactionHash": "0xeda0b09828ac491b2a96b92298c1a93c4586e315b2f264386a26c49851fea6d7",
          "transactionIndex": "0x3f",
          "logIndex": "0x5f",
          "removed": false
        }
      ],
      "logsBloom": "0x00000000000000000000000000000000000000000000000000000000000000000000000000000000000000000000000000000000200000000000000000200001000000000000000000000000000000000000000000000000000000000000000000000000000000000000000000000000000000200000000000002000000000000040000000000000000000000000000000000000000000000000000000000000020020000000000000000000000000000000000000000000000000000000000000000000000000000002000000000000010000000000000000000000000000000010000000000080000000000000000000000000000000000000000000000000",
      "type": "0x2",
      "transactionHash": "0xeda0b09828ac491b2a96b92298c1a93c4586e315b2f264386a26c49851fea6d7",
      "transactionIndex": "0x3f",
      "blockHash": "0x3445d66bfe7b4c48e1a8a4e5dddeb2b9c0b871270b645223996e9add6cec829d",
      "blockNumber": "0x602b4a",
      "gasUsed": "0xb3b4",
      "effectiveGasPrice": "0x3d8b9936",
      "from": "0x633adfb3430b96238c9fb7026195d1d5b0889ea6",
      "to": "0xfff9976782d46cc05630d1f6ebab18b2324d6b14",
      "contractAddress": null
    }
  ],
  "libraries": [],
  "pending": [],
  "returns": {},
  "timestamp": 1720870493,
  "chain": 11155111,
  "commit": "2396f65"
}